:020000040800F2
:10000000C0290020A50100081F4C0008FD39000888
:100010001D4C00084B110008316000080000000072
:10002000000000000000000000000000B55B0008B8
:10003000E513000800000000D54D0008B75B00087C
:10004000BF010008BF010008BF010008794E000889
:10005000BF010008BF010008BF010008BF01000880
:10006000BF010008BF010008BF010008BF01000870
:10007000BF010008BF010008BF010008BF01000860
:10008000BF010008BF010008BF010008BF01000850
:10009000BF010008BF010008BF010008BF01000840
:1000A000BF010008BF010008BF010008BF01000830
:1000B000BF010008BF0100083D5C0008213A0008AC
:1000C000153A0008BF010008BF0100085557000895
:1000D000BF01000825600008BF010008BF0100083B
:1000E000BF010008BF010008BF01000800F002F8CE
:1000F00000F048F80AA090E8000C82448344AAF17A
:100100000107DA4501D100F03DF8AFF2090EBAE877
:100110000F0013F0010F18BFFB1A43F0010318473B
:100120003C7600005C760000103A24BF78C878C1A5
:10013000FAD8520724BF30C830C144BF04680C60ED
:10014000704700000023002400250026103A28BF35
:1001500078C1FBD8520728BF30C148BF0B60704739
:10016000642900F05380002070471FB500F0B8FDEF
:1001700004000020002106F099FB401C60601FBDB8
:1001800010B510BD00F07CFF1146FFF7EEFF06F042
:1001900027F900F09AFF03B4FFF7F2FF03BC00F069
:1001A00095FD00000948804709480047FEE7FEE743
:1001B000FEE7FEE7FEE7FEE7FEE7FEE7FEE7FEE717
:1001C00004480549054A064B704700003B5C00089F
:1001D000ED000008C0230020C0290020C025002019
:1001E000C02500200FB41CB5074B06AA7B44694606
:1001F0000090059800F0A1FC0020694600F0B0FCDA
:100200001CBC5DF814FB0000710900002DE9F041F1
:100210000646002410687529314616A510D0AFF3A4
:100220000080002802DA404213A507E031688A07FF
:1002300001D512A502E0490704D511A5012401E06A
:10024000AFF3008000210A2206F1240709E0B0FB89
:10025000F2FCB0FBF2F302FB1C003030785418467D
:10026000491C0028F3D123462A463046BDE8F04118
:1002700000F004BC000000002D0000002B00000076
:10028000200000002DE9F0474FF0000A894604469F
:10029000C0F820A02046E1688847002876D02528AD
:1002A00006D0D4E901219047206A401C2062F1E782
:1002B000E168204600258847C4F81CA006460027B0
:1002C000C4F818A02A2E09D0304605F0C2FE38B373
:1002D00004EB8708303EC8F8186019E059F8041B91
:1002E000204604EB87029161E1688847012F0646AA
:1002F00018D1E069002820DA25F020051DE0D8F8A3
:10030000180000EB800006EB40003038C8F81800F9
:100310002046E1688847064605F09BFE0028EED19E
:10032000012F0AD02E2E08D12046E16888477F1C75
:100330000646022F45F02005C4DBA069002803DA39
:10034000404245F00105A061E80701D025F0100505
:10035000B6B1A6F14100192802D8203645F400654F
:100360004A463146204625604D46FFF7F9FE58B112
:10037000012806D0ED1D25F0070000F1080989E7E6
:1003800004E005F1040985E730468AE7206ABDE804
:10039000F08700000FB400B58DB010A9099000914E
:1003A0000B904FF0FF300A9000200C9006487844E4
:1003B0000690064878446A4607900F9909A800F00D
:1003C000E9FB0DB05DF814FB030800001B080000FA
:1003D0002DE9FF5F1D464FF0FF3B91464FF00008AF
:1003E0005F46D5E90146A96901987F1C8847296ABB
:1003F000824688470028F6D1BAF1FF3F0CD0002E84
:1004000024F4C06419DD600614D5BAF12B0F09D0AD
:10041000BAF12D0F0ED103E0584604B0BDE8F09FAD
:1004200044F48064A96901987F1C8847761E82463F
:10043000002E02DDBAF1300F03D0B9F1000F26D043
:1004400032E0A969761E01987F1C44F40074884745
:10045000002E824605DDBAF1780F06D0BAF1580FAA
:1004600003D0B9F1000F10D01EE0B9F1000F02D097
:10047000B9F1100F18D1A969761E01987F1C24F4D8
:10048000007488478246102002E0082000E00A201D
:10049000814609E0A96908FB0908761E01987F1CBE
:1004A00044F4007488478246002E05DD49465046D4
:1004B00000F05BFB0028EDDAE96901988847A005A8
:1004C00002D46FF00100A8E7E00725D1600613D53C
:1004D000600502D5C8F1000000E0404629680A1D09
:1004E0002A600968220501D5087015E0220701D5A8
:1004F000088011E008600FE02868011D296000688D
:10050000210502D580F8008006E0210702D5A0F879
:10051000008001E0C0F8008038467EE72DE9F04712
:1005200091460F4680460446002614F8015B2DB123
:1005300000F098FA0068405DC007F6D12B2D02D07C
:100540002D2D18D0641E4A463946204600F052FB35
:1005500027B13968A14201D1C7F800804FF00204E9
:1005600071050BD54042002803DD00F083FA0460DA
:10057000A007BDE8F08746F48066E4E70028F8DAD3
:1005800000F078FA04606FF00040F2E70EB505461F
:1005900014460E4613A000F087FB284600F084FBAB
:1005A00016A000F081FB304600F07EFB15A000F0A5
:1005B0007BFB00218DF80B100A210DF10A008DF84C
:1005C0000A1008E094FBF1F201FB124294FBF1F4F3
:1005D000303200F8012D002CF4DC00F065FB00F057
:1005E00058FB00002A2A2A20617373657274696FB0
:1005F0006E206661696C65643A2000002C20666993
:100600006C6520002C206C696E652000401ECAB20B
:1006100010F8011F8A4202D00029F9D1002070474A
:1006200010B5431E13F8014F002CFBD105E011F863
:10063000014B002C03F8014B03D0521EF7D20021CE
:10064000197010BD30B505460B462A4613F8014B0C
:1006500012F8010B08B1A042F8D01CB1002802D05A
:100660006D1CF1E7284630BD40EA010310B59B0739
:100670000FD1042A0DD310C808C9121F9C42F8D00C
:1006800020BA19BA884201D9012010BD4FF0FF30BD
:1006900010BD1AB1D30703D0521C07E0002010BDD3
:1006A00010F8013B11F8014B1B1B07D110F8013B5F
:1006B00011F8014B1B1B01D1921EF1D1184610BD40
:1006C00040EA0103024630B59B0710D14FF00134D8
:1006D00000E008C208C91D1B9D4315EAC41FF8D0DD
:1006E00013F0FF0102F8011B0DD01B0AF8E711F807
:1006F000013B002B02F8013B05D011F8013B002B18
:1007000002F8013BF3D130BD10B5431C02E010F8F4
:10071000011B71B18107FAD14FF0013202C88C1A66
:100720008C4314EAC211F9D0C01A0A0603D0C01EC5
:1007300010BDC01A10BD0A0401D0801E10BD0902F0
:10074000FCD0401E10BD40EA010370B59B072ED1BE
:100750004FF00136042A2AD308C810C99D1B9D43B7
:10076000121F15EAC61517D0D8B2E1B2401A50EAE6
:10077000056110D198B2A1B2401A50EA05410AD1E0
:1007800023F07F4024F07F41401A50EA052102D136
:10079000180EA0EB146070BDA342DBD018BA21BACA
:1007A000884201D9012070BD4FF0FF3070BD0AB9F9
:1007B000002070BD10F8013B11F8014B63B1A3425A
:1007C0000AD1521E08D010F8013B11F8014B1BB1A1
:1007D000A34201D1521EEDD1181B70BD421E12F86A
:1007E000013F002BFBD111F8013B002B02F8013B2C
:1007F000F9D17047032A40F2308010F0030C00F06A
:10080000158011F8013BBCF1020F624498BF11F84A
:1008100001CB00F8013B38BF11F8013BA2F1040203
:1008200098BF00F801CB38BF00F8013B11F003037B
:1008300000F02580083AC0F0088051F8043B083ADF
:1008400051F804CBA0E80810F5E7121D5CBF51F881
:10085000043B40F8043BAFF30080D20724BF11F8FB
:10086000013B11F801CB48BF11F8012B24BF00F860
:10087000013B00F801CB48BF00F8012B704710B5D1
:10088000203AC0F00B80B1E81850203AA0E8185088
:10089000B1E81850A0E81850BFF4F5AF5FEA027C49
:1008A00024BFB1E81850A0E8185044BF18C918C0B8
:1008B000BDE810405FEA827C24BF51F8043B40F859
:1008C000043B08BF7047D20728BF31F8023B48BF3E
:1008D00011F8012B28BF20F8023B48BF00F8012B7C
:1008E000704702F0FF0343EA032242EA024200F0AB
:1008F00002B84FF000020429C0F0128010F0030C7F
:1009000000F01B80CCF1040CBCF1020F18BF00F802
:10091000012BA8BF20F8022BA1EB0C0100F00DB8B1
:100920005FEAC17C24BF00F8012B00F8012B48BF0F
:1009300000F8012B70474FF0000200B513469446B3
:100940009646203922BFA0E80C50A0E80C50B1F127
:100950002001BFF4F7AF090728BFA0E80C5048BF3B
:100960000CC05DF804EB890028BF40F8042B08BFD9
:10097000704748BF20F8022B11F0804F18BF00F8D5
:10098000012B704710B5044610F0030F08BF11F09B
:10099000030F40F015804FF0013E121FC0F20E8091
:1009A00051F8043BA3EB0E0C2CEA030C1CEACE1C02
:1009B00008BF40F8043BF0D0A1F1040102F10402A9
:1009C000521E08DB11F8013B002B00F8013BF7D168
:1009D0001146FFF78EFF204610BD00004FF0013C8E
:1009E00050F8042B51F8043B9A4221D1A2EB0C039E
:1009F000934313EACC1317D150F8042B51F8043B5E
:100A00009A4215D1A2EB0C03934313EACC130BD1FA
:100A100050F8042B51F8043B9A4209D1A2EB0C0385
:100A2000934313EACC13DBD04FF00000704700BFB4
:100A3000D01A01BAB1FA81F101F0180122FA01F0DD
:100A4000CB40C1F12001DBB2C0B2C01A2CFA01F3D5
:100A5000D11A914311EAC311E6D17047704770472C
:100A60007047000010B500F03BF9001D10BD00BF3D
:100A70003D5E000000487047602300202DE9F047EC
:100A80000D4699469246044600F1240801688806FE
:100A900004D5E06921F01001216000E00120A842A6
:100AA00001DD471B00E00027A1697A1902EB09006C
:100AB000081AA0612078C00602D42046AFF3008057
:100AC000002608E0D4E901211AF806009047206AC0
:100AD000401C761C20624E45F4DB2078C0060AD507
:100AE0002046AFF3008006E0D4E901213020904792
:100AF000206A401C2062381EA7F10107F4DC07E0E1
:100B0000D4E9012118F805009047206A401C2062B2
:100B1000281EA5F10105F3DC2046AFF30080207804
:100B2000000602D50220BDE8F0870120FBE70000A7
:100B300001694A1C02610878704700B58FB0CDE9A1
:100B400001310021059105497944CDE90310114691
:100B50006846FFF797FB0FB000BD0000E5FFFFFF01
:100B60000A6802F8010B0A6070473A2800D2303850
:100B700020F02002412A01D3A2F13700884201D39C
:100B80004FF0FF3070470000026811441378016095
:100B900018467047D1600549794451610449794448
:100BA000116200211161114600F0A8B8EDFFFFFFAE
:100BB00047010000426842B1016811F8013B23B1CE
:100BC000521EC0E90012184670470121C160881EFC
:100BD000704742685AB1C368016843B983688B4261
:100BE00005D0491E521CC0E90012002070474FF08A
:100BF000FF3070472DE9F05F824615468B4600278F
:100C00000AF10104B9460078302801D09DB113E003
:100C100014F8010B0127782803D0582801D045B1DA
:100C20000AE00DB1102D07D1002714F8010B102593
:100C300002E0082500E00A250026B0460EE005FB8C
:100C4000080005FB06F101271FFA80F801EB1046AA
:100C5000B6F5803F00D3B94614F8010B2946FFF7DB
:100C600084FF0028EBDABBF1000F05D00FB1641E42
:100C700000E05446CBF80040B9F1000F06D0FFF772
:100C8000F9FE02210160C81EBDE8F09F48EA064057
:100C9000FAE710B5002000F0EBF9FFF771FABDE8B4
:100CA0001040012000F012B810B5044602E0641CA8
:100CB00000F004F820780028F9D110BD08B5694685
:100CC0008DF800000320ABBE08BD000001491820CC
:100CD000ABBEFEE7260002000048704760230020FC
:100CE000004870478023002010B50446FFF7BAFE85
:100CF0000068005D00F0010010BD00002DE9F34F19
:100D00004FF0000A0C4656468DB001200C9001F1C0
:100D10000C000B9062690B9801219047051E2DD0A5
:100D2000252D2CD0216A8847C0B162690B9801211A
:100D30009047216A88470028F7D16269411E0B98C5
:100D4000904700E0761CA1690D988847216A884782
:100D50000028F7D1E1690D988847DBE7A1690D9874
:100D60008847A842074601D1761CD3E7E1690D9870
:100D700088477F1C02D1BAF1000F6FD06CE1626925
:100D80000B9800273D46394690472A2804D16269CE
:100D90000B98012190470125DFF8D08262690B98FA
:100DA00001219047A0F130010A290AD24745E5DC2C
:100DB00007EB870100EB4107303FDFD445F010051A
:100DC000ECE7E90601D46FF000476C280AD04C2804
:100DD00014D0682815D06A280DD074281CD07A2821
:100DE0001AD01DE062690B98012190476C2802D04F
:100DF00045F0040514E045F002050DE045F020053E
:100E00000AE062690B9801219047682802D045F0FA
:100E1000080505E045F4006562690B9801219047DB
:100E2000C4E9015765283DD019DC58287AD00CDC7C
:100E3000452837D004DC252826D041289ED131E032
:100E400046282FD0472899D12CE05B2877D06128FD
:100E500028D063287CD0642823D15AE0F7E06F289B
:100E600048D008DC66281DD067281BD0692821D00F
:100E70006E2816D127E0702845D0732868D07528D1
:100E800047D078280DD14DE0A1690D9888472528D5
:100E900005463FF469AFE1690D9888476D1C3FF442
:100EA0006AAFD9E00D9923466A466FF00100AFF3AF
:100EB0000080C6E045F0400023464FF0000260602D
:100EC000A80736D43EE0E8077FF447AF2068011D4D
:100ED00021600068290501D506701BE7290701D5A7
:100EE000068017E7A90703D5F117C0E9006111E7EC
:100EF00006600FE745F0400023464FF008026060AF
:100F0000A80716D41EE040F60E0125EA0100606035
:100F100016E045F0400023464FF00A026060A80743
:100F200007D40FE045F040006060A80708D52346CD
:100F300010220D996FF00100AFF3008081E007E00F
:100F4000102223460D996FF00100FFF741FA78E077
:100F50004FF0000963284F46C8464B46CB4602D0A7
:100F60005B2807D039E02079C00601D40120A060B9
:100F7000012732E06269D4F80CB00B980121904748
:100F80005E2807D14FF0010949466269D4F80CB0D8
:100F90000B989047216939B900210A4603AB43F801
:100FA0002120491C0829FADBD8B3216949B308F18B
:100FB000010862690B98012190475D28F4D1B9F1CD
:100FC000000F09D0002003A951F82020D24341F896
:100FD0002020401C0828F7DB03AB2069002820797B
:100FE0004FEA40701ED05B462246CDF80080CDE926
:100FF00001970D9900286FF0010020DAAFF300800F
:101000001FE0C11703AA00EBD1614B1121F01F01B2
:1010100002EB8302411A13680120884003431360E6
:10102000C7E719E00D99224600286FF001000097EC
:1010300002DAAFF3008004E0AFF3008001E0AFF329
:10104000008000280ADA401C06D10C9820B14FF02D
:10105000FF300FB0BDE8F08F5046FAE7E90701D145
:101060000AF1010A064400200C9053E6CCCCCC0CCB
:1010700010B500F039F8BDE8104000F02FB8704707
:101080007546FFF729FEAE4605006946534620F037
:101090000700854618B020B5FFF792F8BDE820405C
:1010A0004FF000064FF000074FF000084FF0000B24
:1010B00021F00701AC46ACE8C009ACE8C009ACE8D7
:1010C000C009ACE8C0098D46704710B50446AFF3BF
:1010D00000802046BDE81040FFF75DB8002801D031
:1010E000FFF7F4BD7047000010B5002102A000F02A
:1010F00013F8012010BD0000534947414252543AB1
:101100002041626E6F726D616C207465726D696EE4
:101110006174696F6E00000070B505460C460A20C8
:1011200000E06D1CFFF7CAFD35B128780028F8D122
:1011300002E0641CFFF7C2FD14B120780028F8D14A
:10114000BDE870400A20FFF7B9BDFEE710B50446C0
:1011500021460C48FFF742FC002812D004F0B0FBF7
:101160001E21002004F0E2FB01220749204604F082
:10117000EBFC21460348FFF7A3FABDE8104004F05A
:10118000F7BC10BD1C1500200800002070B50546F6
:101190000024094E04EB440006EB80012846FFF7CB
:1011A00051FAA84201D1204670BD641CE4B2072C5C
:1011B000F0D3072070BD00002C00002070B505465C
:1011C0000C462846FFF7E2FF072807D0064951F8EA
:1011D000202021462846BDE870401047204603F0F5
:1011E00083FD012070BD00008C750008042070474D
:1011F0000420704704207047042070470420704783
:1012000038B504460D462046FFF77EFA05281ED95C
:101210002046FFF779FA082819D2002000906A4684
:101220000DA1601DFFF7B6F8012810D100983028F5
:101230000DDC00F045F8009980F84210611D284649
:1012400003F0EEFC08B1002038BD082038BD284668
:1012500003F04AFD042038BD2564000004207047D7
:1012600070B5134C636893F8411005290CD0002227
:1012700002EB820505EBC205595D39B1521CD2B2B1
:10128000052AF5D3002070BD002070BD02EB82015D
:1012900001EBC2010B4401460D221846FFF7AAFAE2
:1012A000606810F8411F491C0170012070BD0000EA
:1012B0001800002001494860704700001800002015
:1012C0000148406870470000180000202DE9F041F7
:1012D000264C606890F84100002839D1244F002640
:1012E00011E024A0FFF732FF207860B126A1384634
:1012F000FFF774FBD8B11E48143803F0F5FC24A0A6
:10130000FFF724FF2670606890F841000028E8D0BD
:10131000606803F015FD00251FA0FFF717FF207878
:1013200098B13846FFF732FF012805D00AE010488F
:101330001438FFF795FFE5E70D4861681438FFF7AB
:101340004DFB38B1606803F0CFFC2670002DE3D070
:10135000BDE8F081064938461439FFF72FFF18B170
:10136000606803F0C1FCF0E70125EEE718000020FB
:10137000A414002057616974696E6720666F72203B
:101380006E756D6265720000434F4E4600000000AE
:101390004E6F70650000000057616974696E6720C8
:1013A000666F7220496E74657276616C0000000091
:1013B00010B50A4C41216068FFF7BDFA6068002152
:1013C00080F841104FF410714430FFF7B4FABDE8D3
:1013D000104028210248FFF78CBA000018000020B6
:1013E000901400207047000005A0FFF7AFFE022018
:1013F00003F0A4FA72B602A0FFF7A8FEFBE7000014
:101400004572726F722121212100000010B586B053
:1014100000240194029403940494002005F038F908
:1014200001200190029003940220049001A9184821
:1014300000F02CF91848174901604FF4827141609F
:101440008460C460046144614FF4007181612821AB
:10145000C1610462446284620A21C16201F0F0FB4E
:1014600008B1FFF7C1FF05F035F8012005F010F9CC
:101470000AA0006805904FF47A73022205A9064875
:1014800001F024FD002005F003F906B010BD0000B6
:10149000000C014000300140EC1F00200100000062
:1014A000F8B506460C461546002E08D04FF400212C
:1014B0008C4204D28D4202D86019884201D90020A2
:1014C000F8BD012005F0E4F812A000680090200C9F
:1014D0008DF80100200A8DF802008DF803404FF4CA
:1014E0007A742346042269460B4801F0EFFC08B1E8
:1014F000002407E0AAB223463146074801F03AFC2F
:1015000028B10024002005F0C3F82046F8BD0124CE
:10151000F8E7000003000000EC1F00202DE9F04177
:1015200007460E461546002F08D04FF400218E4284
:1015300004D28D4202D87019884202D90020BDE839
:10154000F0814FF4805815E02C46444500D94446BC
:10155000300503D0C6F30B00C0F58054AC4200D96F
:101560002C4622463146384605F06AF930B1274408
:1015700026442D1B002DE7D10120E0E70020DEE707
:1015800010B590F821100022022905D004218163B2
:1015900080F82020012010BD01680B6823F00E03A5
:1015A0000B6001680B6823F001030B6090F840307A
:1015B000C46B012101FA03F3636080F8211080F805
:1015C0002020104610BD000010B5002490F8211016
:1015D000022903D00421816301243DE001680A68E7
:1015E00022F00E020A6001680A6822F001020A6015
:1015F0001A4A0168914201D1012121E0174A1432AF
:10160000914201D110211BE0144A2832914201D1AC
:10161000891515E0114A3C32914201D189140FE03D
:101620000E4A5032914202D14FF4803108E00B4A09
:101630006432914202D14FF4801101E04FF0807189
:10164000064A083A5160012180F82110002180F8F3
:101650002010416B01B18847204610BD08000240B0
:1016600090F821007047000070B5044600F00EF9B4
:101670000546601C02D004480078044400F006F9D6
:10168000401BA042FAD370BD800000202DE9F84F26
:1016900000240023DFF8C4914FF00F08A9F1040BD8
:1016A00009F1040AABF1040ED1E00127A7403A404A
:1016B000BA4275D1DFF8A8C14D68A5EB0C066545A7
:1016C0002BD00DDC032D34D005DC35B3012D19D022
:1016D000022D2FD11BE0112D16D0122D2AD119E089
:1016E000B6F5881F19D006DCB6F5803F15D0B6F5E3
:1016F000801F1FD111E0B6F5001F0ED0B6F5041FF4
:1017000018D10AE0CB6815E0CB681B1D12E0CB684E
:1017100008330FE0CB680C330CE08B6823B1012B4E
:1017200004D00823476105E0042303E00823076190
:1017300000E00023FF2A01D8054601E000F104057E
:1017400002D84FEA840603E0A4F108064FEA8606B1
:101750002F6808FA06FC27EA0C0703FA06F647EAA0
:1017600006072F604D68ED0070D53E4DAE6946F01E
:101770000106AE61AD6905F0010500953A4D24F012
:1017800003067719BE68A5072D0F08FA05FC26EA9F
:101790000C06DFF8D8C0604503D14FF0000C17E00D
:1017A00054E0DFF8CCC0604502D14FF0010C0FE0EF
:1017B000DFF8C0C0604502D14FF0020C08E0DFF84E
:1017C000B8C0604502D14FF0030C01E04FF0040CAB
:1017D0000CFA05FC4CEA060CC7F808C04D68ED028F
:1017E00005D5D9F800501543C9F8005004E0D9F8E0
:1017F00000509543C9F800504D68AD0205D5DAF8A0
:1018000000501543CAF8005004E0DAF80050954340
:10181000CAF800504D68AD0305D5DBF800501543FC
:10182000CBF8005004E0DBF800509543CBF80050B3
:101830004D68ED0305D5DEF800501543CEF8005095
:1018400004E0DEF800509543CEF80050641C0A68AE
:1018500032FA04F57FF429AFBDE8F88F080401409F
:10186000000011100010024000000140000801407B
:10187000000C01400010014000140140002A01D07A
:1018800001617047090401617047000001488068E8
:101890007047000080000020704770472DE9F0413C
:1018A000044621684A694E68002594F83E00D743F3
:1018B000FA050BD4F243D20508D401256FF48072E7
:1018C0004A6121680A6842F400420A60B90508D4F6
:1018D000F143C90505D445F0020522686FF4007193
:1018E0005161790525D4F143C90522D4628D94F85C
:1018F0003D10236B202808D13AB9212910D029297D
:101900000ED0282901D1212B0AD022686FF48061E2
:10191000516145F00405102806D0402804D008E0A5
:10192000204602F0BDFD04E02068016841F400712A
:101930000160380508D4F043C00505D445F008051A
:1019400021686FF400604861002D07D0206C2843A7
:1019500020642046BDE8F04102F0DCB8BDE8F0812B
:101960002DE9F041054600212B685A68EE6A95F88A
:101970003E4095F83D00102C05D0402C03D02C6C37
:10198000ECB35C696EE09F695969C9435FEAC17C49
:1019900005D0B6F52A0F7CD0B6F12A4F79D0CE0704
:1019A0000AD1D643B60507D4284602F03FF82846A8
:1019B000BDE8F04102F040BC0E0707D4D643B6059F
:1019C00004D42846BDE8F04102F054BB8E0707D48A
:1019D000D643B60504D42846BDE8F04102F060BB0A
:1019E000FE43760723D45B681B0552D40B060BD449
:1019F000D3435B0508D44B0706D5284600E02FE00B
:101A0000BDE8F04102F0D7BA490775D4D143890542
:101A100072D4212806D0402C6ED12846BDE8F04172
:101A200002F05ABC2846BDE8F04102F07FBA58687F
:101A3000000561D4480609D4D043400506D44807C0
:101A400004D52846BDE8F04102F0A9B9480753D4AF
:101A5000D043800550D42846BDE8F04102F01FB9BC
:101A600099695C69E443A6070AD4D643B60507D44E
:101A7000286C00B199692846BDE8F04102F0EBBC42
:101A8000E10609D4D143890506D42846BDE8F041D2
:101A900000E031E002F04CBD21280DD029280BD008
:101AA00060061FD4D04340051CD460071AD52846D1
:101AB000BDE8F04102F07DBC200609D4D0434005CA
:101AC00006D4600704D52846BDE8F04102F0A1BC69
:101AD000600711D4D04380050ED42846BDE8F041FC
:101AE00002F089BC600707D4D043800504D428469F
:101AF000BDE8F04102F04FBCBDE8F0817047000046
:101B000070B50446002C04D094F83D00002510B1B7
:101B100006E0012070BD84F83C50204600F022FA17
:101B2000242084F83D002068016821F00101016053
:101B30002068016841F4004101602068016821F4D7
:101B40000041016000F078FC4F4B6168994203D876
:101B50004E49884203D304E04D49884201D2012016
:101B600070BD4C49B0FBF1F12268566826F03F0683
:101B70000E43566062689A4201D8491C07E04FF450
:101B8000967251434FF47A72B1FBF2F1491C22680C
:101B9000166A26F03F06314311626168994210D8F7
:101BA0004900401EB0FBF1F2521CC2F30B02042AA2
:101BB00001D2042022E0B0FBF1F0401CC0F30B0086
:101BC0001CE0A268F2B301EBC10303EB0116431E54
:101BD000B3FBF6F35B1C43F480431B0549D092B37F
:101BE00001EBC10202EB0111401EB0FBF1F0401C01
:101BF000C0F30B0040F4804040F400402168CA6903
:101C00004CF6FF739A431043C861D4E907100143AF
:101C10002068026822F0C00211430160D4E9030188
:101C200001432068826848F2FF339A431143816080
:101C3000D4E9051001432068C26822F0FF02114375
:101C4000C16001E00EE016E02068016841F001018A
:101C500001602564202084F83D00256384F83E500F
:101C6000002070BD01EB4106431EB3FBF6F35B1C85
:101C7000B3E70120C2E701EB4101401EB0FBF1F0E8
:101C8000401CC0F30B00B7E7A086010080841E0053
:101C900000093D0040420F002DE9FF4F81B004468E
:101CA0008B461F46FFF7F2FD0546002694F83D00DF
:101CB000202803D0022005B0BDE8F08F19230122AF
:101CC00051492046009502F00FFD08B10220F2E7CD
:101CD00094F83C00012807D0012084F83C002068DB
:101CE0000168C90702D005E00220E4E7016841F07D
:101CF000010101602068016821F400610160242075
:101D000084F83D004FF0000AC4F840A03F48E0626C
:101D10004FF020092068016841F4807101603B4662
:101D200000224FF001112046009502F0DDFC40B189
:101D300020680068C00502D54FF4007020640320BD
:101D4000B9E721680BF0FE000861FFF79FFD05462B
:101D500020684169C1F340014069C0F380204FF021
:101D6000A0080EE0FFF792FD401BB84200D80FB963
:101D700084F83D8020684169C1F340014069C0F3A7
:101D8000802094F83D20A02A02D009B90028E9D08B
:101D900084F83D9020684169C943890718D42168B7
:101DA000096841F400710160206841698069009010
:101DB0001923012214492046009502F095FC08B130
:101DC000012078E784F83D9084F83CA0002072E779
:101DD000016841F40071016021686FF4806048611E
:101DE0001923012208492046009502F07DFC08B124
:101DF000012060E7761C039886428BD384F83D90DF
:101E000084F83CA0012056E7020010000000FFFF0C
:101E100070477047704700002DE9F84F04468A4626
:101E200015469946DDF82880FFF730FD064694F800
:101E30003D00202802D00220BDE8F88F192301229E
:101E400045492046009602F04FFC08B10220F3E716
:101E500094F83C00012807D0012084F83C00206859
:101E60000168C90702D005E00220E5E7016841F0FA
:101E7000010101602068016821F4006101602120F6
:101E800084F83D00102084F83E0000272764656236
:101E9000A4F82A90608D20853048E062334642469F
:101EA0005146204601F0EAFF08B10120C4E720684E
:101EB0004169806900903EE032464146204602F08A
:101EC000EBFC48B1206C042804D12068016841F47F
:101ED000007101600120AFE7606A21680078086145
:101EE000656A6D1C6562608D401E6085208D401E98
:101EF00080B2208522685169C94349070BD450B18B
:101F000028781061606A401C6062608D401E6085A8
:101F1000208D401E208532464146204602F0B8FB07
:101F200048B1206C042804D12068016841F4007194
:101F30000160012080E7208D0028BDD11F3454F8B6
:101F40001F0C016841F4007101602020A077E77741
:101F50006777002070E70000020010000000FFFF1C
:101F60007047704710B586B000210291039104912B
:101F700005910068174988422AD1174CA06940F0A2
:101F80000800A061A06900F008000190C020029044
:101F9000122003900320059002A91048FFF776FB5A
:101FA000E06940F40010E061E06900F40010019085
:101FB000002211461F2000F07DF81F2000F06CF871
:101FC00000221146202000F075F8202000F064F86F
:101FD00006B010BD0054004000100240000C01404B
:101FE00070477047024881680278114481607047E9
:101FF0008000002010B50748016841F01001016021
:10200000032000F077F80F2000F006F800F026F823
:10201000002010BD0020024070B504460D4D4FF465
:102020007A712878B1FBF0F00B490968B1FBF0F048
:1020300001F011F908B1012070BD102C07D2002267
:102040002146501E00F036F86C60002070BD012063
:1020500070BD0000800000208C00002008B50C48F6
:10206000816941F001018161816901F00101009103
:10207000C16941F08051C161C06900F08050009099
:102080000449486820F0E06040F00070486008BDF6
:102090000010024000000140002809DB00F01F0290
:1020A000012191404009800000F1E020C0F80011BA
:1020B00070470000F0B40D460D4B1B68C3F30223BC
:1020C000C3F10704042C00D90424191D072901D2E7
:1020D000002300E0DB1E012606FA04F1491E294018
:1020E00099409E40761E16403143F0BC03F0A1BFDC
:1020F0000CED00E000F00701054A10684FF6FF0301
:10210000184040EA0120034908431060704700006E
:102110000CED00E00000FA0501490120086270475B
:1021200000000E4210B501460020244C012922D0A7
:10213000022939D010291DD161682268D20119D530
:102140001F48C1F38342805CC9030AD561681C4AF9
:10215000C1F34041921E515C1A4AB2FBF1F148436F
:1021600001E0194948436168490203D44000032152
:10217000B0FBF1F010BD226AC2F30121012903D1A5
:10218000920701D5C80310BD022905D1626A9207E2
:1021900002D549F6404010BD0329FCD121688903CE
:1021A000F9D54FF2244010BD00F056F96168C1F333
:1021B0008131491C4900B0FBF1F010BD0010024014
:1021C000BC75000800127A0000093D002DE9F843B3
:1021D0000446DFF8F8802078C0075FD00027D8F8E1
:1021E0001C00C0000BD4D8F81C0040F08050C8F888
:1021F0001C00D8F81C0000F0805000900127344DDE
:102200002868C00512D4286840F480702860FFF761
:102210003DFB064607E0FFF739FB801B642802D927
:102220000320BDE8F8832868C005F4D5D8F820005D
:1022300000F4407010B3A18801F4407181421DD0B8
:10224000D8F8200020F44070224901220A600022C0
:102250000A60C8F82000C00710D0FFF717FB05463A
:1022600041F2883606E0FFF711FB401BB04201D96E
:102270000320D6E7D8F820008007F4D5D8F820004E
:10228000616820F440700843C8F82000012F05D190
:10229000D8F81C0020F08050C8F81C002078800777
:1022A00007D5D8F80400A16820F440400843C8F8D6
:1022B00004002078C00607D5D8F80400E16820F4AF
:1022C00080000843C8F804000020AAE7001002407C
:1022D00000700040400442422DE9F04704460D469C
:1022E000002C17D0DFF83081D8F8000000F007008C
:1022F000A84211D2D8F8000020F007002843C8F8FF
:102300000000D8F8000000F00700A84204D0012027
:10231000BDE8F0870120FBE72068404E810712D519
:10232000400703D5706840F4E060706020780007D3
:1023300003D5706840F4605070607068A16820F048
:10234000F000084370602078C0072CD06068012836
:1023500006D0022809D0316889070BD40120D7E7BD
:102360003168890306D40120D2E73168890101D49C
:102370000120CDE7716821F0030101437160FFF78F
:1023800085FA074641F2883906E0FFF77FFAC01B5D
:10239000484501D90320BBE77068616800F00C0074
:1023A000B0EB810FF1D1D8F8000000F00700A8428F
:1023B0000ED9D8F8000020F007002843C8F8000024
:1023C000D8F8000000F00700A84201D001209FE7E4
:1023D0002078400705D57068E16820F4E060084384
:1023E00070602078000706D57068216920F460507D
:1023F00040EAC100706000F03FF87168084AC1F31C
:102400000311515CC8400749086007480068FFF79E
:1024100003FE00207CE70000002002400010024084
:10242000CC7500088C000020840000200148006862
:10243000704700008C00002000B5FFF7F7FF04494B
:102440004968044AC1F30221515CC84000BD000044
:1024500000100240DC75000800B5FFF7E7FF0449F3
:102460004968044AC1F3C221515CC84000BD000064
:1024700000100240DC7500080E4B59680E4801F050
:102480000C02042A11D0082A0FD10C48C1F3834250
:10249000805CC9030AD55968084AC1F34041921EBD
:1024A000515C054A5043B0FBF1F070470449484382
:1024B000704700000010024000127A00AA75000860
:1024C00000093D002DE9F84F0446002C0ED020787D
:1024D000D94DC0075ED06868C0F3810001280BD0D9
:1024E0006868C0F38100022803D00CE00120BDE839
:1024F000F88F6868C00306D5286880034AD56068ED
:10250000A8BB0120F3E76068B0F5803F11D0A8B107
:10251000B0F5A02F1BD0286820F4803028602868F0
:1025200020F480202860606830B3FFF7AFF90646DA
:102530001EE0286840F480302860F4E7286820F422
:1025400080302860286820F480202860EBE7286825
:1025500040F480202860286840F480302860E2E75A
:10256000FFF794F9801B642802D90320BFE711E02C
:1025700028688003F4D50DE0FFF788F9064606E0E9
:10258000FFF784F9801B642801D90320AFE728688E
:102590008003F5D42078DFF8A48280074FF0010A89
:1025A0004FF0000945D5686810F00C0F07D0686837
:1025B000C0F38100022812D16868C0030FD42868D4
:1025C000800704D52069012801D001208FE7286801
:1025D000616920F0F80040EAC100286029E0206924
:1025E000B8B1C8F800A0FFF751F9064606E0FFF7BA
:1025F0004DF9801B022801D9032078E7286880075D
:10260000F5D52868616920F0F80040EAC10028602B
:102610000FE0C8F80090FFF739F9064606E0FFF72B
:1026200035F9801B022801D9032060E7286880075C
:10263000F5D42078000726D58148A16999B1C0F862
:1026400000A0FFF723F9064606E0FFF71FF9801BFD
:10265000022801D903204AE7686A8007F5D50120DE
:1026600002F0BAFB0FE0C0F80090FFF70FF9064642
:1026700006E0FFF70BF9801B022801D9032036E79B
:10268000686A8007F5D42078400773D50026E8698A
:10269000C00008D4E86940F08050E861E86900F0C3
:1026A000805000900126DFF89CB1DBF80000C005E7
:1026B00014D4DBF8000040F48070CBF80000FFF782
:1026C000E5F8074606E0FFF7E1F8C01B642801D9EA
:1026D00003200CE7DBF80000C005F4D5E068012812
:1026E00012D0B0B105281DD0286A20F00100286260
:1026F000286A20F004002862E06841F2883B28B391
:10270000FFF7C4F807461DE0286A40F00100286280
:10271000F2E7286A20F001002862286A20F004000D
:102720002862E9E7286A40F004002862286A40F03D
:1027300001002862E0E7FFF7A9F8C01B584501D95E
:102740000320D4E6286A8007F5D50DE0FFF79EF850
:10275000074606E0FFF79AF8C01B584501D9032049
:10276000C5E6286A8007F5D4012E03D1E86920F078
:102770008050E861E069A0B36968C1F38101022972
:1027800046D0022805D0C8F86090FFF77FF80446CD
:102790003AE0C8F86090FFF779F8064606E0FFF7E0
:1027A00075F8801B022801D90320A0E62868800163
:1027B000F5D4206AB0F5803F05D16868A16820F49F
:1027C000003008436860D4E908010843696821F4CF
:1027D000741108436860C8F860A0FFF757F8044612
:1027E00007E026E0FFF752F8001B022801D903207A
:1027F0007DE628688001F5D51BE0FFF747F8001B50
:10280000022801D9032072E628688001F5D410E07F
:1028100001280CD06868226A00F48031914204D10A
:10282000616A00F47010884203D001205FE6012045
:102830005DE600205BE6000000100240000042421E
:1028400080044242007000407047704710B5044653
:1028500020680168C90719D04168C90716D04068C7
:10286000400709D52046FFF7F0FF21686FF004000C
:1028700048600420607404E02046FFF7E5FF012073
:1028800060742068416821F00101416010BD0000C2
:1028900070B50446002C03D0607C002610B105E022
:1028A000012070BD2674204600F048F802206074B4
:1028B000204600F02DF9042510B16574012070BD8B
:1028C000204602F0A4FA10B16574012070BD2068A2
:1028D000416821F007014160A06820B116480168F5
:1028E00021F0010101601448001F0168A26821F471
:1028F0006071114301606068411C04D10120FFF741
:1029000011FC70B1401E2268C0F303419160216840
:1029100080B2C860204602F094FA28B165740120A4
:1029200070BD6574012070BDE67301206073A073F3
:102930006074002070BD0000306C004008B5006875
:102940000D49884217D1FFF7E7FB0C48C16941F0F8
:102950000061C161C06900F0006000900849012079
:102960000860002211460320FFF7A4FBBDE80840E1
:102970000320FFF791BB08BD002800400010024073
:102980003C0442422DE9F04104460D46002C3FD064
:10299000E5B3207C01283DD0012626740220607416
:1029A000AAB3E87802F02AFAE073687802F026FA0F
:1029B0006073A87802F022FAA073A27B617BE07BAF
:1029C00002F077FA20732870204602F062FA4FF482
:1029D0006161B0FBF1F10025182936D91822B1FB4D
:1029E000F2F1A1EB011101EB4101C1EB011100EB8F
:1029F000C1173946204602F0A6FA4FF0040890B1FC
:102A000084F8118025740120BDE8F08100E003E026
:102A10000120F9E70220F7E7E878E073687860734F
:102A2000A878A073C9E7204602F02CFA411C0CD00C
:102A3000B8420AD207490144204602F06DFA20B19B
:102A400084F8118025740120DEE766742574002067
:102A5000DAE70000805101002DE9F04104460D46FF
:102A6000002C28D03DB3207C012826D001262674D6
:102A7000022060741AB3287802F0C0F94FF4616143
:102A800000FB01F7687802F0B9F9C0EB001007EB22
:102A90008007A87802F0B2F93D182946204602F0D6
:102AA00052FA00274FF00408A8B184F81180277467
:102AB0000120BDE8F0810120FBE70220F9E7297839
:102AC0004FF4616041436878C0EB001001EB800077
:102AD000A9784518E1E72068416821F005014160C7
:102AE000204602F0CFF9411C0CD0A8420AD2074977
:102AF0000144204602F010FA20B184F811802774B6
:102B00000120D6E7667427740020D2E780510100C7
:102B100070B50446002C0AD02068416821F00801F5
:102B20004160FEF7B3FE05464FF47A7608E00120D7
:102B300070BDFEF7ABFE401BB04201D9032070BD53
:102B4000206840680007F4D5002070BD7047000081
:102B500038B50446206842688168C9434B060AD5E7
:102B6000CB0708D1D3435B0605D4216C01B02046C6
:102B7000BDE8304008478B0708D4D3431B0605D473
:102B8000616C01B02046BDE8304008478B0601D596
:102B90004B064AD4D3439B0647D44B060AD494F839
:102BA0005130032B42D0636D43F004036365C36867
:102BB00083680093890609D4616D41F00101616564
:102BC00081680091016821F040010160606D00287A
:102BD0002BD02068416821F0E0014160012084F899
:102BE000510002F0020002F00101084322D02068E7
:102BF000416821F003014160104DE06C40B1456334
:102C0000E06CFEF7E1FC18B1606D40F040006065DB
:102C1000A06C002809D04563A06CFEF7D5FC002805
:102C200003D0606D40F04000606538BDC1688068C9
:102C3000009038BD2046FFF789FF38BD6157000876
:102C400070B50446002C09D0606A002540B12561AA
:102C50006561A56294F8510040B10CE0012070BD9F
:102C60006068B0F5827FF4D0E561F2E784F85050F7
:102C7000204600F03FF8022084F8510020680168E7
:102C800021F040010160A088218900F4827001F4E4
:102C900004410843A18901F400610843217C01F04B
:102CA00002010843217D01F001010843218B01F459
:102CB00000710843217F01F03801084394F8201087
:102CC00001F080010843218D01F40051084321687F
:102CD0000860A069042101EA10402168486020686A
:102CE000C16921F40061C1616565012084F851006A
:102CF000002070BD30B585B0002401940294039487
:102D000004940068184988422BD11848816941F41D
:102D100080518161816901F480510091816941F0A4
:102D200004018161806900F004000090A0200190FE
:102D300002200290032004900D4D01A92846FEF7C1
:102D4000A5FC402101910294039401A92846FEF7B5
:102D50009DFC002211462320FFF7ACF92320FFF74A
:102D60009BF905B030BD000000300140001002406A
:102D7000000801402DE9F84F04468A4691461D4659
:102D8000002694F85100012801D0022699E06068DD
:102D90004FF0040BB0F5827F01D1A06820B394F806
:102DA000500001282BD04FF0010884F85080FEF726
:102DB0006DFD0746BAF1000F23D0B9F1000F20D006
:102DC00084F851B000206065C4F838A0A4F83C90A5
:102DD000A4F83E902063A086E08620646064A0682A
:102DE000B0F5004F0FD018E084F851B04B46524672
:102DF00051462046009500F033F9BDE8F88F0220D7
:102E0000FBE701265DE02068016821F040010160D8
:102E10002068016821F4804101602068016849064A
:102E200003D4016841F040010160E068B0B133E0D3
:102E300020688168C90709D0007BA16B0870A06B6E
:102E4000401CA063E08F401EE08707E0FEF71EFDF8
:102E5000C01BA84201D3681C04D11DB1E08F00281B
:102E6000E6D11CE0032684F851802AE020688168BE
:102E7000C90709D0C068A16B0880A06B801CA06343
:102E8000E08F401EE08707E0FEF700FDC01BA84270
:102E900001D3681C0FD175B1E08F0028E6D13A4606
:102EA0002946204602F064FC08B120206065606D70
:102EB00028B1012605E0032684F8518001E084F85A
:102EC0005180002084F85000304696E72DE9F84FF5
:102ED00004468B4692461D46002694F85000012871
:102EE0000DD04FF0010884F85080FEF7CFFC074664
:102EF00094F85100B146012804D00226ACE002202B
:102F0000BDE8F88FBBF1000F1CD05FEA0A0019D0B2
:102F1000032084F85100C4F85490C4F830B0A4F8E9
:102F200034A0A4F836A0C4F83890A4F83C90A4F8D3
:102F30003E90C4F84490C4F84090A068B0F5004FAB
:102F400002D00BE0012687E02068016821F04001F3
:102F500001602068016841F48041016020680168D7
:102F6000490603D4016841F040010160E068B0F512
:102F7000006F05D0606888B3BAF1010F2FD04FE021
:102F8000606810B1BAF1010F20D1206B2168008870
:102F9000C860206B801C2063E08E401EE08615E038
:102FA00020688168890709D5216B0988C160206B79
:102FB000801C2063E08E401EE08607E0FEF766FC82
:102FC000C01BA84201D3681C04D11DB1E08E0028AB
:102FD000E6D128E0032684F851803DE0FFE7206B2E
:102FE000216800780873206B401C2063E08E401E2F
:102FF000E08615E020688168890709D5216B09788A
:103000000173206B401C2063E08E401EE08607E0C9
:10301000FEF73CFCC01BA84201D3681C0ED16DB169
:10302000E08E0028E6D13A462946204602F0D8FB39
:1030300008B120206065A06820B107E0032684F86D
:10304000518009E02068C16880680090606D08B117
:10305000012601E084F8518084F8509030464FE713
:103060002DE9FF4F81B004460E9E8B469846012500
:10307000002794F8500001280ED0AA4684F850A0EA
:10308000FEF704FC814694F85100616801280DD0D8
:10309000B1F5827F08D103E0022005B0BDE8F08FD2
:1030A000A16809B9042801D00227CFE0BBF1000FC5
:1030B0002DD0039858B35FEA080028D094F8510047
:1030C000042802D0052084F851000020606503998F
:1030D000A163A4F83E80A4F83C80C4F830B0A4F802
:1030E0003680A4F834802064606420680168490652
:1030F00003D4016841F040010160E068B0F5006F61
:1031000007D06068F0B3B8F1010F49D07EE0012725
:103110009CE0606810B1B8F1010F3AD1206B2168D2
:103120000088C860206B801C2063E08E401EE08613
:103130002FE02068816889070DD5E18E59B1012DF6
:1031400009D1216B0988C160206B801C2063E08E4F
:10315000401EE086002520688168C9070BD0E18FFA
:1031600049B1C068A16B0880A06B801CA063E08F90
:10317000401EE0870125FEF789FBA0EB0900B04265
:1031800007D300E00CE0701C03D0032784F851A0A3
:103190005CE0E08E0028CCD1E08F0028C9D13BE074
:1031A000206B216800780873206B401C2063E08E40
:1031B000401EE0862AE02068816889070DD5E18EEF
:1031C00059B1012D09D1216B09780173206B401C85
:1031D0002063E08E401EE086002520688168C907D4
:1031E0000BD0E18F49B1C068A16B0870A06B401C87
:1031F000A063E08F401EE0870125FEF747FBA0EBB0
:103200000900B04201D3701C10D17EB1E08E0028BD
:10321000D1D1E08F0028CED14A463146204602F077
:10322000DFFA38B10127202060650FE0032784F81A
:1032300051A00BE0A06818B92068C16880680090B0
:10324000606D08B1012701E084F851A0002084F8E6
:103250005000384621E710B5401EB0F1807F01D301
:10326000012010BD4FF0E02460610F21601702F0D3
:10327000E0FE0020A06107202061002010BD704703
:103280007047000070B590F83C20012A25D0012637
:1032900080F83C60022280F83D2002685468936800
:1032A00024F070050C682C4354600D4C0268A24257
:1032B00008D0B2F1804F05D00A4CA24202D00A4C8D
:1032C000A24204D123F080034968194391603C3045
:1032D000467000210170002070BD022070BD00000A
:1032E000002C0140000400400008004010B50446D6
:1032F000002C03D094F83D0010B107E0012010BD70
:10330000002084F83C00204600F016F8022084F8E3
:103310003D00211D206802F097FC01203D346072C1
:103320006070A070E07020716071A071E071207217
:103330002070002010BD000008B500680B498842CD
:1033400012D10B48C16941F00401C161C06900F0AC
:1033500004000090002211461E20FEF7ABFEBDE8DF
:1033600008401E20FEF798BE08BD0000000800407F
:103370000010024070B50446002594F83C00012876
:1033800017D0012684F83C60022084F83D002068B4
:10339000826822F0770222F47F4282600868502817
:1033A00038D00DDC202853D005DC90B3102811D183
:1033B0004EE0022070BD30284AD040280AD13DE0BE
:1033C000602831D070280CD0B0F5805F03D0B0F504
:1033D000005F12D001253C34667000202070284622
:1033E00070BDCB68D1E90121206802F063FC206840
:1033F000816841F077018160EDE7CB68D1E9012177
:10340000206802F057FC2068816841F480418160A7
:10341000E1E71DE0CA684968206802F05DFC5021C0
:10342000206802F051FCD6E7CA684968206802F0BB
:1034300064FC6021206802F047FCCCE7CA68496858
:10344000206802F049FC4021206802F03DFCC2E700
:1034500022680146104602F037FCBCE7704770B5A1
:103460000446206801694FF00005C943890716D456
:10347000C168C943890712D4E91E01610120207780
:1034800020688069800703D02046FFF7E7FF05E04A
:10349000204600F09BF8204600F099F82577206838
:1034A0000169C943490718D4C168C943490714D4FD
:1034B0006FF004010161022020772068806910F418
:1034C000407F03D02046FFF7C9FF05E0204600F00B
:1034D0007DF8204600F07BF8257720680169C94314
:1034E000090717D4C168C943090713D46FF008014D
:1034F0000161042020772068C069800703D020463E
:10350000FFF7ACFF05E0204600F060F8204600F031
:103510005EF8257720680169C943C90618D4C168D7
:10352000C943C90614D46FF0100101610820207747
:103530002068C06910F4407F03D02046FFF78EFF5B
:1035400005E0204600F042F8204600F040F82577DC
:1035500020680169C943C90708D1C168C943C907BF
:1035600004D1891E0161204600F032F8206801690B
:10357000C943090609D4C168C943090605D46FF0D7
:10358000800101612046FFF77AFE20680169C94386
:10359000490609D4C168C943490605D46FF0400102
:1035A0000161204600F015F820680169C9438906C9
:1035B0000BD4C168C943890607D46FF020010161AB
:1035C0002046BDE87040FFF75BBE70BD7047704796
:1035D0007047704770477047F8B504462268106816
:1035E000D168536900F00F06002E08D1850606D574
:1035F0008D0604D52046BDE8F84002F0CCBB00257E
:10360000002E66D003F0010601F49077374360D0B6
:10361000C20705D0CA0503D5626C42F0010262649C
:10362000420705D5DA0703D0626C42F002026264F9
:10363000820705D5DA0703D0626C42F004026264A7
:10364000020707D501F02002324303D0626C42F03A
:1036500008026264626C002A31D0800604D58806B4
:1036600002D5204602F097FB20684069C0F3801025
:10367000616C090700D438B3204602F058FB20687B
:10368000406940061CD52068143050E8001F21F026
:10369000400140E80012002AF5D1E06B60B15949C1
:1036A0004163E06BFDF790FF002808D0E06B416BB1
:1036B00001B0BDE8F04008472046FFF78CFFF8BD99
:1036C0002046FFF788FFF8BD2046FFF784FF6564BA
:1036D000F8BD236B012B7DD1C3067BD5CB067ED5F0
:1036E00010685068009050694FF0200340064FF07A
:1036F000020643D5E16B0868406880B20028E7D035
:10370000A28D8242E4D9E085886920282DD02068E6
:103710000C3050E8001F21F4807140E80012002AAC
:10372000F5D12068143050E8001F21F0010140E875
:103730000012002AF5D12068143050E8001F21F053
:10374000400140E80012002AF5D184F84230256398
:1037500020680C3050E8001F21F0100140E80012F2
:10376000002AF5D1E06BFDF70BFF6663A08DE18DBC
:10377000401A81B22046FFF72DFFF8BDA08DE18DE4
:10378000401A81B2E08D0028F7D00029F5D02068DA
:103790000C3050E8002F22F4907240E80027002FF0
:1037A000F5D12068143050E8002F22F0010240E8E3
:1037B0000027002FF5D184F84230256320680C30B3
:1037C00050E8002F22F0100240E80023002BF5D132
:1037D000666300E003E02046FFF7FCFEF8BD02064A
:1037E00006D50A0604D52046BDE8F84002F0B0BB75
:1037F0004006F3D54806F1D52046BDE8F84002F072
:10380000BDBA00001F5D000870B50446002C04D04E
:1038100094F84100002510B106E0012070BD84F845
:103820004050204600F024F8242084F8410020680D
:10383000C16821F40051C160204602F011FB2068EC
:10384000016921F4904101612068416921F02A0158
:1038500041612068C16841F40051C1606564202065
:1038600084F8410084F842006563002070BD0000C8
:1038700030B585B000240194029403940494006848
:10388000184988422CD11848816941F480418161EE
:10389000816901F480410091816941F004018161F5
:1038A000806900F0040000904FF400700190022045
:1038B0000290032004900D4D01A92846FDF7E6FE75
:1038C000291501910294039401A92846FDF7DEFE13
:1038D000002211462520FEF7EDFB2520FEF7DCFB3C
:1038E00005B030BD00380140001002400008014022
:1038F00090F84230202B01D00220704721B11AB13C
:103900000023036302F008BB0120704703494968A4
:10391000884202D1024801F0C5BC70472000002057
:10392000801500202DE9F84304460E4615461F4633
:1039300094F84100202802D00220BDE8F8837EB12F
:1039400075B100206064212084F84100FDF79EFFDE
:103950008046A584E584A068B0F5805F02D003E0CE
:103960000120EAE7206910B13546002613E0002562
:1039700011E04346002280212046009702F017FB09
:1039800008B10320D9E79DB1216815F8010B486003
:10399000E08C401EE084E08C0028EAD143460022FF
:1039A00040212046009702F002FB40B10320C4E70B
:1039B00036F8020B2168C0F308004860E8E72020D1
:1039C00084F841000020B8E790F84130202B01D066
:1039D0000220704779B172B101628284C2840021F1
:1039E0004164212180F841100068C16841F08001E4
:1039F000C1600020704701207047704701A0FDF7AB
:103A0000A5FBFBE7486172644661756C7421212156
:103A1000000000000148FDF741BF0000841F0020A6
:103A20000148FDF79DBF0000841F0020C16AB1F569
:103A30002A0F06D0C16AB1F12A4F01D10821C16213
:103A400070470121C162704738B50022406A90F882
:103A50003D302B4946F2A8140968B1FBF4F1C1EBE3
:103A6000C10101EB81010091009969B30099491EE0
:103A70000091016809688905F6D4416B01B18A6239
:103A8000816B01B18A6201680C6824F480640C6067
:103A90004285416B01B14A63816B01B14A630168A0
:103AA0000C6824F001040C6090F83D10202460297B
:103AB0000FD0282535EA030113D080F83D4080F867
:103AC0003E20FEF71BF838BD016C41F02001016477
:103AD000D3E780F83D4080F83E200264FDF7DCFE2D
:103AE00038BD01680B6843F001030B6001680B6887
:103AF00043F480630B60026380F83D50E1E700000F
:103B00008C00002000684169C943090601D40021E6
:103B10000161704770B5044694F83D0094F83E107A
:103B2000102901D0402906D1222804D121680A6831
:103B300022F400620A60282131EA00024FF00005F9
:103B40004FF0200628D021684968090505D460286F
:103B500003D084F83D6084F83E50256320684168B6
:103B6000090539D5416821F400614160606B90F826
:103B700021203D49012A13D04163606BFDF724FDEC
:103B800048B32068016821F00101016084F83D60BC
:103B9000606B416B884730E0256384F83D10DDE7BA
:103BA000A06B4163A06BFDF70FFDA0B120684169D8
:103BB000C943490605D40069616A0870606A401CFF
:103BC00060622068016821F00101016084F83D60B5
:103BD000A06B416B884710E094F83D10602910D02D
:103BE0004169C943490605D40069616A0870606A81
:103BF000401C60622046FDF781FF206CC1071CD18C
:103C000015E084F83D6025644169C943490605D43F
:103C10000069616A0870606A401C6062206801681F
:103C200021F0010101602046FDF736FEE5E781073E
:103C300003D4410701D4000704D52068416821F46A
:103C4000E061416094F83D00216C49070BD52828BC
:103C500009D10648E062256384F83D6084F83E504F
:103C60002046FEF7D5F870BD493A00080000FFFF76
:103C700001684A69D24352050FD46FF480624A61E9
:103C8000002140F8301F202242738173026942F004
:103C9000040202610173012070470020704710B5D3
:103CA000C26A438D0168042B0FD0438D032B1BD0B8
:103CB000438D022B30D00969426A1170416A491C58
:103CC0004162418D491E418510BD4A6822F48062DF
:103CD0004A6001680969426A1170416A491C41627F
:103CE000418D491E418510BD4B6823F480634B60B4
:103CF000042A06D0022A04D001680A6822F48062ED
:103D00000A6001680969426A1170416A491C41628E
:103D1000418D491E418510BD012A30D0102A2ED078
:103D2000042A31D0022A2FD00A6842F400720A60B5
:103D300001680969426A1170416A491C4162428DF9
:103D4000521E4285026812690A70416A491C41622A
:103D5000418D491E418501684A6822F440724A60DB
:103D6000202180F83D1090F83E200021402A10D0FC
:103D700080F83E1012210163FEF74BF810BD0A686F
:103D800022F480620A60D3E70A6842F480620A6023
:103D9000CEE780F83E100163FEF7E2F810BD10B5E3
:103DA000044694F83D00222814D1608D032812D9CE
:103DB00020680069616A0870606A401C6062608DFA
:103DC000401E6085608D032804D12068416821F47D
:103DD0008061416010BDE16A022902D0012806D04D
:103DE00028B12068416821F48061416010BD2046FF
:103DF00000F034FD00212022B0B12068436823F494
:103E0000E063436020680069636A1870606A401C60
:103E10006062608D401E608584F83D2084F83E100D
:103E20002046FDF76BFE10BD2068036823F4806315
:103E300003602068436823F4E063436020680069FE
:103E4000636A1870606A401C6062608D401E608505
:103E500084F83D2094F83E00402807D084F83E10B6
:103E6000122020632046FDF7D4FF10BD84F83E10D9
:103E700021632046FEF774F810BD0000F8B5044633
:103E80000D4617461E46E06A082808D0012806D0CD
:103E900010F5803F03D0206B122806D00AE020687E
:103EA000016841F48071016004E02068016841F418
:103EB000807101603B4600224FF0011120460096C0
:103EC00000F012FC40B120680068C00502D54FF434
:103ED000007020640320F8BD2069B0F5804F0FD03A
:103EE00005F44070F02141EAD010216808613346A2
:103EF0003A460D49204600F04DFC30B10120F8BD96
:103F0000216805F0FE00086102E02168E8B208615E
:103F1000054933463A46891F204600F03BFC08B16C
:103F20000120F8BD0020F8BD0800010010B5C16AED
:103F300090F83D20212A0BD1428D52B1416A02688E
:103F400009781161416A491C4162418D491E4185D0
:103F500010BD20230022082912D0202910D011F5ED
:103F6000803F0DD001684C6824F4E0644C6011215E
:103F7000016380F83E2080F83D30FDF74BFF10BD17
:103F800001684C6824F4E0644C6001680C6844F4F7
:103F900000740C60026380F83D3090F83E104029B8
:103FA00004D080F83E20FDF735FF10BD80F83E209C
:103FB000FDF7D7FF10BD10B590F83D1090F83E30DA
:103FC000C26A048D002C01D1212916D0212903D0E9
:103FD000402B11D122290FD1418DD9B390F83E1039
:103FE000402943D0416A026809781161416A491C3D
:103FF0004162418D491E418510BD20240023082ABD
:1040000012D0202A10D012F5803F0DD001684A68E6
:1040100022F4E0624A601121016380F83E3080F8AA
:104020003D40FDF7F7FE10BD01684A6822F4E062EA
:104030004A6001680A6842F400720A60036380F80B
:104040003D4090F83E10402905D080F83E30FDF705
:10405000E1FE10BD04E080F83E30FDF782FFF8E796
:104060000068416821F480614160F2E7BDE81040DA
:1040700000F032B9416C0268C9B21161416B00298C
:1040800001D0896A29B9816B002907D0896A002982
:1040900004D00068416841F400614160704700004D
:1040A00078B590F83E40C26A056B90F83D600023F9
:1040B0000168222E03D048698869009078BD066D9A
:1040C0000EB9402C02D0046D24B107E0486988691C
:1040D000009078BD0469B4F5404F1BD0448D24B3E3
:1040E000468D544C012E28D0458D022D69D00D6887
:1040F00045F480650D6001684D682D0509D5A24223
:1041000072D0012A70D0082A6ED0102A6CD0202AD2
:104110006AD089E04A698A6900920A6842F480722A
:104120000A60016D491C016578BD4A698A6900927F
:104130000A6842F400720A607AE0A24218D10A6862
:1041400022F480620A6001684A68120508D50A688C
:1041500022F480620A6001684A698969009167E017
:104160004A698A6900920A6842F400720A605FE054
:10417000082A05D0202A03D0122D0ED1012A0CD0F6
:104180000A6822F480620A6001684A698A690092BA
:104190000A6842F400720A604AE0042A08D0022A3F
:1041A00006D0102A04D00A6822F480620A6003E074
:1041B0000A6842F480620A6001684A69896900916C
:1041C00036E0042A11D0022A0FD0102A0DD00D6833
:1041D00045F400650D6001684D698D6900950D68B5
:1041E00025F480650D6008E01AE00D6845F48065EF
:1041F0000D6001684D698969009101684D682D0560
:1042000016D5A24207D0012A05D0082A03D0102AC9
:1042100001D0202A0CD14A6842F480524A6007E05B
:104220004A6842F480524A6001684A69896900918B
:10423000036578BD0000FFFF90F83E10402911D0C3
:104240000169B1F5804F1CD0016D79B3016D012971
:1042500007D1416C006801F44071F12242EAD111AA
:1042600001617047016D31B1416C0068C9B241F024
:10427000010101617047416C006801F0FE010161BC
:10428000704790F83D1021290AD0416C0268C9B2EC
:1042900041F001011161416B49B1896A69B906E0D8
:1042A000416C026801F0FE011161F4E70BE0816BE3
:1042B0000029E5D0896A0029E2D00068416841F40C
:1042C000006141607047416C006801F44071F02268
:1042D00042EAD1110161704710B590F83D10026DAE
:1042E000002A09D0026D012A1AD0026D022A1FD0BD
:1042F000BDE81040FFF706BCC16C012908D0816CF5
:104300000268C1F307211161016D491C016510BDEF
:10431000816C0268C9B21161016D891C016510BD13
:10432000816C0268C9B21161016D491C016510BD43
:1043300022291CD0428D0AB1212921D0428D002A88
:10434000F5D12129F3D101684A6822F4E0624A607C
:1043500001680A6842F400720A60002101632022A9
:1043600080F83D2080F83E10FDF7FBFD10BD016890
:104370000A6842F480720A60016D491C016510BD33
:10438000416A026809781161416A491C4162418DA4
:10439000491E418510BD418D002909D00168096978
:1043A000426A1170416A491C4162418D491E418532
:1043B000704710B590F83D10428D002A1AD002685F
:1043C0001269436A1A70426A521C4262428D521E3E
:1043D0004285428D002A0DD12A290BD101684A68F5
:1043E00022F480624A6022210163282180F83D1076
:1043F000FDF7F6FD10BD418D002909D0416A026824
:1044000009781161416A491C4162418D491E41850B
:10441000704710B590F83D10428D002A1AD0426ABC
:10442000036812781A61426A521C4262428D521E1F
:104430004285428D002A0DD129290BD101684A6895
:1044400022F480624A6021210163282180F83D1016
:10445000FDF7C7FD10BD38B50C46002190F83D2092
:104460002825954302680B4605D051699169009152
:1044700080F83C3038BD556825F480655560E243CE
:10448000540700D50121120602D5828992B201E0BB
:10449000028B92B280F83C30FDF7FFF938BD000086
:1044A0002DE9F041044694F83D10E26A00252027EA
:1044B0001E4E20686FF48063082A01D0202A01D1A3
:1044C000282904D0212917D04361BDE8F081E66294
:1044D000416821F4E061416020684361206801681F
:1044E00021F480610160256384F83D7084F83E50BA
:1044F0002046FDF78DFCE8E7E6622121216384F880
:104500003D7084F83E50416821F4E06141602068CC
:1045100043612068016821F4806101602046FFF753
:10452000F1FA2046FDF75DFDCFE700000000FFFF38
:10453000F8B5044694F83D502068416821F4E061E4
:1045400041600026206841690091016841F0010145
:1045500001602068016821F4806101602068416881
:10456000090520D5484F222D48D02A2D46D0616B11
:10457000096849686185618D19B1216C41F00401B8
:104580002164416821F400614160606BFDF768F8C7
:10459000012808D0606B4763606BFDF715F810B118
:1045A000606B416B8847608D08B320684169C943DF
:1045B000490708D40069616A0870606A401C60623B
:1045C000608D401E608520684169C943490608D452
:1045D0000069616A0870606A401C6062608D401EFC
:1045E0006085608D18B1206C40F004002064206C60
:1045F00010B32046BDE8F840FFF78CBAA16B0968FC
:1046000049686185618D19B1216C41F00401216413
:10461000416821F400614160A06BFDF721F8012899
:10462000C1D0A06B4763A06BFCF7CEFF0028BAD0C7
:10463000A06B416B8847B6E72A2D06D12663282058
:1046400084F83D002046FDF7CBFC94F83D10202077
:1046500028290DD0216B222901D0222D07D12663D4
:1046600084F83D0084F83E602046FDF7B9FCF8BDB3
:104670000649E162266384F83D0084F83E602046E6
:10468000FDF7C6FBF8BD0000493A00080000FFFF37
:1046900070B504460D4616461FE02046FFF7E8FABF
:1046A00008B1012070BD681C17D0FDF7EFF8801B22
:1046B000A84200D88DB920684069C04340070CD596
:1046C000002044F8300F20216173A073216941F06C
:1046D000200121612073012070BD20684069C04322
:1046E0004007DAD4002070BD2DE9F0470446DDF81C
:1046F00020900D4690461E46C5F307472FE0701CDC
:104700002DD0FDF7C3F8A0EB0900B04200D836BBAE
:10471000012F17D02068806925EA00000004000CF2
:104720001BD0002040451AD1002044F8300F202132
:104730006173A073216941F0200121612073012080
:10474000BDE8F0872068406925EA00000004000CFD
:1047500001D00020E6E70120E4E70120E2E7012F95
:104760000BD02068806925EA00000004000C0FD0FF
:1047700000204045C3D00020E2E72068406925EAD8
:1047800000000004000C01D00020F2E70120F0E757
:104790000120EEE72DE9F04704460D4616469846FF
:1047A0004FF000094FF0200AC5F3074743E02068A7
:1047B0004069C043400517D42068016841F4007186
:1047C000016021686FF480604861C4F8309084F81B
:1047D0003DA084F83E90206C40F00400206484F8F2
:1047E0003C900120BDE8F087701C24D0FDF74EF806
:1047F000A0EB0800B04200D8EEB9012F14D0206819
:10480000806925EA00000004000C14D0C4F8309040
:1048100084F83DA084F83E90206C40F02000206495
:1048200084F83C900120DDE72068406925EA00001B
:104830000004000CEAD1012F08D02068806925EA25
:1048400000000004000CB2D10020CBE720684069D2
:1048500025EA00000004000CF6D0A8E708B50D49D1
:1048600046F2A8120968B1FBF2F101EB8101009157
:104870000099491E0091009929B1016809688905CC
:10488000F6D4002008BD016C41F020010164012034
:1048900008BD00008C00002070B504460D46164689
:1048A0001FE02046FFF7E4F908B1012070BD681C45
:1048B00017D0FCF7EBFF801BA84200D88DB9206809
:1048C0004069C04300060CD5002044F8300F202179
:1048D0006173A073216941F02001216120730120DF
:1048E00070BD20684069C0430006DAD4002070BD66
:1048F00010B586B0002402940394049405940D48E6
:10490000816941F010018161806900F0100001901F
:10491000002000F02DF84FF4005002901120039079
:1049200004940220059002A90348FCF7AFFE06B0EC
:1049300010BD0000001002400010014010B50B49EE
:104940000A78022A05D00870022803D00020487097
:10495000488010BD054CA41E207880F00100207016
:1049600000F006F8C820FCF77FFEF5E70200002003
:1049700080F001024FF400510148FCF77FBF0000B6
:10498000001001402DE9F04F85B0002401940294FD
:10499000039404943848816941F010018161816970
:1049A00001F010010091816941F02001816181696C
:1049B00001F020010091816941F004018161816968
:1049C00001F004010091816941F008018161806971
:1049D00000F008000090DFF8A4904FF4005500228A
:1049E00029464846FCF74AFFDFF894A0002248F227
:1049F00019015046FCF742FF0122DFF888B0170288
:104A000039465846FCF73AFF4FF408480022414621
:104A10005846FCF733FF01950125029503940226C1
:104A2000049601A94846FCF731FE19200190029531
:104A30000394049601A95046FCF728FEE803019070
:104A400002950394049501A95046FCF71FFE0197B7
:104A500002950395049601A95846FCF717FECDF878
:104A6000048002950394049601A95846FCF70EFEB3
:104A700005B0BDE8F08F00000010024000100140BA
:104A8000000C01400008014010B50D480B490160C1
:104A90000C49416000218160C1604FF48042026195
:104AA00041618161C1610162FDF72AF8002803D0EC
:104AB000BDE81040FCF798BC10BD00000054004059
:104AC000841F0020801A06001CB500240194009465
:104AD000174816490160611E41604FF48071816082
:104AE000FDF7D6FE08B1FCF77FFC8DF804408DF889
:104AF00005408DF80640012201A90D48FDF7ACFFE5
:104B000008B1FCF771FC01208DF800008DF8010060
:104B10008DF802008DF80340012269460448FDF734
:104B200031FF002801D0FCF75FFC1CBD00280040CD
:104B3000D81F002010B510480E4901604FF4827153
:104B4000416000218160C160016141614FF40072E8
:104B500082612822C2610162416281620A21C162CE
:104B6000FEF76EF8002803D0BDE81040FCF73CBC0F
:104B700010BD000000300140EC1F002010B586B0D1
:104B8000002402940394049405940094019414481E
:104B9000124901604460846044F24F61C1604FF487
:104BA000007101618461FEF7A1FB08B1FCF71CFCF8
:104BB0004FF48050029002A90948FEF7DBFB08B1D0
:104BC000FCF712FC0094019469460548FEF75AFB75
:104BD000002801D0FCF708FC06B010BD000800401A
:104BE0004420002010B50C480A4901604FF41651CA
:104BF000416000218160C16001610C2242618161DC
:104C0000C161FEF701FE002803D0BDE81040FCF7AB
:104C1000EBBB10BD003801408C200020FEE7FEE712
:104C200010B5ACB00C4601F07BFD00283CD020460E
:104C300001F0FCFA002837D02046FBF765FD4B2138
:104C400001EB4000C4B21A208DF8AC0000208DF8B2
:104C5000AD00A822164901A8FBF711FE154901A8CD
:104C6000FBF7BCFD14A101A8FBF7B8FD4D2C1DD02E
:104C700013A101A8FBF7B2FD124901A8FBF7AEFD95
:104C80000C4901A80D31FBF7A9FD0FA101A8FBF705
:104C9000A5FD2BA901A8FBF7A1FD214601A801F064
:104CA00035FC01202CB010BD0020FBE70DA1E0E792
:104CB000F8710008441F0020303030383400000004
:104CC00032000000E47500083030323030343437C0
:104CD00030343330303434313034333030303041AC
:104CE000000000003000000000B5B1B001F018FD78
:104CF000E8B11A208DF8C00000208DF8C100BC2258
:104D00000C4901A8FBF7BBFD0B4901A8FBF766FDA9
:104D10000A4901A8FBF762FD30A901A8FBF75EFD77
:104D20005B2101A801F0F2FB012031B000BD0020A1
:104D3000FBE700003C710008441F00204C7600088F
:104D400010B5B6B00446204601F0EAFC50B3204648
:104D500001F06CFA30B31A208DF8D40000208DF8E1
:104D6000D500D022104901A8FBF789FD0F4901A801
:104D7000FBF734FD0EA101A8FBF730FD0B4901A89C
:104D80000D31FBF72BFD124901A8FBF727FD35A9D3
:104D900001A8FBF723FD652101A801F0B7FB012065
:104DA00036B010BD0020FBE76C700008441F0020E7
:104DB00030303038353830343144303433453034A5
:104DC0003343303433353034343030303230000017
:104DD000F07600087047000008B507494FF4FA5212
:104DE0000968B1FBF2F14143009100BF0098411EF8
:104DF0000091FAD208BD00008C000020010901EBEF
:104E00008101490000F00F000844C0B2704770B53E
:104E10000546FCF73BFD04464FF47A7606E0FCF7C6
:104E200035FD001BB04201D9032070BD28684068E1
:104E30008006F4D52868416841F0100141600020E7
:104E400070BD70B505462868416821F010014160C9
:104E5000FCF71CFD04464FF47A7606E0FCF716FDDD
:104E6000001BB04201D9032070BD2868406880064D
:104E7000F4D5002070BD00000148FDF7E7BC00003C
:104E8000D81F00200068016A406A80B240EA0140F1
:104E900070470068816989B2C26993B2826992B22F
:104EA000914203D0C06962F31F40704743EA01405A
:104EB0007047F0B500F5FA606427C1EBC10309251E
:104EC000BE00072403EB0113032912D2B3FBF5F153
:104ED00011440144401EB0FBF7F201EB9001B0FB1E
:104EE000F6F0891A0844001DB0FBF4F104FB110030
:104EF00010E0B3FBF5F11144B0FBF7F2014401EB14
:104F00009001B0FBF6F0891A0844801CB0FBF4F164
:104F100004FB1100C0B2F0BD70B505460E4600247A
:104F20002846FFF774FF08B101240AE02968300C15
:104F300008622968B0B248622846FFF782FF00B1D4
:104F40000124204670BD70B505460E460024284653
:104F5000FFF75DFF08B101240AE02968300C886181
:104F60002968B0B2C8612846FFF76BFF00B1012481
:104F7000204670BD70B52FA0FCF7E8F800244FF470
:104F80007A752B46042230A13148FEF7CBFCC820AD
:104F9000FCF76AFB641CE4B2052CF2D32C462346D2
:104FA0000E222CA12A48FEF7BDFC2046FCF75CFB34
:104FB00023460B222BA12648FEF7B4FC2046FCF723
:104FC00053FB01212A4800F02BF908B1FCF70CFA39
:104FD00028A0FCF7BBF800F00FF92CA0FCF7B6F8FE
:104FE000234800F06DF808B1FCF7FEF92CA0FCF79F
:104FF000ADF81F4800F010FB08B1FCF7F5F91C48AC
:1050000000F050FB08B1FCF7EFF9194800F0BAFACC
:1050100008B1FCF7E9F925A0FCF798F8012114483C
:1050200000F01EF9002803D0BDE87040FCF7DCB9A1
:1050300070BD0000446973706C617920696E697499
:1050400069616C697A65640041540D0A00000000D2
:105050008C20002041545A2B4950523D3936303073
:105060000D0A000041542B4346554E3D310D0A00B8
:105070008015002053494D3830305F4D616E6167B7
:1050800065526563656976696E67000053494D38FE
:1050900030302072656720696E206E6574000000F4
:1050A00044656C20416C6C20534D53005365742053
:1050B000534D532074657874206D6F646500000053
:1050C0007FB505461DA090E80E00C0688DE80E0073
:1050D000039000221DA1284601F00CF80446684602
:1050E00001F0C4FA012816D022460421284601F016
:1050F00051FB022815D0C4EB441005EB80007C3036
:1051000001F03CFB012812D02146284601F0D2F9DB
:10511000002004B070BD2146284601F0CBF90120E3
:10512000F7E72146284601F0C5F90220F1E72146BC
:10513000284601F0BFF90120EBE7000041542B4362
:105140004D47443D312C340D0A0000002B434D47A0
:1051500044000000FEB5064622A0D0E90012806897
:10516000CDE900120290002221A1304600F0C2FFDA
:105170000446684601F07AFA012820D0224604212C
:10518000304601F007FB02281FD0C4EB441006EBA9
:1051900080007C30054601F0F1FA01281BD028463A
:1051A0002C21FBF733FA401C0A220021FBF7B6F949
:1051B000C5B22146304601F07DF92846FEBD2146A4
:1051C000304601F077F90620FEBD2146304601F059
:1051D00071F90620FEBD2146304601F06BF906202C
:1051E000FEBD000041542B435245473F0D0A0000CD
:1051F0002B4352454700000010B54FF4FA7402E00B
:105200002046FCF731FA0548FFF7A4FF012804D037
:105210000248FFF79FFF0528F2D110BD801500203E
:1052200010B50446002994F84C0500D018B10128A7
:105230000FD0002010BD012204F168010748FEF7DD
:1052400057FB08B1012010BD012084F84C05002057
:1052500010BD002084F84C0510BD00008C200020FB
:1052600070B50C4C4FF6FF750129A26807D0AA4211
:1052700003D0D1B201F01EF9A560002070BDAA4292
:1052800006D1054A05A100F035FFA060002070BDE1
:10529000012070BD20000020FD6100082B434D540B
:1052A000490000002DE9F05F04464FF0000B012794
:1052B00094F86810606E04F168090A290CD064281B
:1052C00003D22154606E401C60664946BDE8F05F21
:1052D00001227548FEF70CBB2154606E401C6066CD
:1052E0004FF0000804F80080022270A12046FBF76E
:1052F0002AFAD8B102226EA12046FBF724FAA8B1FF
:1053000005226DA12046FBF71EFADFF8B4A1C8B351
:105310009AF80200002867D0204600F0A1FE90B362
:105320009AF80100401C8AF801005AE0D4F84805B8
:10533000C0EB401004EB80007C30FBF7E5F9D4F8BB
:105340004815C0F16402C1EB411104EB810108442E
:105350007C302146FBF716FBD4F848050421C0EB4E
:10536000401004EB800080F8E010D4F84815C1EB41
:10537000411004EB8000D0F8E420002A01D0204640
:10538000904781E000E020E04EA12046FBF75AF96B
:1053900048B300F1090BFBF793FF0646002505EB28
:1053A000850000EBC50030440C225946FBF7CBF9D1
:1053B00020B16D1CEDB2052DF1D33EE0584600F052
:1053C00081FE01208AF8020037E09AF8010000EB24
:1053D000400101EB00103D4901EB40000D21FBF7BE
:1053E00088FA8AF8028028E00026C6EB461004EB13
:1053F000800595F8E00001281CD105F16C012046DC
:10540000AA6FFBF7A0F978B905F17C002146FBF7FC
:1054100057F9C4F84865022005F8E00F00276A68CC
:1054200012B13146204690470BF1010BD4F84405E8
:10543000584502D9761C0A2ED7D32FB3D4F8480585
:10544000C0EB401004EB800090F8E01002291BD163
:105450007C3002221EA1FBF776F9A8B1D4F84805EA
:10546000C0EB401004EB80007C30FBF74DF9D4F822
:105470004815C0F16402C1EB411104EB81010844FD
:105480007C302146FBF77EFAC4F8648094F84C0522
:10549000012806D14946BDE8F05F01220248FEF727
:1054A00027BABDE8F09F00008C2000204F4B000081
:1054B0004552524F520000002B434D474C00000014
:1054C00020000020554E524541440000D01A0020D3
:1054D0000D0A000000F01EB8014800787047000077
:1054E0002000002010B528220348FBF783F9034968
:1054F0000120087010BD000090140020180000204A
:1055000010B500F0D7FF02490020087010BD000060
:105510002000002070B58AB005460C46124A13A13F
:10552000284600F0E7FD064612A104A8FBF7C8F8DC
:105530000A2201A9204600F007FF01A904A8FBF7F1
:105540004DF90FA104A8FBF749F904A801F08EF862
:10555000012802D000200AB070BD3146284600F074
:10556000A9FF0120F7E70000596100082B434D47D0
:105570005200000041542B434D47523D00000000B3
:105580000D0A00007FB505461DA090E80E00C0681A
:105590008DE80E00039000221DA1284600F0AAFD10
:1055A0000446684601F062F8012816D0224604211C
:1055B000284601F0EFF8022815D0C4EB441005EBA3
:1055C00080007C3001F0DAF8012812D0214628460C
:1055D00000F070FF002004B070BD2146284600F0A6
:1055E00069FF0120F7E72146284600F063FF02200B
:1055F000F1E72146284600F05DFF0120EBE70000BF
:1056000041542B434E4D493D322C310D0A000000D0
:105610002B434E4D490000003EB505461CA0D0E985
:1056200000128068CDE90012029000221BA12846DA
:1056300000F060FD0446684601F018F8012815D016
:1056400022460421284601F0A5F8022814D0C4EB14
:10565000441005EB80007C3001F090F8012811D057
:105660002146284600F026FF00203EBD2146284660
:1056700000F020FF01203EBD2146284600F01AFF21
:1056800002203EBD2146284600F014FF01203EBD09
:1056900041542B434D47463D310D0A002B434D47A6
:1056A0004600000030B587B005461C221BA16846A5
:1056B000FBF7E5F8002220A1284600F01BFD044678
:1056C000684600F0D3FF012816D022460421284660
:1056D00001F060F8022815D0C4EB441005EB8000FF
:1056E0007C3001F04BF8012812D02146284600F00A
:1056F000E1FE002007B030BD2146284600F0DAFE6A
:105700000120F7E72146284600F0D4FE0220F1E709
:105710002146284600F0CEFE0120EBE741542B4302
:10572000504D533D22534D222C22534D222C2253B7
:105730004D220D0A000000002B43504D5300000085
:10574000014A02A100F0D6BCF16100082B434D478D
:10575000530000000148FDF7FBB90000EC1F0020DA
:1057600010B5406A0021C187C186FDF7EFF910BD71
:10577000F8B504464FF4827560684FF48063A84220
:105780000AD1A068B0F5004F01D0984204D120683A
:10579000066826F0400606606068A84210D1A0683E
:1057A00098420DD10B46009200220121204600F0C4
:1057B00029F898B1606D40F0200060650320F8BDC5
:1057C0000B46009200228021204600F01BF828B1F1
:1057D000606D40F0200060650320F8BD0020F8BD3A
:1057E00038B504460B46009200228021204600F086
:1057F00009F828B1606D40F020006065032038BDD5
:10580000002038BD2DE9F84304460F4691461E4658
:10581000089DFCF73BF8401B351AFCF737F880462B
:1058200026480068C0F3CB30684300903AE0701C13
:1058300038D0FCF72BF8A0EB0800A84203D215B132
:10584000009858B32BE02068416821F0E0014160E6
:105850006068B0F5827F0BD1A068B0F5004F02D030
:10586000B0F5806F04D12068016821F0400101602B
:10587000A06AB0F5005F09D12068016821F40051E9
:1058800001602068016841F400510160012050343A
:105890006070002020700320BDE8F8830025009888
:1058A000401E00902068806837EA000004D0002085
:1058B0004845BCD10020EFE70120F9E78C0000202B
:1058C00010B5002000F026F8BDE8104000F050B9F7
:1058D00030B5802813D2402911D20C4B1B790BB163
:1058E00072B10022012301F00704A340C908084D4A
:1058F00000EBC110012A05D0295C9943295430BD21
:105900000122EFE7295C1943295430BD1000002023
:1059100090100020002805D0FF224FF4806102483B
:10592000FAF7DFBF0022F8E790100020014A10804C
:10593000518070471000002010B500F0BDFE44F605
:105940002063012278215448FCF7A6F908B1002011
:1059500010BD40F6C410401E0028FCD1AE2200212C
:10596000782000F0B1FE20220021782000F0ACFE6B
:1059700010220021782000F0A7FEB022002178201C
:1059800000F0A2FEC8220021782000F09DFE002237
:105990001146782000F098FE10220021782000F0B7
:1059A00093FE40220021782000F08EFE812200210B
:1059B000782000F089FEFF220021782000F084FE8C
:1059C000A1220021782000F07FFEA622002178206D
:1059D00000F07AFEA8220021782000F075FE3F2218
:1059E0000021782000F070FEA4220021782000F031
:1059F0006BFED3220021782000F066FE00221146C3
:105A0000782000F061FED5220021782000F05CFEB5
:105A1000F0220021782000F057FED92200217820C2
:105A200000F052FE22220021782000F04DFEDA2202
:105A30000021782000F048FE12220021782000F09A
:105A400043FEDB220021782000F03EFE20220021D0
:105A5000782000F039FE8D220021782000F034FEFD
:105A600014220021782000F02FFEAF2200217820A0
:105A700000F02AFE2E220021782000F025FE0020D2
:105A8000FFF748FF00F074F80448002101804180CE
:105A900001214171012010BD841F00201000002051
:105AA0002DE9F04782460E469146DFF8988031781E
:105AB000B8F800000844802805D2B8F802007178D0
:105AC0000844402802D30020BDE8F08700252BE0E1
:105AD000AAF1200101FB0050726832F81070002416
