:020000040800F2
:10000000D020002099010008ED2500088923000870
:10001000E925000881080008E93300080000000015
:100020000000000000000000000000008927000818
:100030008508000800000000F1250008E12F0008F5
:10004000B3010008B3010008B30100081926000835
:10005000B3010008B3010008B3010008B3010008B0
:10006000B3010008B3010008B3010008B3010008A0
:10007000B3010008B3010008B3010008B301000890
:10008000B3010008B3010008B3010008B301000880
:10009000B3010008B3010008B3010008B301000870
:1000A000B3010008B3010008B3010008B301000860
:1000B000B3010008B3010008693000088F2300086D
:1000C0008D230008B3010008B30100081D260008B5
:1000D000B3010008DD330008B3010008B3010008D4
:1000E000B3010008B3010008B301000800F002F8F2
:1000F00000F043F80AA090E8000C82448344AAF17F
:100100000107DA4501D100F038F8AFF2090EBAE87C
:100110000F0013F0010F18BFFB1A43F0010318473B
:10012000CC390000EC390000103A24BF78C878C1FF
:10013000FAD8520724BF30C830C144BF04680C60ED
:10014000704700000023002400250026103A28BF35
:1001500078C1FBD8520728BF30C148BF0B60704739
:100160001FB500F091FA04000020002103F080FC8C
:10017000401C60601FBD10B510BD00F060FA114654
:10018000FFF7EEFF03F0A8F900F090FA03B4FFF7D1
:10019000F2FF03BC00F0D4FA094880470948004741
:1001A000FEE7FEE7FEE7FEE7FEE7FEE7FEE7FEE727
:1001B000FEE7FEE704480549054A064B7047000084
:1001C00065300008ED000008D01A0020D020002083
:1001D000D01C0020D01C002070B5064600F05AF953
:1001E0000468054630460A22002100F057F92C60C9
:1001F00070BD40EA010310B59B070FD1042A0DD34F
:1002000010C808C9121F9C42F8D020BA19BA8842F7
:1002100001D9012010BD4FF0FF3010BD1AB1D30736
:1002200003D0521C07E0002010BD10F8013B11F86C
:10023000014B1B1B07D110F8013B11F8014B1B1B95
:1002400001D1921EF1D1184610BD10B5431C02E039
:1002500010F8011B71B18107FAD14FF0013202C8C9
:100260008C1A8C4314EAC211F9D0C01A0A0603D0C2
:10027000C01E10BDC01A10BD0A0401D0801E10BDE2
:100280000902FCD0401E10BD032A40F2308010F05D
:10029000030C00F0158011F8013BBCF1020F624421
:1002A00098BF11F801CB00F8013B38BF11F8013BB2
:1002B000A2F1040298BF00F801CB38BF00F8013B5F
:1002C00011F0030300F06780083AC0F0088051F88D
:1002D000043B083A51F804CBA0E80810F5E7121DDA
:1002E0005CBF51F8043B40F8043BAFF30080D207F9
:1002F00024BF11F8013B11F801CB48BF11F8012BC5
:1003000024BF00F8013B00F801CB48BF00F8012BE7
:100310007047431A28BF9A427FF6B6AF032A1044AB
:10032000114440F2268010F0030F1EBF11F8013D6A
:10033000521E00F8013D10F0030F7FF4F6AF11F0EC
:10034000030300F0F680083AC0F00B8051F8043D3A
:10035000083A51F804CD40F8043D40F804CDFFF7C9
:10036000F3BF121D5CBF51F8043D40F8043DAFF3EC
:100370000080D20724BF11F8013D11F801CD48BF1C
:1003800011F8012C24BF00F8013D00F801CD48BF51
:1003900000F8012C704710B5203AC0F00B80B1E88E
:1003A0001850203AA0E81850B1E81850A0E81850AA
:1003B000BFF4F5AF5FEA027C24BFB1E81850A0E8B3
:1003C000185044BF18C918C0BDE810405FEA827CCD
:1003D00024BF51F8043B40F8043B08BF7047D207E4
:1003E00028BF31F8023B48BF11F8012B28BF20F885
:1003F000023B48BF00F8012B70474FF00002042970
:10040000C0F0128010F0030C00F01B80CCF1040C43
:10041000BCF1020F18BF00F8012BA8BF20F8022B77
:10042000A1EB0C0100F00DB85FEAC17C24BF00F81D
:10043000012B00F8012B48BF00F8012B70474FF04B
:10044000000200B5134694469646203922BFA0E824
:100450000C50A0E80C50B1F12001BFF4F7AF090730
:1004600028BFA0E80C5048BF0CC05DF804EB890021
:1004700028BF40F8042B08BF704748BF20F8022B64
:1004800011F0804F18BF00F8012B7047704770477C
:100490007047000000487047701A00202DE9F047AF
:1004A00091460F4680460446002614F8015B2DB1A4
:1004B00000F06EF80068405DC007F6D12B2D02D029
:1004C0002D2D18D0641E4A463946204600F068F8A3
:1004D00027B13968A14201D1C7F800804FF002046A
:1004E00071050BD54042002803DDFFF7D3FF046000
:1004F000A007BDE8F08746F48066E4E70028F8DA54
:10050000FFF7C8FF04606FF00040F2E7431A28BF0E
:100510009A427FF640AF104410F0030F11441EBF03
:1005200011F8013D521E00F8013D10F0030F7FF459
:10053000F6AF103AC0F00A8010B531E91850103A01
:1005400020E91850BFF4F9AFBDE81040530724BFAD
:1005500031E9081020E9081044BF51F8043D40F883
:10056000043D12F0030F08BF7047D20728BF31F8CF
:10057000023D48BF11F8012C28BF20F8023D48BFBA
:1005800000F8012C7047000000487047701A0020E6
:1005900010B500F079F8001D10BD00BFD534000083
:1005A0002DE9F05F824615468B4600270AF10104CB
:1005B000B9460078302801D09DB113E014F8010B42
:1005C0000127782803D0582801D045B10AE00DB1A1
:1005D000102D07D1002714F8010B102502E0082583
:1005E00000E00A250026B0460EE005FB080005FBEA
:1005F00006F101271FFA80F801EB1046B6F5803F9F
:1006000000D3B94614F8010B294600F041F8002840
:10061000EBDABBF1000F05D00FB1641E00E05446C9
:10062000CBF80040B9F1000F06D0FFF733FF0221ED
:100630000160C81EBDE8F09F48EA0640FAE775462B
:10064000FFF7A2FFAE4605006946534620F00700BB
:10065000854618B020B5FFF7ADFDBDE820404FF04E
:1006600000064FF000074FF000084FF0000B21F09C
:100670000701AC46ACE8C009ACE8C009ACE8C00969
:10068000ACE8C0098D46704700487047901A0020BA
:100690003A2800D2303820F02002412A01D3A2F1BA
:1006A0003700884201D34FF0FF30704710B5044641
:1006B000AFF300802046BDE81040FFF767BD0000A3
:1006C0004FF0013C50F8042B51F8043B9A4221D1E1
:1006D000A2EB0C03934313EACC1317D150F8042B6D
:1006E00051F8043B9A4215D1A2EB0C03934313EA51
:1006F000CC130BD150F8042B51F8043B9A4209D18A
:10070000A2EB0C03934313EACC13DBD04FF00000B1
:10071000704700BFD01A01BAB1FA81F101F0180197
:1007200022FA01F0CB40C1F12001DBB2C0B2C01A05
:100730002CFA01F3D11A914311EAC311E6D17047A3
:1007400001491820ABBEFEE7260002007047C188B1
:100750008288914209D0827AA2F16103192B00D8D4
:10076000203A4B1CC38000684254704770B5044661
:100770000E4615462189002902D0204600F066F871
:10078000E088A18842198A4201D9091A8DB22168EC
:100790002A4608443146FFF777FDE0882844E08088
:1007A00070BD00002DE9F04306460F469846082A22
:1007B00000D908220020521E54B2DFF838900A25D2
:1007C00014E059F82410B7FBF1F2B2FBF5F105FB88
:1007D000112242EA000151EA080105D03032B2721A
:1007E0003046FFF7B4FF0120641E64B2002CE8DA43
:1007F000BDE8F083A03A000800210181C180704764
:100800002DE9F0410546884616464FF0FF37E88847
:10081000B04202D23846BDE8F081002408E02868E2
:10082000324620444146FFF7E4FC38B1641CA4B2D0
:10083000E888801BA042F2DA3846ECE727B2FBE7F3
:10084000016082800021C1800181704770B504463B
:100850000D46E0880026A84202D82681E68070BDB9
:10086000421B20684119FFF754FDE088401BE080DF
:100870002089A84201D8268170BD401B208170BD0F
:1008800000F001B87047022001F002FE72B6FEE7E8
:1008900010B586B0002401940294039404940020BF
:1008A00003F02AF8012001900290039402200490A2
:1008B00001A9184800F028F91848174901604FF4B9
:1008C000827141608460C460046144614FF40071CE
:1008D00081612821C1610462446284620A21C1628B
:1008E00000F06AFE08B1FFF7CEFF02F0D3FE012050
:1008F00003F002F80AA0006805904FF47A73022210
:1009000005A9064800F09EFF002002F0F5FF06B0A2
:1009100010BD0000000C014000300140180A00200A
:1009200001000000F8B506460C461546002E08D01A
:100930004FF400218C4204D28D4202D860198842C3
:1009400001D90020F8BD012002F0D6FF12A00068F6
:100950000090200C8DF80100200A8DF802008DF81F
:1009600003404FF47A742346042269460B4800F092
:1009700069FF08B1002407E0AAB2234631460748C0
:1009800000F0B4FE28B10024002002F0B5FF20469C
:10099000F8BD0124F8E7000003000000180A002059
:1009A0002DE9F04107460E461546002F08D04FF4BA
:1009B00000218E4204D28D4202D87019884202D999
:1009C0000020BDE8F0814FF4805815E02C464445E6
:1009D00000D94446300503D0C6F30B00C0F580545F
:1009E000AC4200D92C4622463146384603F00AF87C
:1009F00030B1274426442D1B002DE7D10120E0E72C
:100A00000020DEE710B590F821100022022905D061
:100A10000421816380F82020012010BD01680B684B
:100A200023F00E030B6001680B6823F001030B60D9
:100A300090F84030C46B012101FA03F3636080F841
:100A4000211080F82020104610BD000010B50024B1
:100A500090F82110022903D00421816301243DE094
:100A600001680A6822F00E020A6001680A6822F032
:100A700001020A601A4A0168914201D1012121E074
:100A8000174A1432914201D110211BE0144A283236
:100A9000914201D1891515E0114A3C32914201D1B0
:100AA00089140FE00E4A5032914202D14FF4803146
:100AB00008E00B4A6432914202D14FF4801101E008
:100AC0004FF08071064A083A5160012180F82110E8
:100AD000002180F82010416B01B18847204610BDED
:100AE0000800024070B5044600F00EF90546601C8F
:100AF00002D004480078044400F006F9401BA042EC
:100B0000FAD370BD240000202DE9F84F0024002303
:100B1000DFF8C4914FF00F08A9F1040B09F1040AA2
:100B2000ABF1040ED1E00127A7403A40BA4275D19B
:100B3000DFF8A8C14D68A5EB0C0665452BD00DDC90
:100B4000032D34D005DC35B3012D19D0022D2FD162
:100B50001BE0112D16D0122D2AD119E0B6F5881FF1
:100B600019D006DCB6F5803F15D0B6F5801F1FD131
:100B700011E0B6F5001F0ED0B6F5041F18D10AE03B
:100B8000CB6815E0CB681B1D12E0CB6808330FE083
:100B9000CB680C330CE08B6823B1012B04D0082305
:100BA000476105E0042303E00823076100E0002318
:100BB000FF2A01D8054601E000F1040502D84FEAFA
:100BC000840603E0A4F108064FEA86062F6808FAB7
:100BD00006FC27EA0C0703FA06F647EA06072F6029
:100BE0004D68ED0070D53E4DAE6946F00106AE6130
:100BF000AD6905F0010500953A4D24F0030677191B
:100C0000BE68A5072D0F08FA05FC26EA0C06DFF8DA
:100C1000D8C0604503D14FF0000C17E054E0DFF876
:100C2000CCC0604502D14FF0010C0FE0DFF8C0C02E
:100C3000604502D14FF0020C08E0DFF8B8C0604513
:100C400002D14FF0030C01E04FF0040C0CFA05FC4C
:100C50004CEA060CC7F808C04D68ED0205D5D9F876
:100C600000501543C9F8005004E0D9F800509543EE
:100C7000C9F800504D68AD0205D5DAF800501543AB
:100C8000CAF8005004E0DAF800509543CAF8005062
:100C90004D68AD0305D5DBF800501543CBF8005087
:100CA00004E0DBF800509543CBF800504D68ED03AD
:100CB00005D5DEF800501543CEF8005004E0DEF80C
:100CC00000509543CEF80050641C0A6832FA04F5CF
:100CD0007FF429AFBDE8F88F08040140000011102F
:100CE000001002400000014000080140000C0140DB
:100CF0000010014000140140002A01D0016170473A
:100D000009040161704700000148806870470000D5
:100D100024000020024881680278114481607047F5
:100D20002400002010B50748016841F0100101605F
:100D3000032000F077F80F2000F006F800F026F806
:100D4000002010BD0020024070B504460D4D4FF448
:100D50007A712878B1FBF0F00B490968B1FBF0F02B
:100D600000F035FF08B1012070BD102C07D2002221
:100D70002146501E00F036F86C60002070BD012046
:100D800070BD0000240000203000002008B50C4891
:100D9000816941F001018161816901F001010091E6
:100DA000C16941F08051C161C06900F0805000907C
:100DB0000449486820F0E06040F00070486008BDD9
:100DC0000010024000000140002809DB00F01F0273
:100DD000012191404009800000F1E020C0F800119D
:100DE00070470000F0B40D460D4B1B68C3F302239F
:100DF000C3F10704042C00D90424191D072901D2CA
:100E0000002300E0DB1E012606FA04F1491E2940FA
:100E100099409E40761E16403143F0BC02F0E6BA7F
:100E20000CED00E000F00701054A10684FF6FF03E3
:100E3000184040EA01200349084310607047000051
:100E40000CED00E00000FA052DE9F8430446DFF858
:100E5000F8802078C0075FD00027D8F81C00C000B9
:100E60000BD4D8F81C0040F08050C8F81C00D8F80B
:100E70001C0000F0805000900127344D2868C00508
:100E800012D4286840F480702860FFF73DFF0646C2
:100E900007E0FFF739FF801B642802D90320BDE873
:100EA000F8832868C005F4D5D8F8200000F4407015
:100EB00010B3A18801F4407181421DD0D8F8200000
:100EC00020F44070224901220A6000220A60C8F81A
:100ED0002000C00710D0FFF717FF054641F2883603
:100EE00006E0FFF711FF401BB04201D90320D6E70F
:100EF000D8F820008007F4D5D8F82000616820F4E5
:100F000040700843C8F82000012F05D1D8F81C0014
:100F100020F08050C8F81C002078800707D5D8F84A
:100F20000400A16820F440400843C8F80400207879
:100F3000C00607D5D8F80400E16820F48000084313
:100F4000C8F804000020AAE700100240007000402A
:100F5000400442422DE9F04704460D46002C17D0CC
:100F6000DFF83081D8F8000000F00700A84211D265
:100F7000D8F8000020F007002843C8F80000D8F88F
:100F8000000000F00700A84204D00120BDE8F0876F
:100F90000120FBE72068404E810712D5400703D5AA
:100FA000706840F4E06070602078000703D57068D6
:100FB00040F4605070607068A16820F0F000084351
:100FC00070602078C0072CD06068012806D0022805
:100FD00009D0316889070BD40120D7E7316889032C
:100FE00006D40120D2E73168890101D40120CDE780
:100FF000716821F0030101437160FFF785FE074628
:1010000041F2883906E0FFF77FFEC01B484501D951
:101010000320BBE77068616800F00C00B0EB810F43
:10102000F1D1D8F8000000F00700A8420ED9D8F896
:10103000000020F007002843C8F80000D8F800009E
:1010400000F00700A84201D001209FE72078400768
:1010500005D57068E16820F4E0600843706020788E
:10106000000706D57068216920F4605040EAC1008D
:10107000706000F03FF87168084AC1F30311515CD9
:10108000C8400749086007480068FFF75DFE002078
:101090007CE700000020024000100240D23A000825
:1010A0003000002028000020014800687047000040
:1010B0003000002000B5FFF7F7FF04494968044AF3
:1010C000C1F30221515CC84000BD00000010024085
:1010D000E23A000800B5FFF7E7FF04494968044A0F
:1010E000C1F3C221515CC84000BD000000100240A5
:1010F000E23A00080E4B59680E4801F00C02042A2F
:1011000011D0082A0FD10C48C1F38342805CC90377
:101110000AD55968084AC1F34041921E515C054AFC
:101120005043B0FBF1F0704704494843704700005A
:101130000010024000127A00C23A000800093D0087
:101140002DE9F84F0446002C0ED02078D94DC00769
:101150005ED06868C0F3810001280BD06868C0F3D6
:101160008100022803D00CE00120BDE8F88F6868F8
:10117000C00306D5286880034AD56068A8BB012053
:10118000F3E76068B0F5803F11D0A8B1B0F5A02FAB
:101190001BD0286820F480302860286820F4802044
:1011A0002860606830B3FFF7AFFD06461EE0286890
:1011B00040F480302860F4E7286820F4803028600C
:1011C000286820F480202860EBE7286840F480201D
:1011D0002860286840F480302860E2E7FFF794FD3B
:1011E000801B642802D90320BFE711E02868800330
:1011F000F4D50DE0FFF788FD064606E0FFF784FD15
:10120000801B642801D90320AFE728688003F5D448
:101210002078DFF8A48280074FF0010A4FF0000920
:1012200045D5686810F00C0F07D06868C0F38100DE
:10123000022812D16868C0030FD42868800704D53B
:101240002069012801D001208FE72868616920F01A
:10125000F80040EAC100286029E02069B8B1C8F868
:1012600000A0FFF751FD064606E0FFF74DFD801B8D
:10127000022801D9032078E728688007F5D5286877
:10128000616920F0F80040EAC10028600FE0C8F86A
:101290000090FFF739FD064606E0FFF735FD801B9D
:1012A000022801D9032060E728688007F5D4207858
:1012B000000726D58148A16999B1C0F800A0FFF7C1
:1012C00023FD064606E0FFF71FFD801B022801D91B
:1012D00003204AE7686A8007F5D5012001F08AF902
:1012E0000FE0C0F80090FFF70FFD064606E0FFF79D
:1012F0000BFD801B022801D9032036E7686A8007AE
:10130000F5D42078400773D50026E869C00008D4DA
:10131000E86940F08050E861E86900F08050009092
:101320000126DFF89CB1DBF80000C00514D4DBF81F
:10133000000040F48070CBF80000FFF7E5FC0746A2
:1013400006E0FFF7E1FCC01B642801D903200CE78D
:10135000DBF80000C005F4D5E068012812D0B0B178
:1013600005281DD0286A20F001002862286A20F094
:1013700004002862E06841F2883B28B3FFF7C4FC10
:1013800007461DE0286A40F001002862F2E7286A5B
:1013900020F001002862286A20F004002862E9E7B2
:1013A000286A40F004002862286A40F001002862A0
:1013B000E0E7FFF7A9FCC01B584501D90320D4E69C
:1013C000286A8007F5D50DE0FFF79EFC074606E08A
:1013D000FFF79AFCC01B584501D90320C5E6286ACF
:1013E0008007F5D4012E03D1E86920F08050E86130
:1013F000E069A0B36968C1F38101022946D00228DF
:1014000005D0C8F86090FFF77FFC04463AE0C8F8C2
:101410006090FFF779FC064606E0FFF775FC801B3D
:10142000022801D90320A0E628688001F5D4206AAB
:10143000B0F5803F05D16868A16820F4003008430A
:101440006860D4E908010843696821F4741108430D
:101450006860C8F860A0FFF757FC044607E026E084
:10146000FFF752FC001B022801D903207DE6286803
:101470008001F5D51BE0FFF747FC001B022801D9CE
:10148000032072E628688001F5D410E001280CD012
:101490006868226A00F48031914204D1616A00F4E4
:1014A0007010884203D001205FE601205DE6002035
:1014B0005BE600000010024000004242800442420D
:1014C000007000407047000038B50446206842684C
:1014D0008168C9434B060AD5CB0708D1D3435B06C5
:1014E00005D4216C01B02046BDE8304008478B0789
:1014F00008D4D3431B0605D4616C01B02046BDE877
:10150000304008478B0601D54B064AD4D3439B068F
:1015100047D44B060AD494F85130032B42D0636D64
:1015200043F004036365C36883680093890609D4A4
:10153000616D41F00101616581680091016821F0F0
:1015400040010160606D00282BD02068416821F0C7
:10155000E0014160012084F8510002F0020002F035
:101560000101084322D02068416821F00301416055
:10157000104DE06C40B14563E06CFFF767FA18B1BD
:10158000606D40F040006065A06C002809D04563A4
:10159000A06CFFF75BFA002803D0606D40F04000BC
:1015A000606538BDC1688068009038BD2046FFF78F
:1015B00089FF38BD2926000870B50446002C09D0E3
:1015C000606A002540B125616561A56294F851000B
:1015D00040B10CE0012070BD6068B0F5827FF4D0AE
:1015E000E561F2E784F85050204600F03FF8022011
:1015F00084F851002068016821F040010160A08852
:10160000218900F4827001F404410843A18901F4A6
:1016100000610843217C01F002010843217D01F0B3
:1016200001010843218B01F400710843217F01F07F
:101630003801084394F8201001F080010843218DFF
:1016400001F40051084321680860A069042101EAFF
:101650001040216848602068C16921F40061C161BF
:101660006565012084F85100002070BD30B585B05B
:101670000024019402940394049400681849884259
:101680002BD11848816941F480518161816901F44D
:1016900080510091816941F004018161806900F00D
:1016A00004000090A02001900220029003200490EA
:1016B0000D4D01A92846FFF727FA40210191029418
:1016C000039401A92846FFF71FFA002211462320A0
:1016D000FFF788FB2320FFF777FB05B030BD000044
:1016E0000030014000100240000801402DE9F84F91
:1016F00004468A4691461D46002694F8510001286A
:1017000001D0022699E060684FF0040BB0F5827FAB
:1017100001D1A06820B394F8500001282BD04FF0DD
:10172000010884F85080FFF7EFFA0746BAF1000F7E
:1017300023D0B9F1000F20D084F851B000206065AB
:10174000C4F838A0A4F83C90A4F83E902063A0868A
:10175000E08620646064A068B0F5004F0FD018E008
:1017600084F851B04B46524651462046009500F051
:1017700033F9BDE8F88F0220FBE701265DE0206821
:10178000016821F0400101602068016821F4804176
:10179000016020680168490603D4016841F04001F6
:1017A0000160E068B0B133E020688168C90709D002
:1017B000007BA16B0870A06B401CA063E08F401EF3
:1017C000E08707E0FFF7A0FAC01BA84201D3681C1E
:1017D00004D11DB1E08F0028E6D11CE0032684F877
:1017E00051802AE020688168C90709D0C068A16BD0
:1017F0000880A06B801CA063E08F401EE08707E09C
:10180000FFF782FAC01BA84201D3681C0FD175B143
:10181000E08F0028E6D13A462946204600F00CFF2A
:1018200008B120206065606D28B1012605E003261F
:1018300084F8518001E084F85180002084F8500041
:10184000304696E72DE9F84F04468B4692461D46F2
:10185000002694F8500001280DD04FF0010884F8BC
:101860005080FFF751FA074694F85100B14601281D
:1018700004D00226ACE00220BDE8F88FBBF1000FD7
:101880001CD05FEA0A0019D0032084F85100C4F884
:101890005490C4F830B0A4F834A0A4F836A0C4F82A
:1018A0003890A4F83C90A4F83E90C4F84490C4F852
:1018B0004090A068B0F5004F02D00BE0012687E011
:1018C0002068016821F0400101602068016841F44E
:1018D0008041016020680168490603D4016841F035
:1018E00040010160E068B0F5006F05D0606888B322
:1018F000BAF1010F2FD04FE0606810B1BAF1010FBB
:1019000020D1206B21680088C860206B801C206378
:10191000E08E401EE08615E020688168890709D5C1
:10192000216B0988C160206B801C2063E08E401E03
:10193000E08607E0FFF7E8F9C01BA84201D3681C66
:1019400004D11DB1E08E0028E6D128E0032684F8FA
:1019500051803DE0FFE7206B216800780873206B21
:10196000401C2063E08E401EE08615E02068816800
:10197000890709D5216B09780173206B401C20630E
:10198000E08E401EE08607E0FFF7BEF9C01BA842CC
:1019900001D3681C0ED16DB1E08E0028E6D13A4625
:1019A0002946204600F080FE08B120206065A0682E
:1019B00020B107E0032684F8518009E02068C1685F
:1019C00080680090606D08B1012601E084F85180C4
:1019D00084F8509030464FE72DE9FF4F81B0044620
:1019E0000E9E8B4698460125002794F8500001284A
:1019F0000ED0AA4684F850A0FFF786F9814694F8E5
:101A00005100616801280DD0B1F5827F08D103E053
:101A1000022005B0BDE8F08FA16809B9042801D003
:101A20000227CFE0BBF1000F2DD0039858B35FEA37
:101A3000080028D094F85100042802D0052084F82A
:101A40005100002060650399A163A4F83E80A4F8CA
:101A50003C80C4F830B0A4F83680A4F83480206408
:101A6000606420680168490603D4016841F04001C0
:101A70000160E068B0F5006F07D06068F0B3B8F1BE
:101A8000010F49D07EE001279CE0606810B1B8F1F9
:101A9000010F3AD1206B21680088C860206B801C40
:101AA0002063E08E401EE0862FE020688168890771
:101AB0000DD5E18E59B1012D09D1216B0988C16085
:101AC000206B801C2063E08E401EE086002520688D
:101AD0008168C9070BD0E18F49B1C068A16B08804C
:101AE000A06B801CA063E08F401EE0870125FFF7FC
:101AF0000BF9A0EB0900B04207D300E00CE0701C2A
:101B000003D0032784F851A05CE0E08E0028CCD1FC
:101B1000E08F0028C9D13BE0206B21680078087372
:101B2000206B401C2063E08E401EE0862AE0206887
:101B3000816889070DD5E18E59B1012D09D1216B3D
:101B400009780173206B401C2063E08E401EE08604
:101B5000002520688168C9070BD0E18F49B1C068B2
:101B6000A16B0870A06B401CA063E08F401EE08753
:101B70000125FFF7C9F8A0EB0900B04201D3701CA2
:101B800010D17EB1E08E0028D1D1E08F0028CED1D7
:101B90004A463146204600F087FD38B10127202013
:101BA00060650FE0032784F851A00BE0A06818B926
:101BB0002068C16880680090606D08B1012701E06D
:101BC00084F851A0002084F85000384621E710B571
:101BD000401EB0F1807F01D3012010BD4FF0E02402
:101BE00060610F21601701F001FC0020A061072057
:101BF0002061002010BD70477047000070B590F85C
:101C00003C20012A25D0012680F83C60022280F881
:101C10003D2002685468936824F070050C682C43DA
:101C200054600D4C0268A24208D0B2F1804F05D03A
:101C30000A4CA24202D00A4CA24204D123F08003F3
:101C40004968194391603C304670002101700020C2
:101C500070BD022070BD0000002C01400004004057
:101C60000008004010B50446002C03D094F83D0055
:101C700010B107E0012010BD002084F83C00204690
:101C800000F016F8022084F83D00211D206801F0C4
:101C9000F1F901203D3460726070A070E070207135
:101CA0006071A071E07120722070002010BD0000F2
:101CB00008B500680B49884212D10B48C16941F050
:101CC0000401C161C06900F00400009000221146C7
:101CD0001E20FFF787F8BDE808401E20FFF774B804
:101CE00008BD0000000800400010024090F83D10C0
:101CF000012901D001207047022180F83D100168C0
:101D0000CA6842F00102CA6000680E49884208D0E1
:101D1000B0F1804F05D00C49884202D00B4988426F
:101D200009D1816801F00701062908D0016841F056
:101D30000101016003E0016841F001010160002040
:101D400070470000002C01400004004000080040E3
:101D500070B50446002594F83C00012817D00126F0
:101D600084F83C60022084F83D002068826822F0FC
:101D7000770222F47F4282600868502838D00DDC58
:101D8000202853D005DC90B3102811D14EE002205A
:101D900070BD30284AD040280AD13DE0602831D0BB
:101DA00070280CD0B0F5805F03D0B0F5005F12D082
:101DB00001253C34667000202070284670BDCB6839
:101DC000D1E90121206801F08BF92068816841F098
:101DD00077018160EDE7CB68D1E90121206801F04E
:101DE0007FF92068816841F480418160E1E71DE06E
:101DF000CA684968206801F085F95021206801F01F
:101E000079F9D6E7CA684968206801F08CF9602141
:101E1000206801F06FF9CCE7CA684968206801F0D2
:101E200071F94021206801F065F9C2E72268014696
:101E3000104601F05FF9BCE7704770B504462068B2
:101E400001694FF00005C943890716D4C168C94329
:101E5000890712D4E91E016101202077206880697A
:101E6000800703D02046FFF7E7FF05E0204600F09B
:101E70009BF8204600F099F8257720680169C9434E
:101E8000490718D4C168C943490714D46FF0040145
:101E90000161022020772068806910F4407F03D020
:101EA0002046FFF7C9FF05E0204600F07DF82046F8
:101EB00000F07BF8257720680169C943090717D42A
:101EC000C168C943090713D46FF0080101610420F8
:101ED00020772068C069800703D02046FFF7ACFF59
:101EE00005E0204600F060F8204600F05EF8257717
:101EF00020680169C943C90618D4C168C943C90625
:101F000014D46FF010010161082020772068C069A7
:101F100010F4407F03D02046FFF78EFF05E02046F7
:101F200000F042F8204600F040F82577206801696B
:101F3000C943C90708D1C168C943C90704D1891E6B
:101F40000161204600F032F820680169C9430906A2
:101F500009D4C168C943090605D46FF08001016145
:101F60002046FFF748FE20680169C943490609D4A5
:101F7000C168C943490605D46FF04001016120469C
:101F800000F022F820680169C94389060BD4C168B2
:101F9000C943890607D46FF0200101612046BDE8DE
:101FA0007040FFF729BE70BD7047704710B50549F6
:101FB000884205D100F088FFBDE8104000F00EBA5D
:101FC00010BD0000340000207047704770470000CB
:101FD000F8B5044622681068D168536900F00F060E
:101FE000002E08D1850606D58D0604D52046BDE80D
:101FF000F84001F0E6B80025002E66D003F0010697
:1020000001F49077374360D0C20705D0CA0503D5E5
:10201000626C42F001026264420705D5DA0703D020
:10202000626C42F002026264820705D5DA0703D0CF
:10203000626C42F004026264020707D501F02002DC
:10204000324303D0626C42F008026264626C002A80
:1020500031D0800604D5880602D5204601F0B1F8BB
:1020600020684069C0F38010616C090700D438B360
:10207000204601F072F82068406940061CD52068AF
:10208000143050E8001F21F0400140E80012002AFF
:10209000F5D1E06B60B159494163E06BFEF7D6FCC6
:1020A000002808D0E06B416B01B0BDE8F040084764
:1020B0002046FFF78BFFF8BD2046FFF787FFF8BDEE
:1020C0002046FFF783FF6564F8BD236B012B7DD1AC
:1020D000C3067BD5CB067ED510685068009050694A
:1020E0004FF0200340064FF0020643D5E16B08682D
:1020F000406880B20028E7D0A28D8242E4D9E08512
:10210000886920282DD020680C3050E8001F21F469
:10211000807140E80012002AF5D12068143050E8A0
:10212000001F21F0010140E80012002AF5D12068CB
:10213000143050E8001F21F0400140E80012002A4E
:10214000F5D184F84230256320680C3050E8001F38
:1021500021F0100140E80012002AF5D1E06BFEF7F3
:1021600051FC6663A08DE18D401A81B22046FFF7D5
:102170002CFFF8BDA08DE18D401A81B2E08D0028C2
:10218000F7D00029F5D020680C3050E8002F22F459
:10219000907240E80027002FF5D12068143050E8F5
:1021A000002F22F0010240E80027002FF5D184F82B
:1021B0004230256320680C3050E8002F22F01002D6
:1021C00040E80023002BF5D1666300E003E02046E1
:1021D000FFF7FBFEF8BD020606D50A0604D5204629
:1021E000BDE8F84001F0CAB84006F3D54806F1D57D
:1021F0002046BDE8F84000F0D7BF00004B31000892
:1022000070B50446002C04D094F84100002510B1AC
:1022100006E0012070BD84F84050204600F024F80C
:10222000242084F841002068C16821F40051C16075
:10223000204601F02BF82068016921F490410161EA
:102240002068416921F02A0141612068C16841F498
:102250000051C1606564202084F8410084F8420088
:102260006563002070BD000030B585B00024019486
:102270000294039404940068184988422CD11848A9
:10228000816941F480418161816901F4804100915B
:10229000816941F004018161806900F004000090CF
:1022A0004FF40070019002200290032004900D4D25
:1022B00001A92846FEF728FC2915019102940394F0
:1022C00001A92846FEF720FC002211462520FEF732
:1022D00089FD2520FEF778FD05B030BD00380140AE
:1022E000001002400008014090F84230202B01D03D
:1022F0000220704721B11AB10023036301F022B814
:102300000120704710B5074988420AD1A1F5A6708F
:10231000FEF71DFA044900208862BDE8104001F074
:1023200031BB10BDD00900207C08002090F841305E
:10233000202B01D00220704779B172B101628284F2
:10234000C28400214164212180F841100068C168E5
:1023500041F08001C16000207047012070470000FB
:10236000074988420AD1A1F5AA70818B408B81422E
:1023700002D10448FEF740BA01F0C8B97047000026
:10238000D009002090080020FEF77DBA7047704702
:1023900010B586B0002402940394049405940D486B
:1023A000816941F010018161806900F010000190A5
:1023B000002000F087F84FF40050029011200390A5
:1023C00004940220059002A90348FEF79DFB06B085
:1023D00010BD0000001002400010014070B52B4CF1
:1023E0006088002802D0401E608070BD2748217898
:1023F0000025407840F2EE2640F300000629F4D292
:10240000DFE801F0030403132132EEE7401C00F083
:1024100059F86078401CC0B26070C82161800628FD
:10242000E3D125706580657070BD401C00F04AF8EE
:102430006078401CC0B2607066800228F4D12570BC
:102440006580657070BD401C00F03CF86078401CF1
:10245000C0B26070012800D0C82666800628F1D17D
:1024600025706580657070BD401C00F02BF86078A9
:10247000401CC0B26070012800D0C82666800428C5
:10248000F1D125706580657070BD00001A000020D4
:1024900010B50B490A78022A05D00870022803D02B
:1024A00000204870488010BD054CA41E207880F0A4
:1024B0000100207000F006F8C820FEF713FBF5E7D6
:1024C0001A00002080F001024FF400510148FEF78D
:1024D00013BC00000010014030B585B00024019409
:1024E0000294039404941A48816941F010018161B7
:1024F000816901F010010091816941F02001816141
:10250000816901F020010091816941F0040181613C
:10251000816901F004010091816941F00801816144
:10252000806900F0080000900A4D00221021284622
:10253000FEF7E2FB11210191012102910394022196
:10254000049101A92846FEF7DFFA05B030BD00006E
:1025500000100240000C014010B588B00024049423
:10256000059406940794029403941D481B49016046
:1025700003214160846044F24F61C16004618021A5
:102580008161FFF76FFB08B1FEF77DF94FF48050D2
:10259000049004A91248FFF7DBFB08B1FEF773F9BA
:1025A0000294039402A90E48FFF728FB08B1FEF736
:1025B0006AF90C48C16941F00401C161C06900F0C9
:1025C000040001900648FFF791FB08B1FEF75BF9A4
:1025D0001E20FEF7F9FB08B010BD00000008004007
:1025E0003400002000100240FEF74DB9FEF74BB951
:1025F0007047000008B507494FF4FA520968B1FB6B
:10260000F2F14143009100BF0098411E0091FAD2BF
:1026100008BD000030000020704700000148FEF7B0
:1026200053BF0000180A002010B5406A0021C1877E
:10263000C186FEF747FF10BDF8B504464FF482751A
:1026400060684FF48063A8420AD1A068B0F5004FDB
:1026500001D0984204D12068066826F04006066042
:102660006068A84210D1A06898420DD10B46009234
:1026700000220121204600F029F898B1606D40F059
:10268000200060650320F8BD0B46009200228021E7
:10269000204600F01BF828B1606D40F02000606516
:1026A0000320F8BD0020F8BD38B504460B46009263
:1026B00000228021204600F009F828B1606D40F02A
:1026C00020006065032038BD002038BD2DE9F843A7
:1026D00004460F4691461E46089DFEF715FB401B1B
:1026E000351AFEF711FB804626480068C0F3CB3050
:1026F000684300903AE0701C38D0FEF705FBA0EB71
:102700000800A84203D215B1009858B32BE0206806
:10271000416821F0E00141606068B0F5827F0BD133
:10272000A068B0F5004F02D0B0F5806F04D12068EA
:10273000016821F040010160A06AB0F5005F09D195
:102740002068016821F4005101602068016841F4AB
:10275000005101600120503460700020207003207F
:10276000BDE8F88300250098401E0090206880682E
:1027700037EA000004D000204845BCD10020EFE734
:102780000120F9E730000020704700001FB500F07D
:10279000BBF810B1002004B010BD10A090E80E00EE
:1027A000C0688DE80E0003906846FDF74EFD82B2CA
:1027B00069460E48FDF7DAFF0C481438416A41F0CB
:1027C00002014162052180F82C100E2101624EF6B3
:1027D0006021016000F09AFF0120DCE741542B43A7
:1027E0004D47443D312C340D0A0000009008002074
:1027F00010B5064991F84011002905D0102204496E
:10280000FDF742FD012010BD002010BD7C08002016
:10281000BC09002010B50C460B49B1F85021002A24
:102820000FD00022A1F850210F222D31FDF72CFDF1
:1028300005494FF480723C312046FDF725FD01200B
:1028400010BD002010BD00007C0800202DE9FF41D4
:102850002749C1F83C0100240194029403944FF4E9
:1028600080700090234F69463846FEF74DF9F81402
:102870000090112001900294022603966946384682
:10288000FEF742F9002001F073F8B503009501222C
:1028900001920294039669463846FEF735F92246BE
:1028A00029463846FEF728FA13496D112A4601F6E3
:1028B0000800FDF7C5FF11492A4601F21440FDF753
:1028C000BFFF10480E4901604FF41641416084601B
:1028D000C46004610C2141618461C461FFF790FC14
:1028E00008B1FDF7D0FF01F04DF8BDE8FF81000011
:1028F0007C080020000801407C0000207C040020AF
:1029000000380140D0090020024890F82400C0F3AC
:10291000400070477C0800202DE9FC5F4FF0000A62
:10292000FF4D4FF0060905F1080000270190C3E1B3
:102930000222FCA10198FDF763FF0446601C69D0E8
:102940000320FFF7A5FDA41CA4B24FF00008A8685F
:102950000178A9B1022C0AD30222F3A1FDF749FCA8
:1029600070B10222EFA1A868FDF743FC40B1062C2C
:102970000CD90422EDA1A868FDF73BFC10B105E0DD
:1029800000BF22E195F82C00012810D0022C05D3BD
:102990000222E8A1A868FDF72CFC98B1032C46D9C7
:1029A0000322E5A1A868FDF724FC90B33FE0A868E6
:1029B000801DFDF711FC4FF00108B0F5164FE0D077
:1029C000C24602E1BAF1000F04D04FF001084FF007
:1029D000000AFAE095F82C00012802D1296A03299F
:1029E00004D0042805D0052808D00AE000F0E8FA51
:1029F000EBE085F82C704FF00108E6E0296A0A291F
:102A000002D0052807D0E0E00B2028624FF0010833
:102A1000DBE008E03CE1286A0E28B2D100F084FE39
:102A20004FF00108D1E095F82C00012808D0072CC0
:102A30000FD90722C1A1A868FDF7DBFB28B108E088
:102A4000042028624FF00108BFE095F82C0001280F
:102A500008D0072C18D90722BAA1A868FDF7C9FB2E
:102A600070B111E0A868C079312804D04FF08040DF
:102A700000F056FFA9E0052028624FF00108A4E00D
:102A800095F82C00012808D00A2C1BD90A22AFA1E6
:102A9000A868FDF7AEFB88B114E0A8680522C01D48
:102AA000ADA1FDF7A6FB20B14FF0804000F038FF4C
:102AB0008BE0C5F820904FF0010886E095F82C00D7
:102AC000012808D0092C0FD90922A5A1A868FDF773
:102AD00090FB28B108E0072028624FF0010874E05D
:102AE00095F82C00012802D0112C05D008E0082010
:102AF00028624FF0010868E095F82C00032818D0F0
:102B0000052C05D9052299A1A868FDF772FB98B399
:102B10000C2C05D90C2297A1A868FDF76AFB60B3BD
:102B20000C2C4ED90C2297A1A868FDF762FBE8B3E4
:102B300047E000220020A968095CA1F13003092BBD
:102B400007D82B1883F84011401CC0B20F28F2D3CD
:102B500000E00122002A02D04FF0000001E04FF017
:102B600010002946084480F8407102D14FF0090056
:102B700008624FF0010828E000E004E04FF08040D8
:102B800000F0CEFE21E0A968A01F0844052281A123
:102B9000FDF72FFB48B1A8680C30FDF71DFBA5F829
:102BA000500185F82C900D20286200E002E04FF0E3
:102BB00001080AE095F82C00062802D1286A0D28A1
:102BC00012D076490868401C0860B8F1000F06D0A2
:102BD000686A40F001007249084068626F602146EF
:102BE0000198FDF733FE67E06E480068009002220E
:102BF0006DA10198FDF704FE8346ADF800000BF1CE
:102C0000020081B20198FDF721FE022267A101981E
:102C1000FDF7F6FDADF80200BBF1FF3FD5D0411C3A
:102C2000D3D00E28D1DC064602463D48A9682D3097
:102C30008046FDF729FB06F80870022239A10198A9
:102C4000FDF7DEFDADF800008046042258A1019892
:102C5000FDF7D6FD0146ADF80200A1EB0800801E8D
:102C600086B2FF2E00D9FF26A868324600EB080185
:102C70002B48891C3C30FDF707FBA81980F83C70F5
:102C80000920286200F050FD4FF00108C2469CE781
:102C9000E88902280CD3022247A1A868FDF7A9FA07
:102CA00030B995F82C00052802D1286A0B2807D0E6
:102CB00001210198FDF7CAFDA86AC8280ED011E0CD
:102CC0000C202862686A40F00100354908406862BB
:102CD0006F6002210198FDF7B9FDEDE7E889012851
:102CE0003FF626AE95F82C004FF00056072869D223
:102CF000DFE800F068048B7D94A3D70028680324E4
:102D000028B9286A01285FD0304600F009FE286AF9
:102D1000082863D0022865D0032853D14EE051E043
:102D20007C0800200D0A0000415400002B4950523D
:102D3000000000004F4B0000524459002B43465501
:102D40004E3A20002B4350494E3A200043414C4C10
:102D50002052454144590000524541445900000069
:102D6000534D532052454144590000004552524FA3
:102D7000520000002B434D54493A2022534D222C3F
:102D8000000000002B434D47523A20225245432079
:102D90000000000050555348220000002000002091
:102DA000FDFFFFBF9C3A00082C220000222C0000EF
:102DB0000D0A0D0A000000003E20000000F074FD26
:102DC0002F626C62BDE8FC9F02212962002000F0A6
:102DD000CFFD6C624EF66020286098E7BDE8FC5F8E
:102DE00000F0A2BC00F03EFB2F626C62EAE72868AC
:102DF00030B1286A0928E5D1BDE8FC5F00F094BC39
:102E00003046BDE8FC5F00F08BBD28680028D9D1B2
:102E1000BDE8FC5F0021012000F07AB8FFF774FDE7
:102E200038B128680028CDD13046BDE8FC5F00F0FD
:102E300077BDBDE8FC5F00F049BC296A0A290ED0C5
:102E40000B291BD00C29BDD1FFF75EFD28B32868E4
:102E50000028B7D13046BDE8FC5F00F061BDFFF748
:102E600053FD38B128680028ACD13046BDE8FC5F7E
:102E700000F056BDBDE8FC5F00F0F2BCFFF744FD7A
:102E800038B1286800289DD13046BDE8FC5F00F0CD
:102E900047BDBDE8FC5F00F059BCBDE8FC5F00F039
:102EA000BFBC286A0D288DD1FFF72EFD38B12868E8
:102EB000002887D13046BDE8FC5F00F031BDBDE899
:102EC000FC5F00F079BC000010B50F4C20680028B2
:102ED00001D0401E2060A06AC82801D2401CA06218
:102EE000FFF712FD38B994F8240000F0010010B18A
:102EF0006068401C606005496068884203D1BDE895
:102F0000104000F067BB10BD7C080020C0D4010059
:102F100070B50E46104B4FF40041002807D0012237
:102F20001846FDF7E9FEBDE8704000F049B8002200
:102F30001846FDF7E1FE094C002584F82C50656227
:102F4000002000F015FD2562002E03D0022084F839
:102F50002C00266070BD0000000801407C080020A5
:102F60000EB5FFF7D1FC08B100200EBD10A0D0E9CE
:102F700000128068CDE9001202906846FDF765F9FD
:102F800082B269460D48FDF7F1FB0C481438416ADE
:102F900041F002014162032180F82C1000210162FE
:102FA00041F28831016000F0B1FB01200EBD00004C
:102FB00041542B47534E0D0A00000000900800209A
:102FC00010B5012000F0D4FC044803214162012126
:102FD00080F82C100162FA21016010BD7C080020ED
:102FE000FDF798BE70B594B028210AA8FDF727FA1E
:102FF000142105A8FDF723FA0024019402940394F8
:10300000049405200A904FF480300B900C94012515
:103010000D950E950226119612904FF4E010139024
:103020000AA8FEF78DF808B1FDF72DFC0F200590DA
:10303000069607944FF4806008900994022105A831
:10304000FDF788FF08B1FDF71EFC01954FF4807075
:10305000029001A8FDF7F8FE002801D0FDF713FC4F
:1030600014B070BD704700000148FEF7E6BE0000D6
:1030700034000020F0B50268164C174D174E4FF083
:103080008047A04205D0B84203D0A84201D0B04248
:1030900003D122F070034A681A43A04205D0B84217
:1030A00003D0A84201D0B04203D122F44073CA68D1
:1030B0001A434B6922F080021A4302608A68C26296
:1030C0000A688262A04201D109690163012141615C
:1030D000F0BD0000002C014000040040000800404A
:1030E00010B5846824F47F4442EA03220A43224351
:1030F000826010BD826822F070020A4342F007012C
:103100008160704710B5036A046A24F00104046208
:10311000846924F0F00444EA021423F00A020A430A
:103120008461026210BD10B5036A046A24F01004C1
:103130000462846924F4704444EA023223F0A00358
:1031400043EA01118261016210BD10B5406A00219D
:10315000C185C184FEF73AFF10BD01680C3151E80A
:10316000002F22F4907241E80023002BF5D1016872
:10317000143151E8002F22F0010241E80023002B16
:10318000F5D1016B012909D101680C3151E8002FFB
:1031900022F0100241E80023002BF5D1202180F815
:1031A000421000210163704710B50168CA6822F01F
:1031B0004002CA60202180F84110FFF7D1F80020BA
:1031C00010BD08B590F84210222901D0022008BD98
:1031D00082684FF480539A4201D1016921B1816A1A
:1031E0009A421DD052B10BE0816A02685268C2F364
:1031F00008020A80816A891C816209E002697AB149
:103200000268526802F07F020A70816A491C81627A
:10321000C18D491E0904090CC18505D0002008BDD7
:10322000026852680A70F0E70168CA6822F020025A
:10323000CA600168CA6822F48072CA6001684A697B
:1032400022F001024A61202180F8421000214163EE
:10325000026B012A03D0FFF755F8002008BD016377
:1032600001680C3151E8002F22F0100241E80023E0
:10327000002BF5D101680A68D20602D50A684968B0
:103280000091818DFEF7A1FEE7E7000070B50446CE
:1032900020680169E26821F4405111430161A1688D
:1032A00020690143606901432068C26841F20C63F0
:1032B0009A430A43C26020684169A26921F44071BF
:1032C000114341611E492068884202D1FDF702FF87
:1032D00001E0FDF7EFFE00EBC00101EB00106168BB
:1032E00064228900B0FBF1F3B3FBF2F36FF0180630
:1032F0007343B0FBF1F5B0FBF1F605EB8305322328
:1033000003EB0515B5FBF2F5B6FBF2F605F0F0059B
:1033100005EB0615B0FBF1F6B0FBF1F0B0FBF2F0F7
:103320006FF01801484306EB800003EB0010B0FB80
:10333000F2F0216800F00F002844886070BD0000A2
:103340000038014081628285C285002141642221CA
:1033500080F842100169002904D00168CA6842F46B
:103360008072CA6001684A6942F001024A610068DD
:10337000C16841F02001C1600020704790F8411001
:10338000212901D0022070478168B1F5805F01D109
:10339000016961B1016A4A1C0262026809785160E0
:1033A000C18C491E0904090CC1840AD013E0016ACA
:1033B00002680988C1F308015160016A891C016231
:1033C000EEE70168CA6822F08002CA600068C1683E
:1033D00041F04001C1600020704700000148FEF745
:1033E000F7BD0000D0090020FDF74DBA0907090E0E
:1033F000002804DB00F1E02080F80014704700F0A2
:103400000F0000F1E02080F8141D704738B5044625
:1034100000F040F9F0B1012000F06EFA0FA0006852
:103420000090200C8DF80100200A8DF802008DF824
:1034300003404FF47A73042269460948FEF702FA02
:1034400050B10024002000F057FA3220FDF74AFB6B
:10345000204638BD002038BD0124F3E720000000DD
:10346000180A00200EB50CA0D0E900128068CDE942
:10347000001202906846FCF7E8FE82B269460948ED
:10348000FDF774F907481438416A41F002014162BE
:1034900000F03CF90EBD000041542B4950523F0D45
:1034A0000A0000009008002010B50346002000220A
:1034B00005E033F8124014444440A0B2521CB2EB71
:1034C000510FF6D3CA0705D05A1812F8012C11442F
:1034D000414088B210BD0000FDF724FCFFF782FDDB
:1034E000FEF7FAFFFEF754FFFFF736F8FDF7D0F9C5
:1034F0001F48FFF7ABF90120FEF7CAFF1622002193
:103500001C48FDF70FFA10B90220FEF7C1FF042294
:1035100019A11848FCF76DFE164C30B9142120464D
:10352000FFF7C2FFA18A884216D00520FEF7B0FF40
:10353000104811A1801E0968C0F802100F21201D3B
:10354000FCF75BFF14210B48FFF7AEFFA0821622A9
:1035500000210848FDF724FA40F24C40FDF7C2FA7A
:1035600000210120FFF7D4FCFFF7D6F9FCE70000AB
:103570008135000802000020434F4E460000000045
:1035800010B5134C05290ED0207828B14EF66021D5
:103590000020FFF7BDFC01E0FFF712FD21780120BC
:1035A0008843207010BD00212170012807D0032816
:1035B00009D00628F6D1BDE8104000F021B8BDE8DA
:1035C0001040FFF7CDBCBDE81040FFF7DFB80000AA
:1035D0000000002009490020486091F82C000028D4
:1035E0000BD1486A00F00102002A06D0C0F3800027
:1035F000002802D0042081F82C0070477C080020AD
:1036000030B5C9B0002445944694479448944FF48B
:10361000807105A8FCF713FF05A945A8FFF7FAF884
:10362000002831D0194D0F22291D45A8FCF7E1FDD6
:10363000002829D0032216A105A8FCF7DAFD0028EE
:1036400022D1019402940394049401A8FFF7D0F8C6
:1036500001A8FCF7FAFDC0B201A90144891F0622A6
:1036600006A8FCF7C6FD00280ED10F2245A9281D8B
:10367000FCF70AFE14212846FFF716FFA88216223F
:1036800000212846FDF78CF949B030BD020000202A
:103690005245470038B5012000F02EF909A0006816
:1036A00000904FF47A73012269460748FEF7CAF882
:1036B00028B10024002000F01FF9204638BD012465
:1036C000F8E7000006000000180A00201CB50CA056
:1036D00003C8CDE900016846FCF7B7FD82B2694630
:1036E0000948FDF743F808481438416A41F00201DF
:1036F000416241F28831016000F008F81CBD000011
:1037000041540D0A00000000900800200449888BF5
:10371000421C8A834969012201440248FEF706BE21
:103720007C080020D0090020074A052151620023AF
:10373000136292F82C0082F82C301360D2F83C21EE
:10374000002A00D0104770477C0800203EB515A025
:10375000D0E900128068CDE9001202906846FCF7BB
:1037600074FD82B2124869460546FCF7FFFF104817
:1037700019300446FCF769FD82B221462846FCF761
:10378000F5FF03220BA12846FCF7F0FF0848143888
:10379000416A41F0020141624EF660210160FFF78B
:1037A000B5FF3EBD41542B434D47533D2200000021
:1037B00090080020220D0A003EB514A0D0E90012A6
:1037C0008068CDE9001202906846FCF73EFD82B2A7
:1037D000114869460546FCF7C9FF0F4C0023143C0D
:1037E0000422B4F850112846FCF7DCFF02220BA19A
:1037F0002846FCF7BBFF606A40F00200606241F2BD
:1038000088302060FFF782FF3EBD000041542B430B
:103810004D47523D00000000900800200D0A0000B6
:1038200070B50E480546FCF710FD82B20B4C1A200D
:103830003C3CA11881F83C00521C92B2294604F18C
:103840001400FCF793FF606A40F0020060624EF6DD
:1038500060202060BDE87040FFF758BFB808002026
:103860000EB50DA0D0E900128068CDE900120290DB
:103870006846FCF7EAFC82B269460A48FCF776FF24
:1038800008481438416A41F00201416241F288312E
:103890000160FFF73BFF0EBD41542B434D47463DB2
:1038A000310D0A009008002000B587B018220BA146
:1038B00001A8FCF770FD01A8FCF7C7FC82B201A9C2
:1038C0000C48FCF753FF0B481438416A41F00201E1
:1038D0004162FFF71BFF07B000BD000041542B49B8
:1038E00050523D33383430300D0A415426570D0ABA
:1038F000000000009008002010B500BF00BF00BF0E
:1039000000BF00BF80F0010201210448FDF7F4F977
:1039100000BF00BF00BF00BF00BF10BD000C0140D2
:1039200070B506461148FCF767FF10480C30FCF7ED
:1039300063FF0E4C083C94F82C50606A20F0C041A4
:10394000314321F002006062002084F82C002062E4
:103950000420FEF79DFDD4F83C21002A04D028461F
:10396000616ABDE87040104770BD00008408002007
:1039700080F001024FF400610148FDF7BDB900007D
:10398000000801400249012201F5A170FEF7ACBC1C
:103990008E08002038B505460C46FFF77BFEC0B107
:1039A0000120FFF7A9FF15A000680090200C8DF8FA
:1039B0000100200A8DF802008DF803404FF47A745C
:1039C0002346042269460E48FDF73CFF18B1002447
:1039D0000AE0002038BD23464FF48072294608488B
:1039E000FDF730FF40B100240020FFF785FF0520E0
:1039F000FDF778F8204638BD0124F5E70200000005
:103A0000180A00202DE9F04180460C461746260B87
:103A100036034FF48052974204D031461348FCF7E6
:103A200081FF70B1114DC4F30B0028443A46414662
:103A3000FCF72AFC3046FFF7E9FC28B110270024E8
:103A40000DE00020BDE8F0810020FBE706EB04213B
:103A500005EB0420FFF79EFF28B1641CE4B2BC42D2
:103A6000F4D30120EEE70020ECE70000700A00200C
:103A700010B500290AD00878002807D005487844F6
:103A8000FCF71EFE002801D0002010BD024878443B
:103A900010BD00008E00000086000000FFFFFFFF49
:103AA000010000000A00000064000000E8030000BC
:103AB00010270000A086010040420F008096980069
:103AC000010202030405060708090A0B0C0D0E0F7C
:103AD00010100000000000000000010203040607AF
:103AE0000809000000000102030400001C3C00085B
:103AF000000000203400000028010008503C0008AD
:103B0000340000209C200000440100081001000047
:103B100043000000F8FFFFFF0040404040404040AD
:103B20004040414141414140404040404040404090
:103B30004040404040404040400502020202020234
:103B40000202020202020202022020202020202083
:103B50002020200202020202020290909090909097
:103B60001010101010101010101010101010101055
:103B700010101010020202020202888888888888C9
:103B800008080808080808080808080808080808B5
:103B900008080808020202024000000000000000BD
:103BA0000000000000000000000000000000000015
:103BB0000000000000000000000000000000000005
:103BC00000000000000000000000000000000000F5
:103BD00000000000000000000000000000000000E5
:103BE00000000000000000000000000000000000D5
:103BF00000000000000000000000000000000000C5
:103C000000000000000000000000000000000000B4
:103C10000000000000000000000000000000434F12
:103C20004E46000000000000000000000000000000
:103C30000000000000000000000000000000000084
:103C40000100000010000000000000000024F4004B
:04000005080000ED02
:00000001FF
