:020000040800F2
:1000000038210020990100083B3A0008552B0008D0
:10001000393A000881080008614900080000000022
:10002000000000000000000000000000493D000842
:1000300083080008000000003D3A00085945000808
:10004000B3010008B3010008B3010008E13A000859
:10005000B3010008B3010008B3010008B3010008B0
:10006000B3010008B3010008B3010008B3010008A0
:10007000B3010008B3010008B3010008B301000890
:10008000B3010008B3010008B3010008B301000880
:10009000B3010008B3010008B3010008B301000870
:1000A000B3010008B3010008B3010008B301000860
:1000B000B3010008B3010008E1450008652B000802
:1000C000592B0008B3010008B3010008DD3B00080C
:1000D000B301000855490008B3010008B301000846
:1000E000B3010008B3010008B301000800F002F8F2
:1000F00000F043F80AA090E8000C82448344AAF17F
:100100000107DA4501D100F038F8AFF2090EBAE87C
:100110000F0013F0010F18BFFB1A43F0010318473B
:10012000484F0000684F0000103A24BF78C878C1DB
:10013000FAD8520724BF30C830C144BF04680C60ED
:10014000704700000023002400250026103A28BF35
:1001500078C1FBD8520728BF30C148BF0B60704739
:100160001FB500F091FA04000020002104F036FFD2
:10017000401C60601FBD10B510BD00F060FA114654
:10018000FFF7EEFF04F064FC00F090FA03B4FFF711
:10019000F2FF03BC00F0D4FA094880470948004741
:1001A000FEE7FEE7FEE7FEE7FEE7FEE7FEE7FEE727
:1001B000FEE7FEE704480549054A064B7047000084
:1001C000DD450008ED000008381B00203821002024
:1001D000381D0020381D002070B5064600F05AF981
:1001E0000468054630460A22002100F057F92C60C9
:1001F00070BD40EA010310B59B070FD1042A0DD34F
:1002000010C808C9121F9C42F8D020BA19BA8842F7
:1002100001D9012010BD4FF0FF3010BD1AB1D30736
:1002200003D0521C07E0002010BD10F8013B11F86C
:10023000014B1B1B07D110F8013B11F8014B1B1B95
:1002400001D1921EF1D1184610BD10B5431C02E039
:1002500010F8011B71B18107FAD14FF0013202C8C9
:100260008C1A8C4314EAC211F9D0C01A0A0603D0C2
:10027000C01E10BDC01A10BD0A0401D0801E10BDE2
:100280000902FCD0401E10BD032A40F2308010F05D
:10029000030C00F0158011F8013BBCF1020F624421
:1002A00098BF11F801CB00F8013B38BF11F8013BB2
:1002B000A2F1040298BF00F801CB38BF00F8013B5F
:1002C00011F0030300F06780083AC0F0088051F88D
:1002D000043B083A51F804CBA0E80810F5E7121DDA
:1002E0005CBF51F8043B40F8043BAFF30080D207F9
:1002F00024BF11F8013B11F801CB48BF11F8012BC5
:1003000024BF00F8013B00F801CB48BF00F8012BE7
:100310007047431A28BF9A427FF6B6AF032A1044AB
:10032000114440F2268010F0030F1EBF11F8013D6A
:10033000521E00F8013D10F0030F7FF4F6AF11F0EC
:10034000030300F0F680083AC0F00B8051F8043D3A
:10035000083A51F804CD40F8043D40F804CDFFF7C9
:10036000F3BF121D5CBF51F8043D40F8043DAFF3EC
:100370000080D20724BF11F8013D11F801CD48BF1C
:1003800011F8012C24BF00F8013D00F801CD48BF51
:1003900000F8012C704710B5203AC0F00B80B1E88E
:1003A0001850203AA0E81850B1E81850A0E81850AA
:1003B000BFF4F5AF5FEA027C24BFB1E81850A0E8B3
:1003C000185044BF18C918C0BDE810405FEA827CCD
:1003D00024BF51F8043B40F8043B08BF7047D207E4
:1003E00028BF31F8023B48BF11F8012B28BF20F885
:1003F000023B48BF00F8012B70474FF00002042970
:10040000C0F0128010F0030C00F01B80CCF1040C43
:10041000BCF1020F18BF00F8012BA8BF20F8022B77
:10042000A1EB0C0100F00DB85FEAC17C24BF00F81D
:10043000012B00F8012B48BF00F8012B70474FF04B
:10044000000200B5134694469646203922BFA0E824
:100450000C50A0E80C50B1F12001BFF4F7AF090730
:1004600028BFA0E80C5048BF0CC05DF804EB890021
:1004700028BF40F8042B08BF704748BF20F8022B64
:1004800011F0804F18BF00F8012B7047704770477C
:100490007047000000487047D81A00202DE9F04747
:1004A00091460F4680460446002614F8015B2DB1A4
:1004B00000F06EF80068405DC007F6D12B2D02D029
:1004C0002D2D18D0641E4A463946204600F068F8A3
:1004D00027B13968A14201D1C7F800804FF002046A
:1004E00071050BD54042002803DDFFF7D3FF046000
:1004F000A007BDE8F08746F48066E4E70028F8DA54
:10050000FFF7C8FF04606FF00040F2E7431A28BF0E
:100510009A427FF640AF104410F0030F11441EBF03
:1005200011F8013D521E00F8013D10F0030F7FF459
:10053000F6AF103AC0F00A8010B531E91850103A01
:1005400020E91850BFF4F9AFBDE81040530724BFAD
:1005500031E9081020E9081044BF51F8043D40F883
:10056000043D12F0030F08BF7047D20728BF31F8CF
:10057000023D48BF11F8012C28BF20F8023D48BFBA
:1005800000F8012C7047000000487047D81A00207E
:1005900010B500F079F8001D10BD00BF414A000001
:1005A0002DE9F05F824615468B4600270AF10104CB
:1005B000B9460078302801D09DB113E014F8010B42
:1005C0000127782803D0582801D045B10AE00DB1A1
:1005D000102D07D1002714F8010B102502E0082583
:1005E00000E00A250026B0460EE005FB080005FBEA
:1005F00006F101271FFA80F801EB1046B6F5803F9F
:1006000000D3B94614F8010B294600F041F8002840
:10061000EBDABBF1000F05D00FB1641E00E05446C9
:10062000CBF80040B9F1000F06D0FFF733FF0221ED
:100630000160C81EBDE8F09F48EA0640FAE775462B
:10064000FFF7A2FFAE4605006946534620F00700BB
:10065000854618B020B5FFF7ADFDBDE820404FF04E
:1006600000064FF000074FF000084FF0000B21F09C
:100670000701AC46ACE8C009ACE8C009ACE8C00969
:10068000ACE8C0098D46704700487047F81A002052
:100690003A2800D2303820F02002412A01D3A2F1BA
:1006A0003700884201D34FF0FF30704710B5044641
:1006B000AFF300802046BDE81040FFF767BD0000A3
:1006C0004FF0013C50F8042B51F8043B9A4221D1E1
:1006D000A2EB0C03934313EACC1317D150F8042B6D
:1006E00051F8043B9A4215D1A2EB0C03934313EA51
:1006F000CC130BD150F8042B51F8043B9A4209D18A
:10070000A2EB0C03934313EACC13DBD04FF00000B1
:10071000704700BFD01A01BAB1FA81F101F0180197
:1007200022FA01F0CB40C1F12001DBB2C0B2C01A05
:100730002CFA01F3D11A914311EAC311E6D17047A3
:1007400001491820ABBEFEE7260002007047C188B1
:100750008288914209D0827AA2F16103192B00D8D4
:10076000203A4B1CC38000684254704770B5044661
:100770000E4615462189002902D0204600F066F871
:10078000E088A18842198A4201D9091A8DB22168EC
:100790002A4608443146FFF777FDE0882844E08088
:1007A00070BD00002DE9F04306460F469846082A22
:1007B00000D908220020521E54B2DFF838900A25D2
:1007C00014E059F82410B7FBF1F2B2FBF5F105FB88
:1007D000112242EA000151EA080105D03032B2721A
:1007E0003046FFF7B4FF0120641E64B2002CE8DA43
:1007F000BDE8F0830C50000800210181C1807047E2
:100800002DE9F0410546884616464FF0FF37E88847
:10081000B04202D23846BDE8F081002408E02868E2
:10082000324620444146FFF7E4FC38B1641CA4B2D0
:10083000E888801BA042F2DA3846ECE727B2FBE7F3
:10084000016082800021C1800181704770B504463B
:100850000D46E0880026A84202D82681E68070BDB9
:10086000421B20684119FFF754FDE088401BE080DF
:100870002089A84201D8268170BD401B208170BD0F
:10088000FEE77047022002F079FF72B6FEE7000033
:1008900010B586B0002401940294039404940020BF
:1008A00004F0DEFA012001900290039402200490EB
:1008B00001A9184800F02CF91848174901604FF4B5
:1008C000827141608460C460046144614FF40071CE
:1008D00081612821C1610462446284620A21C1628B
:1008E00001F090FA08B1FFF7CDFF04F087F901207D
:1008F00004F0B6FA0AA0006805904FF47A73022259
:1009000005A9064801F0C4FB002004F0A9FA06B0CE
:1009100010BD0000000C0140003001409C00002090
:1009200001000000F8B506460C461546002E08D01A
:100930004FF400218C4204D28D4202D860198842C3
:1009400001D90020F8BD012004F08AFA12A0006845
:100950000090200C8DF80100200A8DF802008DF81F
:1009600003404FF47A742346042269460B4801F091
:100970008FFB08B1002407E0AAB22346314607489E
:1009800001F0DAFA28B10024002004F069FA2046C8
:10099000F8BD0124F8E70000030000009C000020DF
:1009A0002DE9F04107460E461546002F08D04FF4BA
:1009B00000218E4204D28D4202D87019884202D999
:1009C0000020BDE8F0814FF4805815E02C464445E6
:1009D00000D94446300503D0C6F30B00C0F580545F
:1009E000AC4200D92C4622463146384604F0C0FAC3
:1009F00030B1274426442D1B002DE7D10120E0E72C
:100A00000020DEE710B590F821100022022905D061
:100A10000421816380F82020012010BD01680B684B
:100A200023F00E030B6001680B6823F001030B60D9
:100A300090F84030C46B012101FA03F3636080F841
:100A4000211080F82020104610BD000010B50024B1
:100A500090F82110022903D00421816301243DE094
:100A600001680A6822F00E020A6001680A6822F032
:100A700001020A601A4A0168914201D1012121E074
:100A8000174A1432914201D110211BE0144A283236
:100A9000914201D1891515E0114A3C32914201D1B0
:100AA00089140FE00E4A5032914202D14FF4803146
:100AB00008E00B4A6432914202D14FF4801101E008
:100AC0004FF08071064A083A5160012180F82110E8
:100AD000002180F82010416B01B18847204610BDED
:100AE0000800024090F821007047000070B50446ED
:100AF00000F00EF90546601C02D00448007804445A
:100B000000F006F9401BA042FAD370BD240000207B
:100B10002DE9F84F00240023DFF8C4914FF00F08AF
:100B2000A9F1040B09F1040AABF1040ED1E001278D
:100B3000A7403A40BA4275D1DFF8A8C14D68A5EB8D
:100B40000C0665452BD00DDC032D34D005DC35B308
:100B5000012D19D0022D2FD11BE0112D16D0122DF1
:100B60002AD119E0B6F5881F19D006DCB6F5803F0A
:100B700015D0B6F5801F1FD111E0B6F5001F0ED0BD
:100B8000B6F5041F18D10AE0CB6815E0CB681B1D31
:100B900012E0CB6808330FE0CB680C330CE08B68B5
:100BA00023B1012B04D00823476105E0042303E0AF
:100BB0000823076100E00023FF2A01D8054601E071
:100BC00000F1040502D84FEA840603E0A4F1080608
:100BD0004FEA86062F6808FA06FC27EA0C0703FA94
:100BE00006F647EA06072F604D68ED0070D53E4DCA
:100BF000AE6946F00106AE61AD6905F001050095EC
:100C00003A4D24F003067719BE68A5072D0F08FAA0
:100C100005FC26EA0C06DFF8D8C0604503D14FF08A
:100C2000000C17E054E0DFF8CCC0604502D14FF073
:100C3000010C0FE0DFF8C0C0604502D14FF0020C9C
:100C400008E0DFF8B8C0604502D14FF0030C01E0C6
:100C50004FF0040C0CFA05FC4CEA060CC7F808C06F
:100C60004D68ED0205D5D9F800501543C9F800507C
:100C700004E0D9F800509543C9F800504D68AD0222
:100C800005D5DAF800501543CAF8005004E0DAF848
:100C900000509543CAF800504D68AD0305D5DBF808
:100CA00000501543CBF8005004E0DBF800509543AA
:100CB000CBF800504D68ED0305D5DEF80050154324
:100CC000CEF8005004E0DEF800509543CEF8005016
:100CD000641C0A6832FA04F57FF429AFBDE8F88F86
:100CE0000804014000001110001002400000014003
:100CF00000080140000C01400010014000140140B8
:100D0000002A01D0016170470904016170470000A9
:100D10000148806870470000240000207047704739
:100D20002DE9F041044621684A694E68002594F88F
:100D30003E00D743FA050BD4F243D20508D401256F
:100D40006FF480724A6121680A6842F400420A60C6
:100D5000B90508D4F143C90505D445F00205226858
:100D60006FF400715161790525D4F143C90522D48E
:100D7000628D94F83D10236B202808D13AB92129BF
:100D800010D029290ED0282901D1212B0AD0226880
:100D90006FF48061516145F00405102806D04028A9
:100DA00004D008E0204602F0ADFB04E020680168B2
:100DB00041F400710160380508D4F043C00505D442
:100DC00045F0080521686FF400604861002D07D0E8
:100DD000206C284320642046BDE8F04101F03CBF70
:100DE000BDE8F0812DE9F041054600212B685A68E5
:100DF000EE6A95F83E4095F83D00102C05D0402C49
:100E000003D02C6CECB35C696EE09F695969C943EF
:100E10005FEAC17C05D0B6F52A0F7CD0B6F12A4F27
:100E200079D0CE070AD1D643B60507D4284601F0BB
:100E30009FFE2846BDE8F04102F030BA0E0707D405
:100E4000D643B60504D42846BDE8F04102F044B9C3
:100E50008E0707D4D643B60504D42846BDE8F04132
:100E600002F050B9FE43760723D45B681B0552D4C9
:100E70000B060BD4D3435B0508D44B0706D5284695
:100E800000E02FE0BDE8F04102F0C7B8490775D493
:100E9000D143890572D4212806D0402C6ED1284632
:100EA000BDE8F04102F04ABA2846BDE8F04102F040
:100EB0006FB85868000561D4480609D4D04340058E
:100EC00006D4480704D52846BDE8F04101F0F2BF3A
:100ED000480753D4D043800550D42846BDE8F0419C
:100EE00001F068BF99695C69E443A6070AD4D64358
:100EF000B60507D4286C00B199692846BDE8F041D1
:100F000002F0DBBAE10609D4D143890506D42846AC
:100F1000BDE8F04100E031E002F03CBB21280DD0FB
:100F200029280BD060061FD4D04340051CD460078D
:100F30001AD52846BDE8F04102F06DBA200609D462
:100F4000D043400506D4600704D52846BDE8F041EB
:100F500002F091BA600711D4D04380050ED4284620
:100F6000BDE8F04102F079BA600707D4D0438005AC
:100F700004D42846BDE8F04102F03FBABDE8F08154
:100F80007047000070B50446002C04D094F83D0072
:100F9000002510B106E0012070BD84F83C502046C9
:100FA00000F0C2F8242084F83D002068016821F098
:100FB000010101602068016841F40041016020687E
:100FC000016821F40041016000F018FB4F4B61689B
:100FD000994203D84E49884203D304E04D498842E0
:100FE00001D2012070BD4C49B0FBF1F12268566876
:100FF00026F03F060E43566062689A4201D8491CAB
:1010000007E04FF4967251434FF47A72B1FBF2F15C
:10101000491C2268166A26F03F0631431162616856
:10102000994210D84900401EB0FBF1F2521CC2F3A5
:101030000B02042A01D2042022E0B0FBF1F0401C94
:10104000C0F30B001CE0A268F2B301EBC10303EB99
:101050000116431EB3FBF6F35B1C43F480431B05F0
:1010600049D092B301EBC10202EB0111401EB0FB6B
:10107000F1F0401CC0F30B0040F4804040F400400D
:101080002168CA694CF6FF739A431043C861D4E9DA
:10109000071001432068026822F0C002114301607A
:1010A000D4E9030101432068826848F2FF339A4380
:1010B00011438160D4E9051001432068C26822F021
:1010C000FF021143C16001E00EE016E020680168F4
:1010D00041F0010101602564202084F83D00256372
:1010E00084F83E50002070BD01EB4106431EB3FB67
:1010F000F6F35B1CB3E70120C2E701EB4101401EA0
:10110000B0FBF1F0401CC0F30B00B7E7A086010074
:1011100080841E0000093D0040420F007047704768
:10112000704770477047000010B586B000210291EB
:101130000391049105910068174988422AD1174C00
:10114000A06940F00800A061A06900F008000190CB
:10115000C0200290122003900320059002A910489D
:10116000FFF7D6FCE06940F40010E061E06900F4AC
:1011700000100190002211461F2000F07DF81F2072
:1011800000F06CF800221146202000F075F82020B5
:1011900000F064F806B010BD00540040001002409A
:1011A000000C014070477047024881680278114482
:1011B000816070472400002010B50748016841F0A5
:1011C00010010160032000F077F80F2000F006F80E
:1011D00000F026F8002010BD0020024070B5044643
:1011E0000D4D4FF47A712878B1FBF0F00B49096886
:1011F000B1FBF0F001F011F908B1012070BD102C25
:1012000007D200222146501E00F036F86C60002004
:1012100070BD012070BD00002400002030000020BF
:1012200008B50C48816941F001018161816901F0D3
:1012300001010091C16941F08051C161C06900F0B4
:10124000805000900449486820F0E06040F0007051
:10125000486008BD0010024000000140002809DB82
:1012600000F01F02012191404009800000F1E020C0
:10127000C0F8001170470000F0B40D460D4B1B681C
:10128000C3F30223C3F10704042C00D90424191D5D
:10129000072901D2002300E0DB1E012606FA04F133
:1012A000491E294099409E40761E16403143F0BCAD
:1012B00003F057BB0CED00E000F00701054A106891
:1012C0004FF6FF03184040EA01200349084310602D
:1012D000704700000CED00E00000FA050149012014
:1012E0000862704700000E4210B501460020244CF1
:1012F000012922D0022939D010291DD16168226824
:10130000D20119D51F48C1F38342805CC9030AD5B5
:1013100061681C4AC1F34041921E515C1A4AB2FBFB
:10132000F1F1484301E0194948436168490203D497
:1013300040000321B0FBF1F010BD226AC2F301218D
:10134000012903D1920701D5C80310BD022905D197
:10135000626A920702D549F6404010BD0329FCD1CC
:1013600021688903F9D54FF2244010BD00F056F9E9
:101370006168C1F38131491C4900B0FBF1F010BD37
:10138000001002404050000800127A0000093D00A1
:101390002DE9F8430446DFF8F8802078C0075FD0D5
:1013A0000027D8F81C00C0000BD4D8F81C0040F06F
:1013B0008050C8F81C00D8F81C0000F08050009045
:1013C0000127344D2868C00512D4286840F4807085
:1013D0002860FFF79DFC064607E0FFF799FC801B9D
:1013E000642802D90320BDE8F8832868C005F4D535
:1013F000D8F8200000F4407010B3A18801F44071C7
:1014000081421DD0D8F8200020F4407022490122EA
:101410000A6000220A60C8F82000C00710D0FFF759
:1014200077FC054641F2883606E0FFF771FC401B69
:10143000B04201D90320D6E7D8F820008007F4D5C0
:10144000D8F82000616820F440700843C8F82000F4
:10145000012F05D1D8F81C0020F08050C8F81C00DE
:101460002078800707D5D8F80400A16820F4404010
:101470000843C8F804002078C00607D5D8F804004F
:10148000E16820F480000843C8F804000020AAE7BF
:101490000010024000700040400442422DE9F04735
:1014A00004460D46002C17D0DFF83081D8F8000034
:1014B00000F00700A84211D2D8F8000020F0070081
:1014C0002843C8F80000D8F8000000F00700A84240
:1014D00004D00120BDE8F0870120FBE72068404EE2
:1014E000810712D5400703D5706840F4E060706052
:1014F0002078000703D5706840F460507060706811
:10150000A16820F0F000084370602078C0072CD05C
:101510006068012806D0022809D0316889070BD4F9
:101520000120D7E73168890306D40120D2E731686A
:10153000890101D40120CDE7716821F00301014345
:101540007160FFF7E5FB074641F2883906E0FFF7D7
:10155000DFFBC01B484501D90320BBE77068616809
:1015600000F00C00B0EB810FF1D1D8F8000000F0D2
:101570000700A8420ED9D8F8000020F00700284341
:10158000C8F80000D8F8000000F00700A84201D019
:1015900001209FE72078400705D57068E16820F4B6
:1015A000E060084370602078000706D57068216904
:1015B00020F4605040EAC100706000F03FF87168AC
:1015C000084AC1F30311515CC84007490860074845
:1015D0000068FFF703FE00207CE7000000200240C7
:1015E0000010024050500008300000202800002069
:1015F00001480068704700003000002000B5FFF788
:10160000F7FF04494968044AC1F30221515CC8400C
:1016100000BD0000001002406050000800B5FFF758
:10162000E7FF04494968044AC1F3C221515CC8403C
:1016300000BD000000100240605000080E4B5968C9
:101640000E4801F00C02042A11D0082A0FD10C48D0
:10165000C1F38342805CC9030AD55968084AC1F3C3
:101660004041921E515C054A5043B0FBF1F0704777
:1016700004494843704700000010024000127A00FD
:101680002E50000800093D002DE9F84F0446002CBB
:101690000ED02078D94DC0075ED06868C0F38100B5
:1016A00001280BD06868C0F38100022803D00CE049
:1016B0000120BDE8F88F6868C00306D5286880035C
:1016C0004AD56068A8BB0120F3E76068B0F5803FA9
:1016D00011D0A8B1B0F5A02F1BD0286820F480301D
:1016E0002860286820F480202860606830B3FFF705
:1016F0000FFB06461EE0286840F480302860F4E7BF
:10170000286820F480302860286820F48020286031
:10171000EBE7286840F480202860286840F4803097
:101720002860E2E7FFF7F4FA801B642802D903205F
:10173000BFE711E028688003F4D50DE0FFF7E8FA71
:10174000064606E0FFF7E4FA801B642801D903206F
:10175000AFE728688003F5D42078DFF8A4828007FB
:101760004FF0010A4FF0000945D5686810F00C0FE2
:1017700007D06868C0F38100022812D16868C003EE
:101780000FD42868800704D52069012801D00120E2
:101790008FE72868616920F0F80040EAC1002860FE
:1017A00029E02069B8B1C8F800A0FFF7B1FA0646F1
:1017B00006E0FFF7ADFA801B022801D9032078E785
:1017C00028688007F5D52868616920F0F80040EAAC
:1017D000C10028600FE0C8F80090FFF799FA0646AC
:1017E00006E0FFF795FA801B022801D9032060E785
:1017F00028688007F5D42078000726D58148A1699C
:1018000099B1C0F800A0FFF783FA064606E0FFF79B
:101810007FFA801B022801D903204AE7686A800703
:10182000F5D5012002F00CF90FE0C0F80090FFF7A9
:101830006FFA064606E0FFF76BFA801B022801D913
:10184000032036E7686A8007F5D42078400773D50F
:101850000026E869C00008D4E86940F08050E861DB
:10186000E86900F0805000900126DFF89CB1DBF8B9
:101870000000C00514D4DBF8000040F48070CBF801
:101880000000FFF745FA074606E0FFF741FAC01BE4
:10189000642801D903200CE7DBF80000C005F4D56B
:1018A000E068012812D0B0B105281DD0286A20F0C8
:1018B00001002862286A20F004002862E06841F2F2
:1018C000883B28B3FFF724FA07461DE0286A40F05A
:1018D00001002862F2E7286A20F001002862286AE5
:1018E00020F004002862E9E7286A40F0040028623A
:1018F000286A40F001002862E0E7FFF709FAC01B00
:10190000584501D90320D4E6286A8007F5D50DE0B3
:10191000FFF7FEF9074606E0FFF7FAF9C01B584546
:1019200001D90320C5E6286A8007F5D4012E03D12A
:10193000E86920F08050E861E069A0B36968C1F30C
:101940008101022946D0022805D0C8F86090FFF72F
:10195000DFF904463AE0C8F86090FFF7D9F9064687
:1019600006E0FFF7D5F9801B022801D90320A0E685
:1019700028688001F5D4206AB0F5803F05D16868F9
:10198000A16820F4003008436860D4E908010843E6
:10199000696821F4741108436860C8F860A0FFF713
:1019A000B7F9044607E026E0FFF7B2F9001B02286A
:1019B00001D903207DE628688001F5D51BE0FFF7FB
:1019C000A7F9001B022801D9032072E628688001CC
:1019D000F5D410E001280CD06868226A00F4803148
:1019E000914204D1616A00F47010884203D0012052
:1019F0005FE601205DE600205BE60000001002408B
:101A0000000042428004424200700040704770472C
:101A100010B5044620680168C90719D04168C90794
:101A200016D04068400709D52046FFF7F0FF21682F
:101A30006FF0040048600420607404E02046FFF763
:101A4000E5FF012060742068416821F001014160D8
:101A500010BD000070B50446002C03D0607C002649
:101A600010B105E0012070BD2674204600F048F852
:101A700002206074204600F02DF9042510B1657431
:101A8000012070BD204601F0F6FF10B16574012001
:101A900070BD2068416821F007014160A06820B155
:101AA0001648016821F0010101601448001F016817
:101AB000A26821F46071114301606068411C04D187
:101AC0000120FFF711FC70B1401E2268C0F30341F2
:101AD0009160216880B2C860204601F0E6FF28B11D
:101AE0006574012070BD6574012070BDE67301202E
:101AF0006073A0736074002070BD0000306C004003
:101B000008B500680D49884217D1FFF7E7FB0C487C
:101B1000C16941F00061C161C06900F000600090DE
:101B2000084901200860002211460320FFF7A4FBAA
:101B3000BDE808400320FFF791BB08BD0028004026
:101B4000001002403C0442422DE9F04104460D469B
:101B5000002C3FD0E5B3207C01283DD0012626741F
:101B600002206074AAB3E87801F07CFFE073687823
:101B700001F078FF6073A87801F074FFA073A27B76
:101B8000617BE07B01F0C9FF20732870204601F0E3
:101B9000B4FF4FF46161B0FBF1F10025182936D98B
:101BA0001822B1FBF2F1A1EB011101EB4101C1EBF4
:101BB000011100EBC1173946204601F0F8FF4FF044
:101BC000040890B184F8118025740120BDE8F081EB
:101BD00000E003E00120F9E70220F7E7E878E0738E
:101BE00068786073A878A073C9E7204601F07EFF8B
:101BF000411C0CD0B8420AD207490144204601F0EA
:101C0000BFFF20B184F8118025740120DEE76674DF
:101C100025740020DAE70000805101002DE9F04131
:101C200004460D46002C28D03DB3207C012826D048
:101C300001262674022060741AB3287801F012FF7E
:101C40004FF4616100FB01F7687801F00BFFC0EB16
:101C5000001007EB8007A87801F004FF3D18294623
:101C6000204601F0A4FF00274FF00408A8B184F833
:101C7000118027740120BDE8F0810120FBE70220DC
:101C8000F9E729784FF4616041436878C0EB0010B0
:101C900001EB8000A9784518E1E72068416821F050
:101CA00005014160204601F021FF411C0CD0A842F3
:101CB0000AD207490144204601F062FF20B184F8AE
:101CC000118027740120D6E7667427740020D2E7BC
:101CD0008051010070B50446002C0AD0206841688C
:101CE00021F008014160FFF713F805464FF47A76BA
:101CF00008E0012070BDFFF70BF8401BB04201D98E
:101D0000032070BD206840680007F4D5002070BD36
:101D10007047000038B50446206842688168C943AE
:101D20004B060AD5CB0708D1D3435B0605D4216CFB
:101D300001B02046BDE8304008478B0708D4D343A4
:101D40001B0605D4616C01B02046BDE83040084751
:101D50008B0601D54B064AD4D3439B0647D44B068A
:101D60000AD494F85130032B42D0636D43F004033E
:101D70006365C36883680093890609D4616D41F087
:101D80000101616581680091016821F040010160F5
:101D9000606D00282BD02068416821F0E00141608F
:101DA000012084F8510002F0020002F00101084312
:101DB00022D02068416821F003014160104DE06CA1
:101DC00040B14563E06CFEF741FE18B1606D40F034
:101DD00040006065A06C002809D04563A06CFEF748
:101DE00035FE002803D0606D40F04000606538BDCE
:101DF000C1688068009038BD2046FFF789FF38BD74
:101E0000E93B000870B50446002C09D0606A002543
:101E100040B125616561A56294F8510040B10CE0C4
:101E2000012070BD6068B0F5827FF4D0E561F2E713
:101E300084F85050204600F03FF8022084F851000A
:101E40002068016821F040010160A088218900F428
:101E5000827001F404410843A18901F40061084340
:101E6000217C01F002010843217D01F001010843BA
:101E7000218B01F400710843217F01F038010843F0
:101E800094F8201001F080010843218D01F40051E5
:101E9000084321680860A069042101EA1040216814
:101EA00048602068C16921F40061C1616565012055
:101EB00084F85100002070BD30B585B00024019435
:101EC0000294039404940068184988422BD118485E
:101ED000816941F480518161816901F480510091EF
:101EE000816941F004018161806900F00400009083
:101EF000A020019002200290032004900D4D01A922
:101F00002846FEF705FE402101910294039401A9A1
:101F10002846FEF7FDFD002211462320FFF7ACF90D
:101F20002320FFF79BF905B030BD000000300140D1
:101F300000100240000801402DE9F84F04468A468F
:101F400091461D46002694F85100012801D0022632
:101F500099E060684FF0040BB0F5827F01D1A06872
:101F600020B394F8500001282BD04FF0010884F8DA
:101F70005080FEF7CDFE0746BAF1000F23D0B9F12D
:101F8000000F20D084F851B000206065C4F838A05C
:101F9000A4F83C90A4F83E902063A086E0862064DC
:101FA0006064A068B0F5004F0FD018E084F851B01D
:101FB0004B46524651462046009500F033F9BDE8A5
:101FC000F88F0220FBE701265DE02068016821F020
:101FD000400101602068016821F4804101602068AF
:101FE0000168490603D4016841F040010160E068DE
:101FF000B0B133E020688168C90709D0007BA16BCC
:102000000870A06B401CA063E08F401EE08707E0D3
:10201000FEF77EFEC01BA84201D3681C04D11DB18F
:10202000E08F0028E6D11CE0032684F851802AE0E6
:1020300020688168C90709D0C068A16B0880A06BBF
:10204000801CA063E08F401EE08707E0FEF760FE83
:10205000C01BA84201D3681C0FD175B1E08F0028C6
:10206000E6D13A462946204601F0C6FD08B12020B7
:102070006065606D28B1012605E0032684F8518073
:1020800001E084F85180002084F85000304696E743
:102090002DE9F84F04468B4692461D46002694F8DB
:1020A000500001280DD04FF0010884F85080FEF751
:1020B0002FFE074694F85100B146012804D00226AD
:1020C000ACE00220BDE8F88FBBF1000F1CD05FEA46
:1020D0000A0019D0032084F85100C4F85490C4F8C1
:1020E00030B0A4F834A0A4F836A0C4F83890A4F80E
:1020F0003C90A4F83E90C4F84490C4F84090A06886
:10210000B0F5004F02D00BE0012687E0206801689F
:1021100021F0400101602068016841F480410160C4
:1021200020680168490603D4016841F0400101605C
:10213000E068B0F5006F05D0606888B3BAF1010FB0
:102140002FD04FE0606810B1BAF1010F20D1206BA1
:1021500021680088C860206B801C2063E08E401ED0
:10216000E08615E020688168890709D5216B098818
:10217000C160206B801C2063E08E401EE08607E07B
:10218000FEF7C6FDC01BA84201D3681C04D11DB1D7
:10219000E08E0028E6D128E0032684F851803DE057
:1021A000FFE7206B216800780873206B401C2063D8
:1021B000E08E401EE08615E020688168890709D519
:1021C000216B09780173206B401C2063E08E401E58
:1021D000E08607E0FEF79CFDC01BA84201D3681C07
:1021E0000ED16DB1E08E0028E6D13A462946204650
:1021F00001F03AFD08B120206065A06820B107E039
:10220000032684F8518009E02068C1688068009046
:10221000606D08B1012601E084F8518084F8509087
:1022200030464FE72DE9FF4F81B004460E9E8B46A6
:1022300098460125002794F8500001280ED0AA46A0
:1022400084F850A0FEF764FD814694F8510061685F
:1022500001280DD0B1F5827F08D103E0022005B03E
:10226000BDE8F08FA16809B9042801D00227CFE0AA
:10227000BBF1000F2DD0039858B35FEA080028D0B7
:1022800094F85100042802D0052084F85100002061
:1022900060650399A163A4F83E80A4F83C80C4F86B
:1022A00030B0A4F83680A4F83480206460642068DC
:1022B0000168490603D4016841F040010160E0680B
:1022C000B0F5006F07D06068F0B3B8F1010F49D0E6
:1022D0007EE001279CE0606810B1B8F1010F3AD1AF
:1022E000206B21680088C860206B801C2063E08E12
:1022F000401EE0862FE02068816889070DD5E18EB9
:1023000059B1012D09D1216B0988C160206B801C56
:102310002063E08E401EE086002520688168C907A2
:102320000BD0E18F49B1C068A16B0880A06B801C05
:10233000A063E08F401EE0870125FEF7E9FCA0EBDB
:102340000900B04207D300E00CE0701C03D0032763
:1023500084F851A05CE0E08E0028CCD1E08F00280A
:10236000C9D13BE0206B216800780873206B401CCA
:102370002063E08E401EE0862AE02068816889079D
:102380000DD5E18E59B1012D09D1216B0978017369
:10239000206B401C2063E08E401EE08600252068F4
:1023A0008168C9070BD0E18F49B1C068A16B087083
:1023B000A06B401CA063E08F401EE0870125FEF764
:1023C000A7FCA0EB0900B04201D3701C10D17EB174
:1023D000E08E0028D1D1E08F0028CED14A46314688
:1023E000204601F041FC38B10127202060650FE054
:1023F000032784F851A00BE0A06818B92068C168D1
:1024000080680090606D08B1012701E084F851A058
:10241000002084F85000384621E710B5401EB0F186
:10242000807F01D3012010BD4FF0E02460610F21B7
:10243000601702F096FA0020A061072020610020BA
:1024400010BD70477047000070B590F83C20012A1D
:1024500025D0012680F83C60022280F83D200268E9
:102460005468936824F070050C682C4354600D4C3C
:102470000268A24208D0B2F1804F05D00A4CA242B5
:1024800002D00A4CA24204D123F0800349681943C8
:1024900091603C30467000210170002070BD022028
:1024A00070BD0000002C0140000400400008004006
:1024B00010B50446002C03D094F83D0010B107E09D
:1024C000012010BD002084F83C00204600F016F8E2
:1024D000022084F83D00211D206802F087F80120C9
:1024E0003D3460726070A070E07020716071A07106
:1024F000E07120722070002010BD000008B5006857
:102500000B49884212D10B48C16941F00401C161F5
:10251000C06900F004000090002211461E20FEF762
:10252000ABFEBDE808401E20FEF798BE08BD0000C7
:10253000000800400010024070B50446002594F8E1
:102540003C00012817D0012684F83C60022084F862
:102550003D002068826822F0770222F47F42826088
:102560000868502838D00DDC202853D005DC90B303
:10257000102811D14EE0022070BD30284AD04028EA
:102580000AD13DE0602831D070280CD0B0F5805FD2
:1025900003D0B0F5005F12D001253C3466700020F6
:1025A0002070284670BDCB68D1E90121206802F077
:1025B00053F82068816841F077018160EDE7CB68CE
:1025C000D1E90121206802F047F82068816841F4D0
:1025D00080418160E1E71DE0CA684968206802F037
:1025E0004DF85021206802F041F8D6E7CA684968E2
:1025F000206802F054F86021206802F037F8CCE738
:10260000CA684968206802F039F84021206802F061
:102610002DF8C2E722680146104602F027F8BCE711
:10262000704770B50446206801694FF00005C94342
:10263000890716D4C168C943890712D4E91E01610C
:102640000120207720688069800703D02046FFF7AB
:10265000E7FF05E0204600F09BF8204600F099F8DF
:10266000257720680169C943490718D4C168C9435F
:10267000490714D46FF0040101610220207720681B
:10268000806910F4407F03D02046FFF7C9FF05E0C2
:10269000204600F07DF8204600F07BF82577206882
:1026A0000169C943090717D4C168C943090713D48D
:1026B0006FF008010161042020772068C06980075D
:1026C00003D02046FFF7ACFF05E0204600F060F89D
:1026D000204600F05EF8257720680169C943C906E5
:1026E00018D4C168C943C90614D46FF01001016140
:1026F000082020772068C06910F4407F03D020466E
:10270000FFF78EFF05E0204600F042F8204600F07B
:1027100040F8257720680169C943C90708D1C16815
:10272000C943C90704D1891E0161204600F032F86F
:1027300020680169C943090609D4C168C94309066B
:1027400005D46FF0800101612046FFF77AFE206812
:102750000169C943490609D4C168C943490605D47A
:102760006FF040010161204600F015F82068016912
:10277000C94389060BD4C168C943890607D46FF0E1
:10278000200101612046BDE87040FFF75BBE70BDCF
:10279000704770477047704770477047F8B50446F8
:1027A00022681068D168536900F00F06002E08D126
:1027B000850606D58D0604D52046BDE8F84001F013
:1027C000BCBF0025002E66D003F0010601F490770F
:1027D000374360D0C20705D0CA0503D5626C42F00A
:1027E00001026264420705D5DA0703D0626C42F049
:1027F00002026264820705D5DA0703D0626C42F0F8
:1028000004026264020707D501F02002324303D0BC
:10281000626C42F008026264626C002A31D0800669
:1028200004D5880602D5204601F087FF206840695C
:10283000C0F38010616C090700D438B3204601F062
:1028400048FF2068406940061CD52068143050E8D5
:10285000001F21F0400140E80012002AF5D1E06B92
:1028600060B159494163E06BFEF7F0F8002808D0E9
:10287000E06B416B01B0BDE8F04008472046FFF730
:102880008CFFF8BD2046FFF788FFF8BD2046FFF714
:1028900084FF6564F8BD236B012B7DD1C3067BD516
:1028A000CB067ED510685068009050694FF0200329
:1028B00040064FF0020643D5E16B0868406880B2DD
:1028C0000028E7D0A28D8242E4D9E08588692028DB
:1028D0002DD020680C3050E8001F21F4807140E8B2
:1028E0000012002AF5D12068143050E8001F21F0B2
:1028F000010140E80012002AF5D12068143050E8A8
:10290000001F21F0400140E80012002AF5D184F8B0
:102910004230256320680C3050E8001F21F0100180
:1029200040E80012002AF5D1E06BFEF76BF8666311
:10293000A08DE18D401A81B22046FFF72DFFF8BD32
:10294000A08DE18D401A81B2E08D0028F7D00029DA
:10295000F5D020680C3050E8002F22F4907240E847
:102960000027002FF5D12068143050E8002F22F006
:10297000010240E80027002FF5D184F8423025639A
:1029800020680C3050E8002F22F0100240E80023AD
:10299000002BF5D1666300E003E02046FFF7FCFE64
:1029A000F8BD020606D50A0604D52046BDE8F84063
:1029B00001F0A0BF4006F3D54806F1D52046BDE89A
:1029C000F84001F0ADBE0000C346000870B50446F3
:1029D000002C04D094F84100002510B106E001203D
:1029E00070BD84F84050204600F024F8242084F87C
:1029F00041002068C16821F40051C160204601F007
:102A000001FF2068016921F490410161206841695A
:102A100021F02A0141612068C16841F40051C16080
:102A20006564202084F8410084F84200656300203A
:102A300070BD000030B585B0002401940294039469
:102A400004940068184988422CD11848816941F4DF
:102A500080418161816901F480410091816941F087
:102A600004018161806900F0040000904FF400705F
:102A7000019002200290032004900D4D01A92846E8
:102A8000FEF746F8291501910294039401A92846FE
:102A9000FEF73EF8002211462520FEF7EDFB25202B
:102AA000FEF7DCFB05B030BD0038014000100240ED
:102AB0000008014090F84230202B01D002207047DE
:102AC00021B11AB10023036301F0F8BE0120704761
:102AD00010B5074988420AD10648FDF738FE054976
:102AE000002008398862BDE8104002F0FFB910BD2F
:102AF0003C0100208C09002090F84130202B01D0AF
:102B00000220704779B172B101628284C2840021CF
:102B10004164212180F841100068C16841F08001C2
:102B2000C1600020704701207047000007498842BB
:102B30000AD10748818B408B814203D1044814306D
:102B4000FDF75ABE02F096B8704700003C01002025
:102B500084090020FEE700000148FEF7E1B800000C
:102B6000340000200148FEF73DB900003400002089
:102B7000C16AB1F52A0F06D0C16AB1F12A4F01D15D
:102B80000821C16270470121C162704738B5002237
:102B9000406A90F83D302B4946F2A8140968B1FB11
:102BA000F4F1C1EBC10101EB81010091009969B31E
:102BB0000099491E0091016809688905F6D4416BA6
:102BC00001B18A62816B01B18A6201680C6824F4E8
:102BD00080640C604285416B01B14A63816B01B135
:102BE0004A6301680C6824F001040C6090F83D1001
:102BF000202460290FD0282535EA030113D080F85E
:102C00003D4080F83E20FEF7BBF938BD016C41F035
:102C100020010164D3E780F83D4080F83E20026443
:102C2000FEF77CF838BD01680B6843F001030B60C8
:102C300001680B6843F480630B60026380F83D50C9
:102C4000E1E700003000002000684169C94309063F
:102C500001D400210161704770B5044694F83D002D
:102C600094F83E10102901D0402906D1222804D121
:102C700021680A6822F400620A60282131EA000211
:102C80004FF000054FF0200628D02168496809055B
:102C900005D4602803D084F83D6084F83E50256355
:102CA00020684168090539D5416821F40061416017
:102CB000606B90F821203D49012A13D04163606B7D
:102CC000FDF7C4FE48B32068016821F001010160EE
:102CD00084F83D60606B416B884730E0256384F881
:102CE0003D10DDE7A06B4163A06BFDF7AFFEA0B127
:102CF00020684169C943490605D40069616A0870C2
:102D0000606A401C60622068016821F00101016076
:102D100084F83D60A06B416B884710E094F83D104B
:102D2000602910D04169C943490605D40069616A28
:102D30000870606A401C60622046FEF721F9206C32
:102D4000C1071CD115E084F83D6025644169C94381
:102D5000490605D40069616A0870606A401C6062B7
:102D60002068016821F0010101602046FDF7D6FFCF
:102D7000E5E7810703D4410701D4000704D52068A3
:102D8000416821F4E061416094F83D00216C4907FD
:102D90000BD5282809D10648E062256384F83D60F8
:102DA00084F83E502046FEF7B9F970BD8D2B00081F
:102DB0000000FFFF10B5C26A438D0168042B0FD0DD
:102DC000438D032B1BD0438D022B30D00969426AFF
:102DD0001170416A491C4162418D491E418510BDF7
:102DE0004A6822F480624A6001680969426A117087
:102DF000416A491C4162418D491E418510BD4B68A5
:102E000023F480634B60042A06D0022A04D00168B0
:102E10000A6822F480620A6001680969426A1170D6
:102E2000416A491C4162418D491E418510BD012AFC
:102E300030D0102A2ED0042A31D0022A2FD00A688E
:102E400042F400720A6001680969426A1170416ABD
:102E5000491C4162428D521E4285026812690A7005
:102E6000416A491C4162418D491E418501684A6899
:102E700022F440724A60202180F83D1090F83E20F4
:102E80000021402A10D080F83E1012210163FEF785
:102E900046F910BD0A6822F480620A60D3E70A6826
:102EA00042F480620A60CEE780F83E100163FEF7CC
:102EB00038F910BD10B5044694F83D00222814D10D
:102EC000608D032812D920680069616A0870606A01
:102ED000401C6062608D401E6085608D032804D1B7
:102EE0002068416821F48061416010BDE16A0229D7
:102EF00002D0012806D028B12068416821F4806101
:102F0000416010BD204600F0F5FB00212022B0B149
:102F10002068436823F4E063436020680069636AC3
:102F20001870606A401C6062608D401E608584F885
:102F30003D2084F83E102046FEF722F810BD2068A0
:102F4000036823F4806303602068436823F4E0632C
:102F5000436020680069636A1870606A401C6062A0
:102F6000608D401E608584F83D2094F83E00402826
:102F700007D084F83E10122020632046FEF7CFF8D9
:102F800010BD84F83E1021632046FEF7CAF810BD3C
:102F900010B5C16A90F83D20212A0BD1428D52B163
:102FA000416A026809781161416A491C4162418D98
:102FB000491E418510BD20230022082912D0202956
:102FC00010D011F5803F0DD001684C6824F4E06406
:102FD0004C601121016380F83E2080F83D30FEF7FF
:102FE0009FF810BD01684C6824F4E0644C600168EF
:102FF0000C6844F400740C60026380F83D3090F873
:103000003E10402904D080F83E20FEF789F810BD1C
:1030100080F83E20FEF786F810BD10B590F83D1000
:1030200090F83E30C26A048D002C01D1212916D0BF
:10303000212903D0402B11D122290FD1418DD9B3A1
:1030400090F83E10402943D0416A02680978116126
:10305000416A491C4162418D491E418510BD2024B1
:103060000023082A12D0202A10D012F5803F0DD05C
:1030700001684A6822F4E0624A601121016380F825
:103080003E3080F83D40FEF74BF810BD01684A68BD
:1030900022F4E0624A6001680A6842F400720A6041
:1030A000036380F83D4090F83E10402905D080F839
:1030B0003E30FEF735F810BD04E080F83E30FEF7F4
:1030C00031F8F8E70068416821F480614160F2E777
:1030D000BDE8104000F032B9416C0268C9B211611C
:1030E000416B002901D0896A29B9816B002907D079
:1030F000896A002904D00068416841F40061416098
:103100007047000078B590F83E40C26A056B90F8B1
:103110003D6000230168222E03D048698869009031
:1031200078BD066D0EB9402C02D0046D24B107E0C5
:1031300048698869009078BD0469B4F5404F1BD098
:10314000448D24B3468D544C012E28D0458D022D3C
:1031500069D00D6845F480650D6001684D682D05E6
:1031600009D5A24272D0012A70D0082A6ED0102A46
:103170006CD0202A6AD089E04A698A6900920A687C
:1031800042F480720A60016D491C016578BD4A698C
:103190008A6900920A6842F400720A607AE0A242E8
:1031A00018D10A6822F480620A6001684A68120530
:1031B00008D50A6822F480620A6001684A69896950
:1031C000009167E04A698A6900920A6842F40072D5
:1031D0000A605FE0082A05D0202A03D0122D0ED104
:1031E000012A0CD00A6822F480620A6001684A69E8
:1031F0008A6900920A6842F400720A604AE0042A6E
:1032000008D0022A06D0102A04D00A6822F480626C
:103210000A6003E00A6842F480620A6001684A6951
:103220008969009136E0042A11D0022A0FD0102AB1
:103230000DD00D6845F400650D6001684D698D691C
:1032400000950D6825F480650D6008E01AE00D68B2
:1032500045F480650D6001684D69896900910168D8
:103260004D682D0516D5A24207D0012A05D0082A9F
:1032700003D0102A01D0202A0CD14A6842F480528F
:103280004A6007E04A6842F480524A6001684A692D
:1032900089690091036578BD0000FFFF90F83E103A
:1032A000402911D00169B1F5804F1CD0016D79B36F
:1032B000016D012907D1416C006801F44071F122D0
:1032C00042EAD11101617047016D31B1416C006872
:1032D000C9B241F0010101617047416C006801F021
:1032E000FE010161704790F83D1021290AD0416C20
:1032F0000268C9B241F001011161416B49B1896AAB
:1033000069B906E0416C026801F0FE011161F4E761
:103310000BE0816B0029E5D0896A0029E2D00068C2
:10332000416841F4006141607047416C006801F4FC
:103330004071F02242EAD1110161704710B590F856
:103340003D10026D002A09D0026D012A1AD0026DCB
:10335000022A1FD0BDE81040FFF776BCC16C0129DE
:1033600008D0816C0268C1F307211161016D491C0D
:10337000016510BD816C0268C9B21161016D891CC3
:10338000016510BD816C0268C9B21161016D491CF3
:10339000016510BD22291CD0428D0AB1212921D0FE
:1033A000428D002AF5D12129F3D101684A6822F41F
:1033B000E0624A6001680A6842F400720A60002113
:1033C0000163202280F83D2080F83E10FDF7AAFE20
:1033D00010BD01680A6842F480720A60016D491CE0
:1033E000016510BD416A026809781161416A491C92
:1033F0004162418D491E418510BD418D002909D092
:1034000001680969426A1170416A491C4162418D33
:10341000491E4185704710B590F83D10428D002A35
:103420001AD002681269436A1A70426A521C4262D8
:10343000428D521E4285428D002A0DD12A290BD180
:1034400001684A6822F480624A60222101632821CF
:1034500080F83D10FDF7A6FE10BD418D002909D072
:10346000416A026809781161416A491C4162418DD3
:10347000491E4185704710B590F83D10428D002AD5
:103480001AD0426A036812781A61426A521C426278
:10349000428D521E4285428D002A0DD129290BD121
:1034A00001684A6822F480624A6021210163282170
:1034B00080F83D10FDF777FE10BD38B50C460021B1
:1034C00090F83D202825954302680B4605D05169A8
:1034D0009169009180F83C3038BD556825F48065CD
:1034E0005560E243540700D50121120602D58289B6
:1034F00092B201E0028B92B280F83C30FDF70FFCF3
:1035000038BD00002DE9F041044694F83D10E26A10
:10351000002520271E4E20686FF48063082A01D002
:10352000202A01D1282904D0212917D04361BDE8E0
:10353000F081E662416821F4E06141602068436106
:103540002068016821F480610160256384F83D7082
:1035500084F83E502046FDF7E1FDE8E7E6622121D0
:10356000216384F83D7084F83E50416821F4E061A5
:103570004160206843612068016821F48061016036
:103580002046FFF761FB2046FDF70DFECFE7000068
:103590000000FFFFF8B5044694F83D5020684168EC
:1035A00021F4E061416000262068416900910168D2
:1035B00041F0010101602068016821F4806101602F
:1035C00020684168090520D5484F222D48D02A2D72
:1035D00046D0616B096849686185618D19B1216CBC
:1035E00041F004012164416821F400614160606B95
:1035F000FDF778FA012808D0606B4763606BFDF730
:1036000025FA10B1606B416B8847608D08B3206864
:103610004169C943490708D40069616A0870606A52
:10362000401C6062608D401E608520684169C9430E
:10363000490608D40069616A0870606A401C6062CB
:10364000608D401E6085608D18B1206C40F00400D4
:103650002064206C10B32046BDE8F840FFF7FCBAA8
:10366000A16B096849686185618D19B1216C41F0D0
:1036700004012164416821F400614160A06BFDF701
:1036800031FA0128C1D0A06B4763A06BFDF7DEF9CA
:103690000028BAD0A06B416B8847B6E72A2D06D127
:1036A0002663282084F83D002046FDF77BFD94F832
:1036B0003D10202028290DD0216B222901D0222D58
:1036C00007D1266384F83D0084F83E602046FDF76C
:1036D00069FDF8BD0649E162266384F83D0084F87F
:1036E0003E602046FDF71AFDF8BD00008D2B000856
:1036F0000000FFFF08B50D4946F2A8120968B1FBAA
:10370000F2F101EB810100910099491E00910099AD
:1037100029B1016809688905F6D4002008BD016C4B
:1037200041F020010164012008BD000030000020AC
:1037300010B586B0002402940394049405940D48B7
:10374000816941F010018161806900F010000190F1
:10375000002000F02DF84FF400500290112003904B
:1037600004940220059002A90348FDF7D1F906B0A0
:1037700010BD0000001002400010014010B50B49C0
:103780000A78022A05D00870022803D00020487069
:10379000488010BD054CA41E207880F001002070E8
:1037A00000F006F8C820FDF7A1F9F5E71A0000209F
:1037B00080F001024FF400510148FDF7A1BA00006A
:1037C000001001402DE9F04786B0002402940394D4
:1037D000049405942F48816941F010018161816949
:1037E00001F010010191816941F02001816181693D
:1037F00001F020010191816941F004018161816939
:1038000001F004010191816941F008018161806941
:1038100000F008000190DFF880804FF4005500228E
:1038200029464046FDF76CFADFF870900022192116
:103830004846FDF765FADFF868A04FF40847002214
:1038400039465046FDF75CFA02950125039504942C
:103850000226059602A94046FDF75AF91920029062
:1038600003950494059602A94846FDF751F92802EC
:1038700002900394049402A95046FDF749F9029777
:1038800003950494059602A95046FDF741F906B048
:10389000BDE8F0870010024000100140000C01401C
:1038A0000008014010B50D480B4901600C4941600A
:1038B00000218160C1604FF48042026141618161F9
:1038C000C1610162FDF75EFB002803D0BDE8104036
:1038D000FCF7D8BF10BD00000054004034000020A9
:1038E000801A06001CB5002401940094174816495C
:1038F0000160611E41604FF480718160FEF7AAF89B
:1039000008B1FCF7BFFF8DF804408DF805408DF835
:103910000640012201A90D48FEF780F908B1FCF725
:10392000B1FF01208DF800008DF801008DF8020034
:103930008DF80340012269460448FEF705F9002886
:1039400001D0FCF79FFF1CBD00280040880000202C
:1039500010B510480E4901604FF48271416000219A
:103960008160C160016141614FF40072826128226F
:10397000C2610162416281620A21C162FEF742FABC
:10398000002803D0BDE81040FCF77CBF10BD00004C
:10399000003001409C00002010B586B00024029445
:1039A000039404940594009401941448124901600E
:1039B0004460846044F24F61C1604FF40071016162
:1039C0008461FEF775FD08B1FCF75CFF4FF4805091
:1039D000029002A90948FEF7AFFD08B1FCF752FFBB
:1039E0000094019469460548FEF72EFD002801D099
:1039F000FCF748FF06B010BD00080040F4000020AE
:103A000010B50C480A4901604FF41641416000218D
:103A10008160C16001610C2242618161C161FEF778
:103A2000D5FF002803D0BDE81040FCF72BBF10BD28
:103A3000003801403C010020FEE7FEE7704700002F
:103A400008B507494FF4FA520968B1FBF2F1414356
:103A5000009100BF0098411E0091FAD208BD0000FD
:103A600030000020010901EB8101490000F00F0046
:103A70000844C0B2704770B50546FDF749F90446E1
:103A80004FF47A7606E0FDF743F9001BB04201D906
:103A9000032070BD286840688006F4D52868416816
:103AA00041F010014160002070BD70B505462868E6
:103AB000416821F010014160FDF72AF904464FF4F6
:103AC0007A7606E0FDF724F9001BB04201D9032005
:103AD00070BD286840688006F4D5002070BD0000E5
:103AE0000148FDF795BF0000880000200068016ACA
:103AF000406A80B240EA014070470068816989B23B
:103B0000C26993B2826992B2914203D0C06962F3F2
:103B10001F40704743EA01407047F0B500F5FA6076
:103B20006427C1EBC1030925BE00072403EB011381
:103B3000032912D2B3FBF5F111440144401EB0FB3E
:103B4000F7F201EB9001B0FBF6F0891A0844001D72
:103B5000B0FBF4F104FB110010E0B3FBF5F11144EC
:103B6000B0FBF7F2014401EB9001B0FBF6F0891ACB
:103B70000844801CB0FBF4F104FB1100C0B2F0BD9E
:103B800070B505460E4600242846FFF774FF08B1BD
:103B900001240AE02968300C08622968B0B2486242
:103BA0002846FFF782FF00B10124204670BD70B5A2
:103BB00005460E4600242846FFF75DFF08B10124A4
:103BC0000AE02968300C88612968B0B2C8612846CB
:103BD000FFF76BFF00B10124204670BD0148FEF7DE
:103BE00099B800009C00002010B5406A0021C187F0
:103BF000C186FEF78DF810BDF8B504464FF4827506
:103C000060684FF48063A8420AD1A068B0F5004F05
:103C100001D0984204D12068066826F0400606606C
:103C20006068A84210D1A06898420DD10B4600925E
:103C300000220121204600F029F898B1606D40F083
:103C4000200060650320F8BD0B4600920022802111
:103C5000204600F01BF828B1606D40F02000606540
:103C60000320F8BD0020F8BD38B504460B4600928D
:103C700000228021204600F009F828B1606D40F054
:103C800020006065032038BD002038BD2DE9F843D1
:103C900004460F4691461E46089DFDF739F8401B25
:103CA000351AFDF735F8804626480068C0F3CB305A
:103CB000684300903AE0701C38D0FDF729F8A0EB7B
:103CC0000800A84203D215B1009858B32BE0206831
:103CD000416821F0E00141606068B0F5827F0BD15E
:103CE000A068B0F5004F02D0B0F5806F04D1206815
:103CF000016821F040010160A06AB0F5005F09D1C0
:103D00002068016821F4005101602068016841F4D5
:103D100000510160012050346070002020700320A9
:103D2000BDE8F88300250098401E00902068806858
:103D300037EA000004D000204845BCD10020EFE75E
:103D40000120F9E730000020704700001FB500F0A7
:103D5000BBF810B1002004B010BD10A090E80E0018
:103D6000C0688DE80E0003906846FCF76EFA82B2D8
:103D700069460E48FCF7FAFC0C481438416A41F0D9
:103D800002014162052180F82C100E2101624EF6DD
:103D90006021016000F06EFF0120DCE741542B43FD
:103DA0004D47443D312C340D0A0000009809002095
:103DB00010B5064991F84011002905D01022044998
:103DC000FCF762FA012010BD002010BD840900201C
:103DD000C40A002010B50C460B49B1F85021002A46
:103DE0000FD00022A1F850210F222D31FCF74CFA00
:103DF00005494FF480723C312046FCF745FA01201A
:103E000010BD002010BD0000840900202DE9FF41F5
:103E10002749C1F83C0100240194029403944FF413
:103E200080700090234F69463846FCF771FEF81405
:103E300000901120019002940226039669463846AC
:103E4000FCF766FE002001F047F8B503009501225B
:103E500001920294039669463846FCF759FE2246C1
:103E600029463846FCF74CFF13496D112A4601F6E6
:103E70000800FCF7E5FC11492A4601F21440FCF762
:103E8000DFFC10480E4901604FF416414160846028
:103E9000C46004610C2141618461C461FEF796FD38
:103EA00008B1FCF7EFFC01F021F8BDE8FF8100004C
:103EB00084090020000801408401002084050020BE
:103EC000003801403C010020024890F82400C0F373
:103ED00040007047840900202DE9FC5F4FF0000A84
:103EE000FF4D4FF0060905F1080000270190C3E1DE
:103EF0000222FCA10198FCF783FC0446601C69D0F7
:103F00000320FFF73BFCA41CA4B24FF00008A868F4
:103F10000178A9B1022C0AD30222F3A1FCF769F9B6
:103F200070B10222EFA1A868FCF763F940B1062C3A
:103F30000CD90422EDA1A868FCF75BF910B105E0EB
:103F400000BF22E195F82C00012810D0022C05D3E7
:103F50000222E8A1A868FCF74CF998B1032C46D9D5
:103F60000322E5A1A868FCF744F990B33FE0A868F4
:103F7000801DFCF731F94FF00108B0F5164FE0D085
:103F8000C24602E1BAF1000F04D04FF001084FF031
:103F9000000AFAE095F82C00012802D1296A0329C9
:103FA00004D0042805D0052808D00AE000F0C4FA9F
:103FB000EBE085F82C704FF00108E6E0296A0A2949
:103FC00002D0052807D0E0E00B2028624FF001085E
:103FD000DBE008E03CE1286A0E28B2D100F058FE90
:103FE0004FF00108D1E095F82C00012808D0072CEB
:103FF0000FD90722C1A1A868FCF7FBF828B108E097
:10400000042028624FF00108BFE095F82C00012839
:1040100008D0072C18D90722BAA1A868FCF7E9F83C
:1040200070B111E0A868C079312804D04FF0804009
:1040300000F02AFFA9E0052028624FF00108A4E063
:1040400095F82C00012808D00A2C1BD90A22AFA110
:10405000A868FCF7CEF888B114E0A8680522C01D56
:10406000ADA1FCF7C6F820B14FF0804000F00CFF86
:104070008BE0C5F820904FF0010886E095F82C0001
:10408000012808D0092C0FD90922A5A1A868FCF79E
:10409000B0F828B108E0072028624FF0010874E06A
:1040A00095F82C00012802D0112C05D008E008203A
:1040B00028624FF0010868E095F82C00032818D01A
:1040C000052C05D9052299A1A868FCF792F898B3A8
:1040D0000C2C05D90C2297A1A868FCF78AF860B3CC
:1040E0000C2C4ED90C2297A1A868FCF782F8E8B3F3
:1040F00047E000220020A968095CA1F13003092BE8
:1041000007D82B1883F84011401CC0B20F28F2D3F7
:1041100000E00122002A02D04FF0000001E04FF041
:1041200010002946084480F8407102D14FF0090080
:1041300008624FF0010828E000E004E04FF0804002
:1041400000F0A2FE21E0A968A01F0844052281A179
:10415000FCF74FF848B1A8680C30FCF73DF8A5F81B
:10416000500185F82C900D20286200E002E04FF00D
:1041700001080AE095F82C00062802D1286A0D28CB
:1041800012D076490868401C0860B8F1000F06D0CC
:10419000686A40F001007249084068626F60214619
:1041A0000198FCF753FB67E06E480068009002221C
:1041B0006DA10198FCF724FB8346ADF800000BF1DC
:1041C000020081B20198FCF741FB022267A101982D
:1041D000FCF716FBADF80200BBF1FF3FD5D0411C48
:1041E000D3D00E28D1DC064602463D48A9682D30C2
:1041F0008046FCF749F806F80870022239A10198B8
:10420000FCF7FEFAADF800008046042258A10198A0
:10421000FCF7F6FA0146ADF80200A1EB0800801E9B
:1042200086B2FF2E00D9FF26A868324600EB0801AF
:104230002B48891C3C30FCF727F8A81980F83C7003
:104240000920286200F024FD4FF00108C2469CE7D7
:10425000E88902280CD3022247A1A868FBF7C9FF0E
:1042600030B995F82C00052802D1286A0B2807D010
:1042700001210198FCF7EAFAA86AC8280ED011E0DB
:104280000C202862686A40F00100354908406862E5
:104290006F6002210198FCF7D9FAEDE7E88901285F
:1042A0003FF626AE95F82C004FF00056072869D24D
:1042B000DFE800F068048B7D94A3D700286803240E
:1042C00028B9286A01285FD0304600F0DDFD286A51
:1042D000082863D0022865D0032853D14EE051E06E
:1042E000840900200D0A0000415400002B4950525F
:1042F000000000004F4B0000524459002B4346552C
:104300004E3A20002B4350494E3A200043414C4C3A
:104310002052454144590000524541445900000093
:10432000534D532052454144590000004552524FCD
:10433000520000002B434D54493A2022534D222C69
:10434000000000002B434D47523A202252454320A3
:1043500000000000505553482200000020000020BB
:10436000FDFFFFBF085000082C220000222C000097
:104370000D0A0D0A000000003E20000000F048FD7C
:104380002F626C62BDE8FC9F02212962002000F0D0
:10439000A3FD6C624EF66020286098E7BDE8FC5FE4
:1043A00000F076BC00F01AFB2F626C62EAE7286826
:1043B00030B1286A0928E5D1BDE8FC5F00F068BC8F
:1043C0003046BDE8FC5F00F05FBD28680028D9D109
:1043D000BDE8FC5F0021012000F056B8FFF774FD36
:1043E00038B128680028CDD13046BDE8FC5F00F028
:1043F0004BBDBDE8FC5F00F01DBC296A0A290ED048
:104400000B291BD00C29BDD1FFF75EFD28B328680E
:104410000028B7D13046BDE8FC5F00F035BDFFF79E
:1044200053FD38B128680028ACD13046BDE8FC5FA8
:1044300000F02ABDBDE8FC5F00F0C6BCFFF744FDFC
:1044400038B1286800289DD13046BDE8FC5F00F0F7
:104450001BBDBDE8FC5F00F02DBCBDE8FC5F00F0BB
:1044600093BC286A0D288DD1FFF72EFD38B128683E
:10447000002887D13046BDE8FC5F00F005BDBDE8EF
:10448000FC5F00F04DBC000070B50E46104B4FF4C1
:104490000041002807D001221846FCF731FCBDE896
:1044A000704000F049B800221846FCF729FC094C7E
:1044B000002584F82C506562002000F00DFD256277
:1044C000002E03D0022084F82C00266070BD00006E
:1044D00000080140840900200EB5FFF7F5FC08B183
:1044E00000200EBD10A0D0E900128068CDE90012B6
:1044F00002906846FBF7A9FE82B269460D48FCF7B8
:1045000035F90C481438416A41F002014162032137
:1045100080F82C100021016241F28831016000F026
:10452000A9FB01200EBD000041542B47534E0D0A3C
:10453000000000009809002010B5012000F0CCFC1C
:10454000044803214162012180F82C100162FA2104
:10455000016010BD84090020FCF726BE70B594B040
:1045600028210AA8FBF76BFF142105A8FBF767FFBA
:104570000024019402940394049405200A904FF4BB
:1045800080300B900C9401250D950E950226119606
:1045900012904FF4E01013900AA8FDF775F808B1D7
:1045A000FCF770F90F200590069607944FF4806091
:1045B00008900994022105A8FCF770FF08B1FCF7E8
:1045C00061F901954FF48070029001A8FCF7E0FEBC
:1045D000002801D0FCF756F914B070BD70470000F8
:1045E0000148FEF71EB80000F4000020F0B5026894
:1045F000164C174D174E4FF08047A04205D0B842D9
:1046000003D0A84201D0B04203D122F070034A681F
:104610001A43A04205D0B84203D0A84201D0B0420C
:1046200003D122F44073CA681A434B6922F0800216
:104630001A4302608A68C2620A688262A04201D19B
:104640000969016301214161F0BD0000002C0140B6
:10465000000400400008004010B5846824F47F4442
:1046600042EA03220A432243826010BD826822F09C
:1046700070020A4342F007018160704710B5036A77
:10468000046A24F001040462846924F0F00444EA1A
:10469000021423F00A020A438461026210BD10B5BD
:1046A000036A046A24F010040462846924F47044E8
:1046B00044EA023223F0A00343EA0111826101625D
:1046C00010BD10B5406A0021C185C184FEF765F8B0
:1046D00010BD01680C3151E8002F22F4907241E8BE
:1046E0000023002BF5D10168143151E8002F22F08E
:1046F000010241E80023002BF5D1016B012909D10A
:1047000001680C3151E8002F22F0100241E800232B
:10471000002BF5D1202180F8421000210163704761
:1047200010B50168CA6822F04002CA60202180F8F2
:104730004110FEF7FBF9002010BD08B590F84210BB
:10474000222901D0022008BD82684FF480539A428A
:1047500001D1016921B1816A9A421DD052B10BE0A9
:10476000816A02685268C2F308020A80816A891C61
:10477000816209E002697AB10268526802F07F0240
:104780000A70816A491C8162C18D491E0904090CA5
:10479000C18505D0002008BD026852680A70F0E7A4
:1047A0000168CA6822F02002CA600168CA6822F45F
:1047B0008072CA6001684A6922F001024A612021C0
:1047C00080F8421000214163026B012A03D0FEF7FA
:1047D0007FF9002008BD016301680C3151E8002F0A
:1047E00022F0100241E80023002BF5D101680A688D
:1047F000D20602D50A6849680091818DFDF7CCFF89
:10480000E7E7000070B5044620680169E26821F41A
:10481000405111430161A16820690143606901436E
:104820002068C26841F20C639A430A43C260206860
:104830004169A26921F44071114341611E49206818
:10484000884202D1FCF7EAFE01E0FCF7D7FE00EB5C
:10485000C00101EB0010616864228900B0FBF1F334
:10486000B3FBF2F36FF018067343B0FBF1F5B0FB46
:10487000F1F605EB8305322303EB0515B5FBF2F5E5
:10488000B6FBF2F605F0F00505EB0615B0FBF1F608
:10489000B0FBF1F0B0FBF2F06FF01801484306EB0B
:1048A000800003EB0010B0FBF2F0216800F00F0075
:1048B0002844886070BD0000003801408162828514
:1048C000C28500214164222180F84210016900293B
:1048D00004D00168CA6842F48072CA6001684A69FB
:1048E00042F001024A610068C16841F02001C160E4
:1048F0000020704790F84110212901D00220704714
:104900008168B1F5805F01D1016961B1016A4A1C1A
:104910000262026809785160C18C491E0904090CC1
:10492000C1840AD013E0016A02680988C1F3080152
:104930005160016A891C0162EEE70168CA6822F0D1
:104940008002CA600068C16841F04001C160002077
:10495000704700000148FDF721BF00003C01002026
:10496000FEE70907090E002804DB00F1E02080F8CB
:104970000014704700F00F0000F1E02080F8141DD3
:104980007047000038B5044600F038F9F0B1012056
:1049900000F066FA0FA000680090200C8DF801006E
:1049A000200A8DF802008DF803404FF47A73042238
:1049B00069460948FDF76CFB50B10024002000F067
:1049C0004FFA3220FCF792F8204638BD002038BD5F
:1049D0000124F3E7200000009C0000200EB50CA08D
:1049E000D0E900128068CDE9001202906846FBF71A
:1049F0002CFC82B269460948FBF7B8FE0748143818
:104A0000416A41F00201416200F034F90EBD00003C
:104A100041542B4950523F0D0A00000098090020D4
:104A200010B503460020002205E033F8124014447C
:104A30004440A0B2521CB2EB510FF6D3CA0705D0C6
:104A40005A1812F8012C1144414088B210BD0000E0
:104A5000FCF7B2FBFFF782FDFEF7B4FEFEF768FE3F
:104A6000FEF79AFFFBF714FF2648FFF7CFF9FFF791
:104A700075FDFEF7A7FEFEF715FFFEF733FFFEF705
:104A800067FFFEF789FFFEF7BBFF0120FEF776FE0A
:104A9000162200211C48FBF745FF10B90220FEF743
:104AA0006DFE042219A11848FBF7A3FB164C30B980
:104AB00014212046FFF7B4FFA18A884216D00520B2
:104AC000FEF75CFE104811A1801E0968C0F80210B4
:104AD0000F21201DFBF791FC14210B48FFF7A0FFCD
:104AE000A082162200210848FBF75AFF40F24C40F2
:104AF000FBF7FCFF00210120FFF7C6FCFFF7ECF9F4
:104B0000FCE70000154B000802000020434F4E4612
:104B10000000000010B5134C05290ED0207828B1F4
:104B20004EF660210020FFF7AFFC01E0FFF704FD27
:104B3000217801208843207010BD002121700128B8
:104B400007D0032809D00628F6D1BDE8104000F0B0
:104B50000BB8BDE81040FFF7BFBCBDE81040FFF741
:104B6000F5B800000000002030B5C9B0002445941D
:104B70004694479448944FF4807105A8FBF75FFC76
:104B800005A945A8FFF726F9002831D0194D0F22B5
:104B9000291D45A8FBF72DFB002829D0032216A1CB
:104BA00005A8FBF726FB002822D101940294039468
:104BB000049401A8FFF7FCF801A8FBF746FBC0B27C
:104BC00001A90144891F062206A8FBF712FB002851
:104BD0000ED10F2245A9281DFBF756FB14212846AC
:104BE000FFF71EFFA882162200212846FBF7D8FEF9
:104BF00049B030BD020000205245470038B50120C1
:104C000000F02EF909A0006800904FF47A73012299
:104C100069460748FDF73CFA28B10024002000F05F
:104C20001FF9204638BD0124F8E700000600000007
:104C30009C0000201CB50CA003C8CDE9000168460B
:104C4000FBF703FB82B269460948FBF78FFD084872
:104C50001438416A41F00201416241F28831016039
:104C600000F008F81CBD000041540D0A00000000CF
:104C7000980900200449888B421C8A8349690122D3
:104C800001440248FDF738BF840900203C010020A0
:104C9000074A052151620023136292F82C0082F822
:104CA0002C301360D2F83C21002A00D01047704706
:104CB000840900203EB515A0D0E900128068CDE936
:104CC000001202906846FBF7C0FA82B212486946A9
:104CD0000546FBF74BFD104819300446FBF7B5FAC3
:104CE00082B221462846FBF741FD03220BA128464C
:104CF000FBF73CFD08481438416A41F0020141626B
:104D00004EF660210160FFF7B5FF3EBD41542B43D5
:104D10004D47533D2200000098090020220D0A0053
:104D20003EB514A0D0E900128068CDE900120290CF
:104D30006846FBF78AFA82B2114869460546FBF7D6
:104D400015FD0F4C0023143C0422B4F850112846E2
:104D5000FBF728FD02220BA12846FBF707FD606A3E
:104D600040F00200606241F288302060FFF782FF6D
:104D70003EBD000041542B434D47523D0000000012
:104D8000980900200D0A000070B50E480546FBF793
:104D90005CFA82B20B4C1A203C3CA11881F83C0012
:104DA000521C92B2294604F11400FBF7DFFC606A42
:104DB00040F0020060624EF660202060BDE8704066
:104DC000FFF758BFC00900200EB50DA0D0E90012B2
:104DD0008068CDE9001202906846FBF736FA82B28D
:104DE00069460A48FBF7C2FC08481438416A41F09A
:104DF0000201416241F288310160FFF73BFF0EBDC5
:104E000041542B434D47463D310D0A00980900207F
:104E100000B587B018220BA101A8FBF7BCFA01A8C6
:104E2000FBF713FA82B201A90C48FBF79FFC0B4871
:104E30001438416A41F002014162FFF71BFF07B0DD
:104E400000BD000041542B4950523D3338343030BE
:104E50000D0A415426570D0A000000009809002051
:104E600010B500BF00BF00BF00BF00BF80F001024F
:104E700001210448FBF744FF00BF00BF00BF00BF93
:104E800000BF10BD000C014070B506461148FBF78D
:104E9000B3FC10480C30FBF7AFFC0E4C083C94F808
:104EA0002C50606A20F0C041314321F00200606262
:104EB000002084F82C0020620420FEF75FFCD4F868
:104EC0003C21002A04D02846616ABDE870401047A2
:104ED00070BD00008C09002080F001024FF40061D9
:104EE0000148FBF70DBF0000000801400122024904
:104EF0000248FDF7DFBD0000960900203C010020BC
:104F000038B505460C46FFF779FEC0B10120FFF722
:104F1000A7FF15A000680090200C8DF80100200A62
:104F20008DF802008DF803404FF47A742346042272
:104F300069460E48FDF7ACF818B100240AE00020DD
:104F400038BD23464FF4807229460848FDF7A0F883
:104F500040B100240020FFF783FF0520FBF7C6FDCA
:104F6000204638BD0124F5E7020000009C00002027
:104F70002DE9F04180460C461746260B36034FF4C8
:104F80008052974204D031461348FBF7CBFC70B1F6
:104F9000114DC4F30B0028443A464146FBF774F91F
:104FA0003046FFF7EFFC28B1102700240DE0002069
:104FB000BDE8F0810020FBE706EB042105EB0420AF
:104FC000FFF79EFF28B1641CE4B2BC42F4D3012079
:104FD000EEE70020ECE70000D80A002010B5002919
:104FE0000AD00878002807D005487844FBF768FB0A
:104FF000002801D0002010BD0248784410BD0000F8
:105000009E00000096000000FFFFFFFF010000006F
:105010000A00000064000000E80300001027000000
:10502000A086010040420F00809698000102020312
:105030000405060708090A0B0C0D0E0F10100102DB
:1050400002030405060708090A0B0C0D0E0F1010C9
:105050000000000000000000010203040607080928
:105060000000000001020304985100080000002025
:105070003400000028010008CC5100083400002052
:10508000042100004401000810010000430000005A
:10509000F8FFFFFF00404040404040404040414159
:1050A00041414140404040404040404040404040FD
:1050B0004040404040050202020202020202020297
:1050C0000202020202202020202020202020200294
:1050D0000202020202029090909090901010101024
:1050E00010101010101010101010101010101010C0
:1050F0000202020202028888888888880808080854
:10510000080808080808080808080808080808081F
:105110000202020240000000000000000000000047
:10512000000000000000000000000000000000007F
:10513000000000000000000000000000000000006F
:10514000000000000000000000000000000000005F
:10515000000000000000000000000000000000004F
:10516000000000000000000000000000000000003F
:10517000000000000000000000000000000000002F
:10518000000000000000000000000000000000001F
:1051900000000000000000000000434F4E460000E9
:1051A00000000000000000000000000000000000FF
:1051B00000000000000000000000000001000000EE
:0C51C00010000000000000000024F400BB
:04000005080000ED02
:00000001FF
